:020000040800F2
:1000000000000220754700087D3E00087F3E000882
:10001000813E0008833E0008853E00080000000085
:10002000000000000000000000000000873E000803
:10003000893E0008000000008B3E00088D3E00084D
:10004000C5470008C5470008C5470008C547000860
:10005000C5470008913E0008C5470008C54700088D
:10006000C5470008C5470008C5470008C547000840
:10007000C5470008C5470008C5470008C547000830
:10008000C5470008C5470008953E0008C547000859
:10009000C5470008C5470008C5470008A13E00083D
:1000A000CD3E0008C93E0008C53E0008B93E000824
:1000B000C5470008C5470008D13E0008DD3E0008DE
:1000C000E93E0008C5470008C5470008C5470008C5
:1000D000C5470008F53E0008C5470008C5470008A9
:1000E000293F0008C5470008C5470008C547000864
:1000F000C5470008C5470008C5470008C5470008B0
:10010000C5470008C5470008C5470008C54700089F
:10011000C5470008C5470008C5470008C54700088F
:10012000C5470008C5470008C5470008C54700087F
:10013000C5470008C5470008C5470008C54700086F
:10014000C5470008C5470008C5470008C54700085F
:10015000C5470008C5470008C5470008413F0008DB
:10016000C5470008C5470008C5470008C54700083F
:10017000C5470008C5470008C54700080000000043
:08018000C5470008C54700084F
:1001880010B5054C237833B9044B13B10448AFF3C9
:1001980000800123237010BDDC0100200000000056
:1001A800CC6B000808B5034B1BB103490348AFF3F8
:1001B800008008BD00000000E0010020CC6B0008B2
:1001C800034613F8012B002AFBD1181A013870478F
:1001D80081F0004102E000BF83F0004330B54FEAF0
:1001E80041044FEA430594EA050F08BF90EA020F5D
:1001F8001FBF54EA000C55EA020C7FEA645C7FEAF0
:10020800655C00F0E2804FEA5454D4EB5555B8BF12
:100218006D420CDD2C4480EA020281EA030382EA83
:10022800000083EA010180EA020281EA0303362D15
:1002380088BF30BD11F0004F4FEA01314FF4801CE8
:100248004CEA113102D0404261EB410113F0004FFA
:100258004FEA03334CEA133302D0524263EB4303B1
:1002680094EA050F00F0A780A4F10104D5F1200E4F
:100278000DDB02FA0EFC22FA05F2801841F10001AA
:1002880003FA0EF2801843FA05F359410EE0A5F17E
:1002980020050EF1200E012A03FA0EFC28BF4CF0AF
:1002A800020C43FA05F3C01851EBE37101F0004565
:1002B80007D54FF0000EDCF1000C7EEB00006EEB72
:1002C8000101B1F5801F1BD3B1F5001F0CD34908FC
:1002D8005FEA30004FEA3C0C04F101044FEA445253
:1002E80012F5800F80F09A80BCF1004F08BF5FEADA
:1002F800500C50F1000041EB045141EA050130BDBA
:100308005FEA4C0C404141EB010111F4801FA4F15C
:100318000104E9D191F0000F04BF01460020B1FAB1
:1003280081F308BF2033A3F10B03B3F120020CDAE9
:100338000C3208DD02F1140CC2F10C0201FA0CF0C7
:1003480021FA02F10CE002F11402D8BFC2F1200C2C
:1003580001FA02F120FA0CFCDCBF41EA0C019040E2
:10036800E41AA2BF01EB0451294330BD6FEA04042B
:100378001F3C1CDA0C340EDC04F11404C4F1200216
:1003880020FA04F001FA02F340EA030021FA04F328
:1003980045EA030130BDC4F10C04C4F1200220FA7F
:1003A80002F001FA04F340EA0300294630BD21FABD
:1003B80004F0294630BD94F0000F83F4801306BF83
:1003C80081F480110134013D4EE77FEA645C18BF77
:1003D8007FEA655C29D094EA050F08BF90EA020F0E
:1003E80005D054EA000C04BF1946104630BD91EA06
:1003F800030F1EBF0021002030BD5FEA545C05D109
:100408004000494128BF41F0004130BD14F5800447
:100418003CBF01F5801130BD01F0004545F0FE41BB
:1004280041F470014FF0000030BD7FEA645C1ABFF0
:10043800194610467FEA655C1CBF0B46024650EA27
:10044800013406BF52EA033591EA030F41F4002153
:1004580030BD00BF90F0000F04BF0021704730B5D9
:100468004FF4806404F132044FF000054FF00001AE
:1004780050E700BF90F0000F04BF0021704730B56F
:100488004FF4806404F1320410F0004548BF404244
:100498004FF000013EE700BF42004FEAE2014FEA99
:1004A80031014FEA02701FBF12F07F4393F07F4F74
:1004B80081F06051704792F0000F14BF93F07F4FA6
:1004C800704730B54FF4607401F0004521F00041E9
:1004D80020E700BF50EA010208BF704730B54FF06F
:1004E80000050AE050EA010208BF704730B511F074
:1004F800004502D5404261EB41014FF4806404F1AC
:1005080032045FEA915C3FF4DCAE4FF003025FEA2D
:10051800DC0C18BF03325FEADC0C18BF033202EBB5
:10052800DC02C2F1200300FA03FC20FA02F001FA0F
:1005380003FE40EA0E0021FA02F11444C1E600BFAE
:1005480070B54FF0FF0C4CF4E06C1CEA11541DBF61
:100558001CEA135594EA0C0F95EA0C0F00F0DEF82C
:100568002C4481EA030621EA4C5123EA4C5350EA11
:10057800013518BF52EA033541F4801143F4801362
:1005880038D0A0FB02CE4FF00005E1FB02E506F0F3
:100598000042E0FB03E54FF00006E1FB03569CF048
:1005A800000F18BF4EF0010EA4F1FF04B6F5007F4E
:1005B80064F5407404D25FEA4E0E6D4146EB0606C0
:1005C80042EAC62141EA55514FEAC52040EA5E5049
:1005D8004FEACE2EB4F1FD0C88BFBCF5E06F1ED8F3
:1005E800BEF1004F08BF5FEA500E50F1000041EB2A
:1005F800045170BD06F0004646EA010140EA0200D7
:1006080081EA0301B4EB5C04C2BFD4EB0C0541EAF8
:10061800045170BD41F480114FF0000E013C00F30D
:10062800AB8014F1360FDEBF002001F0004170BD31
:10063800C4F10004203C35DA0C341BDC04F114044A
:10064800C4F1200500FA05F320FA04F001FA05F2D6
:1006580040EA020001F0004221F0004110EBD370A3
:1006680021FA04F642EB06015EEA430E08BF20EACF
:10067800D37070BDC4F10C04C4F1200500FA04F372
:1006880020FA05F001FA04F240EA020001F0004104
:1006980010EBD37041F100015EEA430E08BF20EA77
:1006A800D37070BDC4F1200500FA05F24EEA020EBF
:1006B80020FA04F301FA05F243EA020321FA04F0EE
:1006C80001F0004121FA04F220EA020000EBD370A5
:1006D8005EEA430E08BF20EAD37070BD94F0000FA5
:1006E8000FD101F00046400041EB010111F4801FD9
:1006F80008BF013CF7D041EA060195F0000F18BF8A
:10070800704703F00046520043EB030313F4801FC5
:1007180008BF013DF7D043EA0603704794EA0C0F7F
:100728000CEA135518BF95EA0C0F0CD050EA410695
:1007380018BF52EA4306D1D181EA030101F0004112
:100748004FF0000070BD50EA410606BF104619463A
:1007580052EA430619D094EA0C0F02D150EA013646
:1007680013D195EA0C0F05D152EA03361CBF104687
:1007780019460AD181EA030101F0004141F0FE4126
:1007880041F470014FF0000070BD41F0FE4141F4AA
:10079800780170BD70B54FF0FF0C4CF4E06C1CEAAA
:1007A80011541DBF1CEA135594EA0C0F95EA0C0F5F
:1007B80000F0A7F8A4EB050481EA030E52EA03351A
:1007C8004FEA013100F088804FEA03334FF080553B
:1007D80045EA131343EA12634FEA022245EA111568
:1007E80045EA10654FEA00260EF000419D4208BF19
:1007F800964244F1FD0404F5407402D25B084FEAC6
:100808003202B61A65EB03055B084FEA32024FF471
:1008180080104FF4002CB6EB020E75EB030E22BFCE
:10082800B61A754640EA0C005B084FEA3202B6EB8E
:10083800020E75EB030E22BFB61A754640EA5C003D
:100848005B084FEA3202B6EB020E75EB030E22BFCD
:10085800B61A754640EA9C005B084FEA3202B6EBCE
:10086800020E75EB030E22BFB61A754640EADC008D
:1008780055EA060E18D04FEA051545EA16754FEAEF
:1008880006164FEAC30343EA52734FEAC2025FEA0D
:100898001C1CC0D111F4801F0BD141EA00014FF09C
:1008A80000004FF0004CB6E711F4801F04BF01436D
:1008B8000020B4F1FD0C88BFBCF5E06F3FF6AFAE89
:1008C800B5EB030C04BFB6EB020C5FEA500C50F119
:1008D800000041EB045170BD0EF0004E4EEA11319C
:1008E80014EB5C04C2BFD4EB0C0541EA045170BDA3
:1008F80041F480114FF0000E013C90E645EA060EE7
:100908008DE60CEA135594EA0C0F08BF95EA0C0F14
:100918003FF43BAF94EA0C0F0AD150EA01347FF45C
:1009280034AF95EA0C0F7FF425AF104619462CE733
:1009380095EA0C0F06D152EA03353FF4FDAE104696
:10094800194622E750EA410618BF52EA43067FF4E7
:10095800C5AE50EA41047FF40DAF52EA43057FF477
:10096800EBAE12E74FF0FF3C06E000BF4FF0010C82
:1009780002E000BF4FF0010C4DF804CD4FEA410CE6
:100988007FEA6C5C4FEA430C18BF7FEA6C5C1BD0B3
:1009980001B050EA410C0CBF52EA430C91EA030F34
:1009A80002BF90EA020F0020704710F1000F91EA91
:1009B800030F58BF994208BF90422CBFD8176FEA5F
:1009C800E37040F0010070474FEA410C7FEA6C5C2D
:1009D80002D150EA013C07D14FEA430C7FEA6C5C34
:1009E800D6D152EA033CD3D05DF8040B704700BF60
:1009F8008446104662468C461946634600E000BFAE
:100A080001B5FFF7B7FF002848BF10F1000F01BD7F
:100A18004DF808EDFFF7F4FF0CBF012000205DF84A
:100A280008FB00BF4DF808EDFFF7EAFF34BF0120CF
:100A380000205DF808FB00BF4DF808EDFFF7E0FF68
:100A480094BF012000205DF808FB00BF4DF808EDB9
:100A5800FFF7CEFF94BF012000205DF808FB00BF20
:100A68004DF808EDFFF7C4FF34BF012000205DF802
:100A780008FB00BF4FEA410C7FEA6C5C02D150EAE8
:100A8800013C0AD14FEA430C7FEA6C5C02D152EA7E
:100A9800033C02D14FF0000070474FF0010070474F
:100AA8004FEA410212F5001215D211D56FF478738E
:100AB800B3EB625212D94FEAC12343F0004343EA31
:100AC800505311F0004F23FA02F018BF404270470C
:100AD8004FF00000704750EA013005D111F0004096
:100AE80008BF6FF0004070474FF00000704700BF2C
:100AF80053B94AB9002908BF00281CBF4FF0FF317D
:100B08004FF0FF3000F07AB9ADF1080C6DE904CE72
:100B180000F006F8DDF804E0DDE9022304B07047D0
:100B28002DE9F0478C460D460446089E002B51D10E
:100B38008A4217466DD9B2FA82FEBEF1000F0BD079
:100B4800CEF1200C01FA0EF520FA0CFC02FA0EF791
:100B58004CEA050C00FA0EF44FEA174A250CBCFBC8
:100B6800FAF81FFA87F90AFB18CC45EA0C4508FB86
:100B780009F3AB420AD9ED1908F1FF3280F023815D
:100B8800AB4240F22081A8F102083D44ED1AA4B21C
:100B9800B5FBFAF00AFB105544EA054400FB09F9D5
:100BA800A14509D9E41900F1FF3380F00A81A14574
:100BB80040F2078102383C44A4EB090440EA0840AB
:100BC8000021002E61D024FA0EF4002334607360F3
:100BD800BDE8F0878B4207D9002E54D0002186E863
:100BE80021000846BDE8F087B3FA83F1002940F0F8
:100BF8008E80AB4202D3824200F2FA80841A65EBFF
:100C080003050120AC46002E3FD086E81010BDE851
:100C1800F08712B90127B7FBF2F7B7FA87FEBEF1E2
:100C2800000F34D1EB1B3A0C1FFA87FC0121B3FBF0
:100C3800F2F8250C02FB183345EA03450CFB08F3D0
:100C4800AB4207D9ED1908F1FF3002D2AB4200F2EE
:100C5800D1808046ED1AA3B2B5FBF2F002FB105525
:100C680043EA05440CFB00FCA44507D9E41900F14C
:100C7800FF3302D2A44500F2B8801846A4EB0C0456
:100C880040EA08409DE731463046BDE8F087CEF19E
:100C9800200405FA0EF307FA0EF720FA04F83A0CC6
:100CA80025FA04F448EA0308B4FBF2F14FEA1845C0
:100CB80002FB11441FFA87FC45EA044501FB0CF3CB
:100CC800AB4200FA0EF409D9ED1901F1FF3080F0BA
:100CD8008A80AB4240F2878002393D44EB1A1FFA02
:100CE80088F5B3FBF2F002FB103345EA034500FB3D
:100CF8000CF3AB4207D9ED1900F1FF386FD2AB42C4
:100D08006DD902383D44EB1A40EA01418FE7C1F141
:100D1800200722FA07F88B4005FA01F448EA030392
:100D280020FA07FE4FEA134CFD404EEA040EB5FBCD
:100D3800FCF94FEA1E440CFB19551FFA83F844EAE4
:100D4800054509FB08F4AC4202FA01F200FA01FA7F
:100D580008D9ED1809F1FF3043D2AC4241D9A9F1C5
:100D680002091D442D1B1FFA8EFEB5FBFCF00CFB7F
:100D780010554EEA054400FB08F8A04507D9E418C9
:100D880000F1FF3529D2A04527D902381C4440EA92
:100D98000940A4EB0804A0FB02894C45C6464D4611
:100DA80015D312D056B1BAEB0E0364EB050404FA5E
:100DB80007F7CB401F43CC40376074600021BDE883
:100DC800F0871846F8E69046E0E6C245EAD2B8EB66
:100DD800020E69EB03050138E4E72846D7E74046E9
:100DE80091E78146BEE7014678E702383C4445E78B
:100DF800084608E7A8F102083D442BE7704700BF02
:100E080038B50E4A0E4B054618784FF47A73B3FB83
:100E1800F0F31068B0FBF3F000F0D8FA044658B9C4
:100E28000F2D09D8024629464FF0FF3000F08CFA02
:100E3800044B20461D6038BD012038BD0800002045
:100E4800000000200400002008B50B4B1A6842F48B
:100E580000721A601A6842F480621A601A6842F4D2
:100E680080721A60032000F05DFA0020FFF7C8FFC7
:100E780002F0DCFF002008BD003C024038B5044603
:100E8800002800F09B80056C25B902F059FB6564C9
:100E980084F83C50236CDB0600F18E80236C23F42D
:100EA800885323F0020343F002032364444B5A6837
:100EB80022F440325A605A6861680A435A602368CB
:100EC80021695A6822F480725A605A6842EA0122FB
:100ED8005A605A68A16822F040725A605A680A43F8
:100EE8005A609A68E16822F400629A609A680A4334
:100EF8009A603449A26A8A4252D0996821F0706196
:100F0800996099680A439A609A68E16A22F04052A7
:100F18009A609A680A439A609A68217E22F00202CF
:100F28009A609A6842EA41029A6094F82020002A5E
:100F38003ED05A68616A42F400625A605A6822F4E4
:100F480060425A605A68013942EA41325A60DA6AA4
:100F5800E16922F47002DA62DA6A013942EA01527E
:100F6800DA629A6894F8301022F400729A609A68EB
:100F780042EA41229A609A68616922F480629A6022
:100F88009A68002042EA81229A606064236C23F008
:100F9800030343F001032364002384F83C3038BD85
:100FA8009A6822F070629A609A6822F04052B2E71A
:100FB8005A6822F40062C9E70120EDE7012038BD34
:100FC800002301400100000F82B00023019390F834
:100FD8003C30012B67D0012380F83C3003689A68C5
:100FE800D10705D59A68D20714D4002002B07047FB
:100FF8009A682E4942F001029A602D4A1268B2FBA3
:10100800F1F202EB42020192019A002AEAD0019A17
:10101800013AF8E7026C22F4E06222F0010242F49D
:10102800807202645A68510541BF026C22F4405232
:1010380042F480520264026C12F480521CBF426C6B
:1010480022F006024264002280F83C206FF022025F
:101058001A605A6842F0806242F020025A60154ACB
:10106800516811F01F0F14491AD18B4206D001F5AF
:1010780080718B420BD15268D206B6D1986810F0B5
:101088004050B2D19A6842F080429A60AEE70B496C
:101098008B42AAD1526802F01F020F2AEED9A4E7A8
:1010A8008B42A2D1EAE70220A0E700BF40420F002E
:1010B80008000020002301400020014000220140D8
:1010C8000368D86C70477047704738B5036819686B
:1010D8005A688D0704462BD5900629D5226CD1066F
:1010E8005EBF226C42F4007222649A6812F0405F7C
:1010F80017D1227EAAB9DA6A12F4700F02D09A6860
:1011080052050ED45A6822F020025A60236C23F448
:1011180080732364236CDB045EBF236C43F00103FC
:101128002364204602F0F6FB23686FF012021A606F
:10113800236819685A684D0732D5100630D5226CD5
:10114800D1065EBF226C42F4005222649A6812F4FF
:10115800401F1ED19A6B12F4401F02D09A685205A4
:1011680017D45A68550514D49A6812F0405F10D104
:10117800227E72B95A6822F080025A60236C23F4E6
:1011880080532364236CD8055EBF236C43F00103AE
:101198002364204600F0C4F823686FF00C021A603C
:1011A800236819685A68C9070FD555060DD51B68F5
:1011B800D8070AD5236C43F4803323642046FFF70D
:1011C80082FF23686FF001021A60236819685A6861
:1011D80089060DD552010BD5626C6FF0200542F0DF
:1011E8000202626420461D60FFF76EFF23681D60DF
:1011F80038BD0000F7B50023019390F83C30012B6F
:1012080000F083800D6804688A680123092D80F83E
:101218003C30AEB22AD906EB4603E7681E3B4FF0D6
:10122800070E0EFA03FE27EA0E07E760E76802FAE0
:1012380003F33B43E3604A68062A4FEA820325D852
:101248001344676B591F1F238B4027EA030363630B
:10125800626B06FA01F1114361632D4B9C4234D055
:10126800002380F83C30184603B0F0BD276905EB31
:1012780045034FF0070E0EFA03FE27EA0E07276113
:10128800276902FA03F33B432361D4E70C2A0ED8FB
:101298001344216BA3F123021F23934021EA030384
:1012A8002363236B06FA02F21A432263D5E7134439
:1012B800E16A413B1F229A4021EA0202E262E26AA5
:1012C80006FA03F11143E162C7E7122D04D1114A6E
:1012D800536843F480035360A5F11003012BBFD872
:1012E8000C4A5368102D43F400035360B8D10A4BDD
:1012F8000A4A1B68B3FBF2F20A2353430193019B8A
:10130800002BADD0019B013BF8E70220ACE700BF02
:1013180000200140002301400800002040420F0047
:1013280070470000074AD36823F4E0631B041B0CD2
:1013380043F0BF63000243F4003300F4E06003436A
:10134800D360704700ED00E0174B30B5DC68C4F39C
:101358000224C4F10703251D042B28BF0423062DEE
:101368004FF0010505FA03F303F1FF338CBF033C8B
:1013780000241940A14005FA04F4013C2240002849
:1013880042EA01024FEA0212ADBF00F1604000F0EC
:101398000F00064B00F56140B5BFD2B2D2B21A5465
:1013A80080F8002330BD00BF00ED00E014ED00E040
:1013B800002808DB4209012300F01F0003FA00F0AF
:1013C800014B43F82200704700E100E00138B0F11A
:1013D800807F0AD2064B074A5860F02182F8231012
:1013E8000020072298601A6070470120704700BFEC
:1013F80010E000E000ED00E090F83530022B03D05B
:1014080080234365012070470268052380F8353042
:10141800136823F0010313600020704790F835002B
:10142800704700002DE9F04F85B00B68DFF8AC81FC
:10143800684ADFF8AC91019300234FF0010E019C3C
:101448000EFA03FE0EEA0406B64540F0AE804C687C
:1014580024F01007022F16D14FEAD30A00EB8A0AAC
:1014680003F0070BDAF820504FEA8B0B4FF00F0C04
:101478000CFA0BFC25EA0C0C0D6905FA0BF545EA8C
:101488000C05CAF820504FEA430A0325D0F800B0EB
:1014980005FA0AF5ED4304F0030C0BEA050B0CFA08
:1014A8000AFC013F4CEA0B0C012FC0F800C011D810
:1014B800876807EA050BCF6807FA0AFC4CEA0B07AE
:1014C8008760476827EA0E0EC4F300179F4047EA73
:1014D8000E074760C7683D408F6807FA0AF73D4323
:1014E800C560E50061D54FF0000BCDF80CB0D8F819
:1014F8004470394D47F48047C8F84470D8F84470B0
:1015080007F480470397039F23F0030707F18047F9
:1015180007F59C3703F0030CD7F808A04FEA8C0CAA
:101528004FF00F0E0EFA0CFEA8422AEA0E0E43D018
:1015380005F58065A84241D005F58065A8423FD0F1
:1015480005F58065A8423DD005F58065A8423BD0E9
:1015580048453BD005F50065A84239D005F58065BA
:10156800A84214BF0825072505FA0CF545EA0E051B
:10157800BD601568F74314F4803F0CBF3D40354308
:101588001560556814F4003F0CBF3D403543556065
:10159800956814F4801F0CBF3D4035439560D568AD
:1015A800A40254BF3D403543D5600133102B7FF46E
:1015B80044AF05B0BDE8F08F5D46D5E70125D3E718
:1015C8000225D1E70325CFE70425CDE70525CBE79D
:1015D8000625C9E7003C01400000024000380240EF
:1015E800001402400AB1816170470904FBE77047A3
:1015F80008B5044B5969014202D05861FFF7F7FF5B
:1016080008BD00BF003C014070B5044608B9012080
:1016180070BD90F83D3003F0FF021BB980F83C2004
:1016280002F014F92268242384F83D30136823F06B
:101638000103136001F07EF86568414B9D424DD867
:10164800404B9842E3D922683F495368B0FBF1F117
:1016580023F03F030B435360136A23F03F03013128
:1016680019431162D169364B21F44F419D4221F053
:10167800FF0100F1FF3048D86D00B0FBF5F00130F4
:10168800C0F30B03042B38BF04230B43D361116849
:10169800206AE36921F0C00103430B43136091689A
:1016A800E068236921F40341034321F0FF010B4360
:1016B8009360D168A069636921F0FF0103430B437C
:1016C800D360136843F001031360002020232064D3
:1016D80084F83D30206384F83E0070BD1B4B98426F
:1016E80095D92268184E5368B0FBF6F623F03F03ED
:1016F80033435360136A4FF49671714323F03F03E9
:101708004FF47A76B1FBF6F1A9E7A36853B905EB74
:101718004503B0FBF3F0431CC3F30B036BB143F475
:101728000043B2E719236B43B0FBF3F0431CC3F348
:101738000B0313B143F44043A7E70123A5E700BF18
:10174800A08601007F841E0040420F00FF083D0074
:1017580070477047704770477047704770477047C9
:1017680070477047806B026890F83D1070B5146838
:10177800466B856B002324F48064F363EB63146089
:1017880043851468336524F001042B65146090F8D0
:101798003D40602CC9B208D1202280F83D2080F855
:1017A8003E300364FFF7DDFF70BD01F028012829F2
:1017B8000DD1146844F001041460146844F4806482
:1017C8001460036380F83D10FFF7CAFF70BD202244
:1017D80080F83D2080F83E30F6E7000090F83D2084
:1017E80090F83E30102B10B5D2B20446036805D1EC
:1017F800222A02BF196821F40061196002F0280149
:1018080028293AD10022226384F83D105A6812F43C
:10181800006259D05A68606B22F400625A6090F8EE
:101828003530012B3C4B35D00365FFF7E5FD50B152
:101838002268606B136823F001031360202384F887
:101848003D30036D984794F83D30226C5207DBB267
:1018580012D5282B10D12268536823F4E063536013
:101868002E4BE362202200232363204684F83D2088
:1018780084F83E30FFF771FF10BD5968090504D49C
:10188800602A1CBF202284F83D200022226384F8AD
:101898003E20BBE7A06B0365FFF7AEFD0028D2D062
:1018A80023685A69520605D5626A1B691370636A10
:1018B800013363622268A06B136823F0010313608D
:1018C800202384F83D30BCE794F83D10602915D1F9
:1018D800202184F83D1022645A69500605D5626AB1
:1018E8001B691370636A013363622268136823F00B
:1018F800010313602046FFF734FFA4E75A69510635
:1019080005D5626A1B691370636A013363622046F6
:10191800FFF726FF97E700BF6D1700080000FFFFDD
:10192800036830B55A68C56A90F83E100446C9B2D3
:1019380090F83D0010298DB0C0B202D0402940F087
:10194800B6829869596911F0010F07D1B5F52A0FC8
:1019580002D0B5F12A4F52D10DB030BD95054ED504
:10196800E26AB2F52A0F0CD10122E26294F83E2015
:10197800402A11D1226D52B9626C02F0FE021A613E
:10198800EAE7E26AB2F12A4FF0D10822EDE7626C89
:1019980042F00102D2B2F2E72269B2F5804F1BD1C0
:1019A80094F83D20212A626C12D102F0FE021A61DD
:1019B800626B12B9A16B0029CED0D26B1AB9A26B97
:1019C800D26B002AC8D05A6842F400625A60C3E752
:1019D80042F00102D2B2EAE7226D32B9626CD2114A
:1019E80002F0060242F0F002C9E7226D012AB3D1E3
:1019F800626CD21102F0060242F0F102BFE70D0755
:101A080003D5950501D5626CE4E78D0740F1E180C7
:101A1800950540F1DE8094F83E10E26A256B94F853
:101A28003D002228C9B240F0CC80206D40B9402941
:101A380006D101905A6901929B690193019B8BE73A
:101A4800216D81B92069B0F5404F0CD102915A69D6
:101A580002929A690292029A1A6842F480721A6093
:101A6800236D013328E0618D89B251B903915A6918
:101A780003929A690392039A1A6842F400721A60F0
:101A880019E0618D89B201294AD112F5803F1CD134
:101A98001A6822F480621A605A6812F400620DD043
:101AA8001A6822F480621A60002204925A69049229
:101AB8009B690493049B002323654DE705925A69AB
:101AC80005929A690592059AD6E7082A1CD0202A19
:101AD8001AD0122D0DD1012A16D11A6822F480626B
:101AE8001A60002206925A6906929B690693069B21
:101AF800E1E7102AF1D88E4921FA02F2D007ECD595
:101B08001A6842F48062EBE71A6822F480621A606D
:101B1800002207925A6907929A690792079AABE7D7
:101B2800618D89B202292CD1102A03D88049D1406D
:101B3800C90722D4196821F480611960196841F431
:101B48000061196059680D050FD512F5803F08D05E
:101B5800511E1F299DBF774ACA40D2430122D00790
:101B680003D45A6842F480525A60002208925A6993
:101B780008929B690893089B9DE7196841F4806166
:101B8800DFE7196841F4806119605968090510D5C3
:101B980012F5803F09D0013A1F2A9DBF654921FAF5
:101BA80002F2D2430122D20703D45A6842F4805287
:101BB8005A60002209925A6909929B690993099B04
:101BC80079E700220A925A690A929B690A930A9B4A
:101BD800C2E610F0040F586800F0AE8005053FF526
:101BE800BBAE11F0800F01F0040169D0500567D534
:101BF800002965D194F83D20258D94F83E10E06ABF
:101C0800D2B2C9B2C5B9212A18D1082878D020285B
:101C180076D010F5803F73D05A6822F4E0625A609B
:101C280011232363002384F83E30202384F83D30B9
:101C38002046FFF78DFD8FE6212A05D040297FF445
:101C48008BAE222A7FF488AE628D92B21AB95A6896
:101C580022F48062BAE694F83E20402A26D1226D0A
:101C680062B9E26C012AA26C04D1D2B21A61236D66
:101C7800023321E7C2F307221A61F1E6226D012A35
:101C880002D1A26CD2B2F7E7226D022A7FF464AEC9
:101C980094F83D20222A04D11A6842F480721A600E
:101CA8005AE694F83D20212A7FF456AE626A12F86B
:101CB800011B19616262638D013B9BB263854BE630
:101CC80000293FF449AE92057FF546AEE16A94F8E3
:101CD8003D20212A7FF440AE628D92B2002AE5D1E0
:101CE80008290DD020290BD011F5803F08D059685C
:101CF80021F4E06159601123236384F83E2094E7BE
:101D08005A6822F4E0625A601A6842F400721A6053
:101D180000232022236384F83D2094F83E2084F891
:101D28003E30402A204684D1FFF718FD14E600BF54
:101D3800140001008180008005053FF50DAE11F00B
:101D4800400F01F0040148D0500546D5002944D180
:101D580094F83D20222A7FF4FFAD628D92B2032AC7
:101D680014D9626A1B691370636A01336362638DF5
:101D7800013B9BB26385638D9BB2032B7FF4ECAD73
:101D88002268536823F480635360E5E5E06A02281B
:101D98003FF4E2AD012A3FF6DFAD1A6822F4806213
:101DA8001A605A6822F4E0625A60626A1B6913700A
:101DB800636A01336362638D013B9BB263852023B1
:101DC80084F83D3094F83E3084F83E10402B68D1BA
:101DD80021632046FFF7C3FCBEE500293FF4BCADF4
:101DE80092057FF5B9ADE26A618D89B20429616A0D
:101DF80009D15A6822F480625A601B690B70636AC1
:101E08000133636257E7608D80B203280CD15868AC
:101E1800042A20F480605860EFD0022AEDD01A68B6
:101E280022F480621A60E8E7608D80B20228E4D16B
:101E3800012A01D0102A28D11A6822F480621A6077
:101E48001B690B70626A531C6362638D013B9BB212
:101E5800638523681B695370636A22680133636270
:101E6800638D013B9BB26385536823F440735360D1
:101E7800202384F83D3094F83E30402B4FF0000387
:101E880084F83E300DD12363A3E7042A01D0022A47
:101E980003D11A6842F48062D1E71A6842F40072EA
:101EA800CDE7122323632046FFF753FC54E5216C4A
:101EB80021B35969002511F0020F29D012F4007FCF
:101EC80026D0226C02B19D6994F83D2002F02802C8
:101ED800282A16D15A6822F480625A6085F00401D3
:101EE8002B064FF00003C1F3800154BFA289228B57
:101EF80084F83C302046FFF72FFC2DE59D69596991
:101F0800D9E76FF002025A61002384F83C3023E5D8
:101F1800CD0640F1AF80950540F1AC8094F83D5076
:101F28005A6822F4E0625A6000220B925A690B92B6
:101F38001A6842F001021A600B9A1A6822F4806249
:101F48001A605A681105EDB220D505F0F702222A69
:101F580048D1A06B0268526892B26285628D92B2D3
:101F68001AB1226C42F0040222645A6822F4006218
:101F78005A60FFF753FA012808D0A06B784B036525
:101F8800FFF73AFA10B1A06B036D9847638D9BB2C7
:101F980013B323685A69520709D5626A1B6913701B
:101FA800636A01336362638D013B9BB26385236877
:101FB8005A69500609D5626A1B691370636A01334E
:101FC8006362638D013B9BB26385638D9BB21BB1DA
:101FD800236C43F004032364236C03B32046FFF708
:101FE800FDFBB9E4606B0268526892B26285628D4B
:101FF80092B21AB1226C42F0040222645A6822F4A6
:1020080000625A60FFF70AFA0128BFD0606B544B90
:102018000365FFF7F1F90028B8D0606BB4E72A2D03
:1020280006D12363282384F83D302046FFF793FB2D
:1020380094F83D30282B0CD14A4BE3622022002330
:102048002363204684F83D2084F83E30FFF785FB63
:1020580082E4236B222B02D0222D7FF47DAC002357
:102068002022236384F83D2084F83E302046FFF781
:1020780072FB71E400F0F700212801F0040535D166
:10208800090627D5510525D525BB94F83D10628D45
:1020980092B2C9B2002A3FF45FAC626A12F8015BDF
:1020A8001D616262628D013A92B26285628D92B25E
:1020B800002A7FF451AC29297FF44EAC5A6822F4E7
:1020C80080625A602823206384F83D302046FFF759
:1020D80041FB41E4002D3FF43FAC95057FF53CAC56
:1020E800628D92B2002A7FF4E1AD35E4480627D527
:1020F800510525D525BB94F83D20618D89B2D2B212
:1021080000293FF429AC616A1B690B70636A0133CB
:102118006362638D013B9BB26385638D9BB2002B29
:102128007FF41AAC2A2A7FF417AC2268536823F488
:102138008063536022232363282384F83D3095E786
:10214800002D3FF409AC92057FF506AC628D92B282
:10215800002A3FF401AC626A1B6913704FE600BFA6
:102168006D1700080000FFFFF8B503685F695E6837
:1021780017F48075044606D016F480751EBF6FF4F8
:1021880080725A610125B90506D5F20542BF6FF480
:10219800007245F002055A61780537D5F10535D545
:1021A80094F83EE0618D94F83D20206BBEF1200F3D
:1021B80089B2D2B25AD1002958D102F0F7012129A7
:1021C80003D0282A52D1212850D194F83D20E16A21
:1021D8000829D2B201D020292AD1282A28D12C4A6C
:1021E800E2625A6822F4E0625A606FF480625A61CF
:1021F8001A6822F480621A60002320222363204692
:1022080084F83D2084F83E30FFF7A7FA3A053CD51C
:10221800F3053AD523686FF4006245F008055A6162
:10222800236C1D4325642046BDE8F840FFF7D6BA65
:10223800212A17D11649E1622263202284F83D2021
:10224800002284F83E205A6822F4E0625A606FF453
:1022580080625A611A6822F480621A602046FFF789
:1022680079FAD3E76FF480625A61CFE76FF480623E
:102278005A6194F83E20102A04BF1A6842F400728A
:1022880045F0040508BF1A60C0E7002DC8D1F8BDA5
:102298000000FFFF2DE9F341044618B9012002B000
:1022A800BDE8F0810368DD0710D42368980758D487
:1022B80023681A0700F19A8023685B0700F1B88049
:1022C800A269002A40F019810020E8E7A64B9A6825
:1022D80002F00C02042A07D09A6802F00C02082ABD
:1022E8000AD15B68590207D59F4B1B689A03DCD556
:1022F8006368002BD9D1D1E763689B4DB3F5803F64
:1023080011D12B6843F480332B6002F05DF8964DB1
:1023180006462B689B03C8D402F056F8801B642835
:10232800F7D90320BBE7B3F5A02F04D12B6843F4FA
:1023380080232B60E5E72A6822F480322A602A6825
:1023480022F480222A60002BDFD102F03DF80646F5
:102358002B689F03A9D502F037F8801B6428F7D9AA
:10236800DFE7814B9A6812F00C0F07D09A6802F0E9
:102378000C02082A11D15B685E020ED47A4B1A68E7
:10238800950702D5E268012A88D11A68216922F0E6
:10239800F80242EAC1021A608AE7E268734BB2B1F6
:1023A80001221A6002F010F86F4D06462B68980754
:1023B80007D52B68226923F0F80343EAC2032B6090
:1023C80076E702F001F8801B0228EFD9A9E71A6026
:1023D80001F0FAFF644D06462B6899077FF568AF50
:1023E80001F0F2FF801B0228F6D99AE76269604B78
:1023F8007AB101221A6001F0E7FF5B4D06466B6F68
:102408009F073FF559AF01F0DFFF801B0228F6D97F
:1024180087E71A6001F0D8FF534D06466B6F98079F
:102428007FF54AAF01F0D0FF801B0228F6D978E784
:102438004D4B1A6C12F0805228D101921A6C42F05E
:1024480080521A641B6C03F080530193019B012690
:10245800484D2B68D9051BD5A368434D012B27D1BF
:102468002B6F43F001032B6701F0AEFF3E4D07468B
:1024780041F288382B6F9B0739D5002E3FF420AFE7
:10248800394A136C23F08053136419E70026DFE7F9
:102498002B6843F480732B6001F096FF07462B6886
:1024A800DA05D9D401F090FFC01B0228F7D938E724
:1024B800052B04D12B6F43F004032B67D0E72A6F59
:1024C80022F001022A672A6F22F004022A67002BF1
:1024D800CAD101F079FF41F2883807462B6F980777
:1024E800CBD501F071FFC01B4045F7D919E701F0C2
:1024F8006BFFC01B4045BDD913E71B4DAB6803F00C
:102508000C03082B3FF4CAAE1B4E0023022A33608B
:1025180034D101F059FF07462B6899011ED4226A6D
:10252800E3691343626A43EA8213E26A43EA026395
:10253800A26A0D4C5208013A43EA02436B60012338
:10254800336001F041FF054623689A013FF5BCAEB0
:1025580001F03AFF401B0228F6D9E2E601F034FF09
:10256800C01B0228D8D9DCE60038024000004742E8
:10257800800E4742007000406000474201F024FF8F
:1025880004462B689B017FF59FAE01F01DFF001BE1
:102598000228F6D9C5E600BF134908B58B6803F0D1
:1025A8000C03042B03D0082B03D0104808BD104897
:1025B80008BD4A684B68496813F4800314BF0C4887
:1025C8000A48C1F3881118BF002302F03F02A1FB9B
:1025D8000001FEF78DFA044B5B68C3F30143013336
:1025E8005B00B0FBF3F008BD003802400024F400A3
:1025F80040787D012DE9F0410D46044610B90120CF
:10260800BDE8F081444B1A6802F00F028A4228D3D1
:1026180021688F072DD4C80740D43F4B1A6802F0B1
:102628000F02954266D3226851076CD4130707D569
:102638003A4A2169936823F4604343EAC1039360EB
:10264800FFF7AAFF354B364A9B68C3F30313D35CE5
:10265800D840344B18600020FEF7D2FB0020BDE8BC
:10266800F081CAB21A701B6803F00F039942C6D1F1
:10267800CEE72A4B11F0040F1EBF9A6842F4E052CD
:102688009A600E0742BF9A6842F460429A609A685C
:10269800A06822F0F00202439A60BCE762681F4B10
:1026A800012A1DD11B6813F4003FA8D01B4EB36844
:1026B80023F003031343B36001F086FE41F2883828
:1026C8000746B368626803F00C03B3EB820FA4D02B
:1026D80001F07AFEC01B4045F3D90320BDE8F08124
:1026E800911E01291B6802D813F0007FDDE713F063
:1026F800020FDAE7EAB21A701B6803F00F039D4273
:102708007FF47DAF8FE70549E0688B6823F4E053D9
:1027180003438B608AE700BF003C02400038024058
:10272800056C000808000020014B1868704700BFBE
:1027380008000020044B054A9B68C3F38223D35C3E
:10274800034A1068D840704700380240156C0008EA
:1027580008000020044B054A9B68C3F34233D35C4E
:10276800034A1068D840704700380240156C0008CA
:1027780008000020036A23F001030362036A70B5AE
:10278800446882690D6822F073022A438D6823F039
:1027980002032B430E4DA84202D00E4EB04210D178
:1027A800CE6823F008033343A84223F0040302D081
:1027B800084DA84205D14D698E6924F4407435430B
:1027C8002C43446082614A684263036270BD00BF63
:1027D8000000014000040140036A23F4807303628F
:1027E800036A70B54468C2690D6822F073022A430F
:1027F8008D6823F4007343EA0523114DA84203D0E2
:1028080005F58065A84214D1CD6823F4006343EA36
:1028180005230B4DA84223F4806303D005F580659A
:10282800A84206D14D698E6924F44054354344EAE0
:1028380005144460C2614A68C263036270BD00BF88
:1028480000000140036A23F480530362036A30B531
:102858004468C2690D6822F4E64242EA05228D689E
:1028680023F4005343EA0533084DA84203D005F585
:102878008065A84204D14D6924F4804444EA851453
:102888004460C2614A680264036230BD00000140CE
:1028980070477047704770477047704703681A69F8
:1028A800910710B504460ED5DA6892070BD56FF07C
:1028B80002021A619B6901229B07027777D0FFF712
:1028C800EAFF0023237723681A69500710D5DA68CE
:1028D80051070DD56FF004021A619B69022213F4A7
:1028E800407F2277204668D0FFF7D5FF0023237763
:1028F80023681A6912070FD5DA6810070CD56FF02C
:1029080008021A61DB6904229907227720465AD007
:10291800FFF7C1FF0023237723681A69D20610D571
:10292800DA68D0060DD56FF010021A61DB6908224B
:1029380013F4407F227720464BD0FFF7ACFF0023EB
:10294800237723681A69D10708D5DA68D20705D52D
:102958006FF001021A612046FFF79BFF23681A698E
:10296800100608D5DA68110605D56FF080021A61DD
:10297800204600F0B8FA23681A69520608D5DA68C2
:10298800500605D56FF040021A612046FFF785FF13
:1029980023681A69910622D5DA6892061FD56FF066
:1029A800200220461A61BDE8104000F09BBAFFF7EC
:1029B80071FF2046FFF770FF83E7FFF76BFF2046A4
:1029C800FFF76AFF92E7FFF765FF2046FFF764FF0E
:1029D800A0E7FFF75FFF2046FFF75EFFAFE710BDF8
:1029E800304A0368904212D0B0F1804F0FD0A2F560
:1029F8007C4290420BD002F58062904207D002F5EB
:102A08008062904203D002F57842904219D14A6818
:102A180023F070031343234A904229D0B0F1804F2A
:102A280026D0A2F57C42904222D002F580629042E4
:102A38001ED002F5806290421AD002F57842904288
:102A480016D0194A904213D002F5806290420FD0F6
:102A580002F5806290420BD0A2F59832904207D0DE
:102A680002F58062904203D002F58062904203D161
:102A7800CA6823F4407313434A6923F0800313435D
:102A880003608B68C3620B688362064B984203D06D
:102A980003F58063984201D10B6903630123436105
:102AA800704700BF000001400040014010B50446D7
:102AB800A0B190F83D3003F0FF021BB980F83C202C
:102AC80001F0BCFA022384F83D302068211DFFF78D
:102AD80087FF012384F83D30002010BD012010BD80
:102AE80010B50446A0B190F83D3003F0FF021BB9C1
:102AF80080F83C20FFF7CCFE022384F83D302068A4
:102B0800211DFFF76DFF012384F83D30002010BD23
:102B1800012010BD036A23F010030362036A70B535
:102B2800446882690D6822F4E64242EA05228D680B
:102B380023F0200343EA0513104DA84203D005F5FE
:102B48008065A84214D1CD6823F0800343EA0513B9
:102B58000A4DA84223F0400303D005F58065A8423A
:102B680006D14D698E6924F44064354344EA8504EE
:102B7800446082614A688263036270BD000001405C
:102B880038B590F83C30012B04464FF0020025D0B0
:102B9800012384F83C3084F83D000C2A18D8DFE87B
:102BA80002F0071717171E1717172F1717174000C8
:102BB8002068FFF7DFFD236809699A6942F0080277
:102BC8009A619A6922F004029A619A690A439A61A1
:102BD8000123002084F83D3084F83C0038BD20688B
:102BE800FFF798FF236809699A6942F400629A61BD
:102BF8009A6922F480629A619A6942EA0122E6E7B8
:102C08002068FFF7E9FD23680969DA6942F00802DC
:102C1800DA61DA6922F00402DA61DA690A43DA6110
:102C2800D6E72068FFF70EFE23680969DA6942F4DF
:102C38000062DA61DA6922F48062DA61DA6942EA0A
:102C48000122ECE710B584680A4324F47F4442EA81
:102C580003232343836010BD90F83C30012B70B5EB
:102C680004464FF0020019D084F83D002068012383
:102C780084F83C30836823F47F4323F07703836030
:102C88000B68402B65D015D8102B0CD007D853B142
:102C98000123002084F83D3084F83C0070BD202BCF
:102CA80001D0302BF4D1826843F0070322F0700280
:102CB80013431AE0602B34D019D8502BE8D14A6856
:102CC800CE68016A056A25F001050562836921F06D
:102CD8000A0123F0F00343EA06130A438361026200
:102CE800836823F0700343F057038360D0E7702BA9
:102CF8000CD0B3F5005FCBD1CB684A688968FFF781
:102D0800A1FF2268936843F4804308E0CB684A68CF
:102D18008968FFF797FF2268936843F07703936009
:102D2800B6E74D68CE68016A21F010010162826938
:102D3800036A22F4704223F0A00343EA051342EA2F
:102D4800063282610362836823F0700343F06703ED
:102D5800CBE74A68CE68016A056A25F00105056275
:102D6800836921F00A0123F0F00343EA06130A43BA
:102D780083610262836823F0700343F04703B4E77A
:102D8800036A01F01F0110B501248C4023EA0403F3
:102D98000362036A8A401A43026210BD10B50446F2
:102DA80001220068FFF7ECFF23680B4A93420ED01C
:102DB80002F5806293420AD09A6802F00702062A56
:102DC80003D01A6842F001021A60002010BD5A6C44
:102DD80042F400425A64EFE70000014010B504468F
:102DE8000C290DD8DFE801F0070C0C0C230C0C0C97
:102DF800280C0C0C2D000268D36843F00203D36042
:102E080001222068FFF7BCFF2368134A93421DD0B4
:102E180002F58062934219D09A6802F00702062AE6
:102E280003D01A6842F001021A60002010BD02683F
:102E3800D36843F00403E2E70268D36843F0080369
:102E4800DDE70268D36843F01003D8E75A6C42F410
:102E580000425A64E0E700BF0000014090F83C30AF
:102E6800012B30B54FF0020314D0046880F83D30D0
:102E78006268A3680D68496822F0700223F0800335
:102E88000B432A436260A360012380F83D3000238E
:102E980080F83C30184630BD90F83C30012B1FD0EC
:102EA800CB688A6823F4407313434A6823F4806329
:102EB80013430A6823F4006313430A6923F4805315
:102EC80013434A6923F400531343CA6923F4804324
:102ED800134302685364002380F83C301846704757
:102EE80002207047704770470368DA6822F49072CE
:102EF800DA605A6922F001025A61202380F83A30D8
:102F0800704700002DE9F0470668C2683369C16957
:102F180023F4405313433361044683680069F2681D
:102F28000343606922F41642034322F00C020B4368
:102F38001343F3607369A26923F440731343B1F533
:102F4800004F73617A4B7CD19E4203D003F58063B6
:102F58009E4244D1FFF7FEFB192505FB00F360688C
:102F68004FF064094000B3FBF0F3B3FBF9F34FEA09
:102F78000318FFF7EFFB636868435B00B0FBF3F7E8
:102F8800FFF7E8FB636868435B00B0FBF3F3B3FB50
:102F9800F9F309FB1373DB003233B3FBF9F35B007E
:102FA80003F4F877FFF7D6FB626868435200B0FB7A
:102FB800F2FAFFF7CFFB636868435B00B0FBF3F3FB
:102FC800B3FBF9F309FB13A3DB003233B3FBF9F3CB
:102FD80003F0070343443B44B360BDE8F087FFF7C1
:102FE800A9FB192505FB00F360684FF06409400050
:102FF800B3FBF0F3B3FBF9F34FEA0318FFF79AFBBF
:10300800636868435B00B0FBF3F7FFF793FB636803
:1030180068435B00B0FBF3F3B3FBF9F309FB1373ED
:10302800DB003233B3FBF9F35B0003F4F877FFF707
:1030380081FB626868435200B0FBF2FAFFF77AFB43
:10304800B9E79E4202D03B4B9E4240D1FFF782FB3C
:10305800676819254FF0640905FB00F3BF00B3FB4F
:10306800F7F3B3FBF9F31F01FFF774FB63686843D9
:103078009B00B0FBF3F8FFF76DFB636868439B00A8
:10308800B0FBF3F3B3FBF9F309FB13831B013233F2
:10309800B3FBF9F303F0F008FFF75CFB62686843E1
:1030A8009200B0FBF2FAFFF755FB636868439B0098
:1030B800B0FBF3F3B3FBF9F309FB13A31B013233A2
:1030C800B3FBF9F303F00F0343EA080383E7FFF7C1
:1030D80031FB676819254FF0640905FB00F3BF0051
:1030E800B3FBF7F3B3FBF9F31F01FFF723FB6368A7
:1030F80068439B00B0FBF3F8FFF71CFB6368684369
:103108009B00B0FBF3F3B3FBF9F309FB13831B013B
:103118003233B3FBF9F303F0F008FFF70BFB6268F7
:1031280068439200B0FBF2FAFFF704FBBDE700BF6B
:103138000010014000140140F8B504460E46174639
:103148001D4621680B6836EA030301D10020F8BD4B
:103158006B1CF7D095B92368DA6822F4D072DA606C
:103168005A6922F001025A61202384F8393084F820
:103178003A30002384F838300320F8BD01F024F9F0
:10318800C01B8542DDD2E6E710B5044640B390F88F
:10319800393003F0FF021BB980F8382001F072FAC9
:1031A8002268242384F83930D36823F40053D36089
:1031B8002046FFF7A7FE23681A6922F490421A6195
:1031C8005A6922F02A025A61DA6842F40052DA6037
:1031D80000202023E06384F8393084F83A3010BDA9
:1031E800012010BD2DE9F0411F4690F83930202B01
:1031F80004460D4690464FD100294AD0002A48D0AF
:1032080090F83830012B47D0012380F8383000235C
:10321800C363212380F8393001F0D6F8A4F824805C
:103228000646A4F82680E38C9BB26BB93B4632462F
:1032380040212046FFF780FFB0B9202384F83930B9
:1032480084F83800BDE8F081E38C013B9BB2E3844D
:10325800A368B3F5805F32463B464FF080012046B5
:103268000ED1FFF769FF10B10320BDE8F0812B886C
:103278002268C3F308035360236943B90235D2E7D0
:10328800FFF75AFF0028EFD123682A785A600135E2
:10329800C9E70120BDE8F0810220BDE8F08190F87F
:1032A8003A30202B20D1E9B1E2B190F83830012B27
:1032B8001AD0C285828500232222C36380F83A206F
:1032C80002688162D16880F8383041F48071D16039
:1032D800516941F001015161D16841F02001D1608B
:1032E80018467047012070470220704770477047A2
:1032F80090F83A30222B10B536D1836801690268FC
:10330800B3F5805F836A23D15268E9B9C2F3080232
:1033180023F8022B8362C48D013CA4B2C4858CB906
:103328000368DA6822F02002DA60DA6822F4807230
:10333800DA605A6922F001025A61202380F83A3093
:10334800FFF7D5FF002010BDD2B223F8012BE1E72B
:1033580021B9591C526881621A70DCE75268591CFD
:10336800816202F07F02F7E7022010BD704700007B
:1033780003681A68D96870B5160704465D6907D1ED
:1033880096065AD58D0658D5BDE87040FFF7B0BFF0
:1033980015F0010502D111F4907F4ED0D30705D561
:1033A800CE0542BFE36B43F00103E363500704D546
:1033B8001DB1E36B43F00203E363930704D51DB12A
:1033C800E36B43F00403E363160704D51DB1E36B15
:1033D80043F00803E363E36B002B66D0950604D53E
:1033E800880602D52046FFF783FF23685D69E26BF4
:1033F8001107204602D415F040051AD0FFF774FDD6
:1034080023685A69520610D55A69606B22F0400247
:103418005A6150B1254B0365FDF7EEFF002844D0F3
:10342800606BBDE87040036D18472046FFF79EFFAC
:1034380070BDFFF79BFFE56370BD160627D50D0627
:1034480025D594F83920212A2FD1A268B2F5805FBA
:10345800226A17D11188C1F308015960216979B925
:1034680002322262E28C013A92B2E284EAB9DA6864
:1034780022F08002DA60DA6842F04002DA6070BD59
:103488000132EEE7511C216212785A60EAE75006D1
:103498000BD54A0609D5DA6822F04002DA60202303
:1034A80084F839302046FFF721FF70BDB934000891
:1034B80008B5806B0023C385C384FFF757FF08BD99
:1034C8001FB510220021684601F0B0F919481A4BBF
:1034D8001A4A036001240023826202224360836047
:1034E8000461037680F820404462C362C360C2610D
:1034F80080F830304461FDF7C1FC08B100F094FC5D
:103508000E238DE81800694603230A480293FDF745
:1035180071FE08B100F088FC0F22022369460548B5
:103528008DE80C00FDF766FE08B100F07DFC04B0E4
:1035380010BD00BF5C020020002201400100000F06
:1035480010B5044688B01422002103A801F06EF9D2
:103558002268164B9A4226D103F58B330024019436
:103568005A6C134842F480625A645A6C02F48062BE
:103578000192019A02941A6B42F020021A631B6BA3
:1035880003F020030293029B3023039303A9032330
:103598000493FDF747FF122022462146FDF7D4FE8B
:1035A8001220FDF705FF08B010BD00BF0022014042
:1035B800001402402DE9F0418CB01422002107A824
:1035C80001F034F900244B4B00941A6BDFF8348176
:1035D800494E4A4F42F010021A631A6B02F0100269
:1035E8000092009A01941A6B42F004021A631A6B53
:1035F80002F004020192019A02941A6B42F020022E
:103608001A631A6B02F020020292029A03941A6B50
:1036180042F080021A631A6B02F080020392039A46
:1036280004941A6B42F008021A631A6B02F008023B
:103638000492049A05941A6B42F001021A631A6BF9
:1036480002F001020592059A06941A6B42F00202F2
:103658001A631B6B03F0020306932246404620219F
:10366800069BFDF7BFFF224630464FF4E071FDF799
:10367800B9FF224638464FF4C061FDF7B3FF012574
:10368800202307A940460793089509940A94FDF753
:10369800C9FE4FF4E07307A9304607934FF4C0689A
:1036A800089509940A94FDF7BDFE154B089307A9E0
:1036B8003046CDF81C800995FDF7B4FE07A93846B9
:1036C800CDF81C80089509940A94FDF7ABFE2246B4
:1036D80021461720FDF738FE1720FDF769FE224620
:1036E80021462820FDF730FE2820FDF761FE0CB0AA
:1036F800BDE8F0810038024000140240000C02408E
:10370800000011100010024037B5094C019065689F
:10371800FFF70AF8019B074AB0FBF2F04343019315
:103728006368019A5B1B9342FAD303B030BD00BFB4
:10373800001000E040420F0038B5038AC268044612
:103748001B0493610220FFF7DFFFE368228A9A6176
:103758000A20FFF7D9FF238AE26860681B04936197
:1037680022890F4B0169114210D000256368228914
:103778001B691A420FD107EE905AB8EE670ADFEDBF
:10378800097A20EE270A84ED000A38BD013BE9D109
:10379800BFEE000A38BD01200135FFF7B5FFE5E7A8
:1037A80041420F007AC18C3C2DE9F34104460E4694
:1037B8001546BDF820801F4600F096FD66602581FD
:1037C800022601252A4641463846E760A4F81080BB
:1037D80001950096002300F06FFE002321896068A0
:1037E80001951A46009600F067FE238AE2681B04DA
:1037F80020469361FFF7A0FFB5EEC00AF1EE10FA7C
:10380800ACBF2846002002B0BDE8F08108B50C48DE
:103818000C4BDFF834E04FF4804280E80840002386
:103828008360C360026143618361C3610362FDF722
:10383800EBFE18B1BDE8084000F0F6BA08BD00BFBD
:10384800AC02002000540040801A060030B504463F
:1038580089B01422002103A800F0E8FF22681C4B5D
:103868009A4233D100251B4C0195236B1A4843F02B
:1038780002032363236B03F002030193019BC0231C
:10388800039312230493012305930323069303A9A7
:1038980004230793FDF7C6FD0295236C43F4001338
:1038A8002364236C03F400132A46294602931F203D
:1038B800029BFDF749FD1F20FDF77AFD20202A46CF
:1038C8002946FDF741FD2020FDF772FD09B030BD06
:1038D8000054004000380240000402401FB50A2886
:1038E800019009D104A90D2341F8043D01224FF6A6
:1038F800FF730748FFF776FC4FF6FF73012201A913
:103908000348FFF76FFC019805B05DF804FB00BFA2
:10391800201B002070B5384C23782DED028B93B90D
:103928003648FDF7CDFB364B188023783348BDEC7D
:10393800028B0133DBB2022B08BF00232370BDE8E2
:103948007040FDF741BB012BEFD12C482C4DFDF702
:10395800B7FB2C4B68801B68013B012BE5D92A4E2D
:1039680096ED007AF7EE007AB4EEE77AF1EE10FA07
:10397800B0EE678A05DB00224FF400712348FDF79B
:1039880031FE2B880322B3FBF2F3214A03F62823E6
:1039980013646B881F4D40F26B72934216D8012254
:1039A8004FF480611948FDF71DFED6ED007AF4EE5C
:1039B800C87A4FF41673F1EE10FAAB63B5D501224D
:1039C8004FF400711148FDF70DFEAEE740F6CA024C
:1039D80093420FD900224FF480610C48FDF702FE94
:1039E80000224FF400710948FDF7FCFD4FF41673EF
:1039F800AB639AE70023FBE7F80100205C02002094
:103A080028030020000300200C030020000C0240C3
:103A18000008004000000140F8B52DED028B044677
:103A280000F0D2FC114E124F0546B7EE008A00F0A6
:103A3800CBFC401BA04202D3BDEC028BF8BD0B4867
:103A4800FFF77AFED6ED007AF4EEC87AF1EE10FAB6
:103A5800EDD53A68012AEAD1BDEC028B4FF400712A
:103A68000448BDE8F840FDF7BDBD00BF0C030020C9
:103A780024030020000C024070B594B030220021CD
:103A880008A800F0D3FE0021142203A800F0CEFEFF
:103A980000241C4B01941A6C42F080521A641B6C6F
:103AA80003F080530193019B174B02941A6842F468
:103AB80080421A601B6803F480430293029B4FF410
:103AC800803309934FF480030F9319231093C02375
:103AD80002250126119308A80423139308960E952E
:103AE8001295FEF7D7FB0F230393802305933146E6
:103AF8004FF4805303A8049506930794FEF77AFDC4
:103B080014B070BD0038024000700040B34C83B55B
:103B18000323002584E82800FDF796F9FFF7ACFF9A
:103B2800FFF748FDFFF7CCFCFFF770FE00F01CFB29
:103B380000F086FB00F06EFD00F088FD0421A84827
:103B4800FFF72CF90421A648FFF748F90C21A548EE
:103B5800FFF724F90C21A348FFF740F92A464FF450
:103B68000071A148FDF73EFD012220219F48FDF785
:103B780039FD64229E499F48FFF791FB9E499F4863
:103B88006422FFF78CFB9E4B9E4840F6B2421A64B3
:103B9800FDF71AFA9C4801F0A5FA4FF48043009308
:103BA80003F1804303F5E8334FF400421946974880
:103BB800FFF7FAFD012802D0954801F093FA9548DD
:103BC800DFF8488201F08EFA4FF6FF73042292491B
:103BD8008A48FFF707FBB7EE008AF0EE488A00F044
:103BE800C1FC8A48FFF7A8FDD8ED007AF4EEC87A40
:103BF800F1EE10FA05DB00224FF400717A48FDF768
:103C0800F1FC2568012D66D100F0ACFCA3687C4A64
:103C18000F2B40F6B24133DD4FF6F17013FB001362
:103C280013642A4640217D48FDF7DCFC00F09AFC2D
:103C38006368A3F15B023A2A30D801224FF480610D
:103C48006948FDF7CFFC00224FF400716648FDF784
:103C5800C9FCD8ED007A724BF4EEE87A4FF4C872DA
:103C6800F1EE10FA9A6305D501224FF400715E480F
:103C7800FDF7B8FC012269488021FDF7B3FCAEE7E7
:103C880013F10F0F06DA4FF6F17013FB00131364EC
:103C98000022C7E711642A468021C4E795333A2BEE
:103CA8004FF0000210D84FF480614F48FDF79AFC9E
:103CB80000224FF400714C48FDF794FC584B4FF428
:103CC800C8729A630022D6E7554B47489A634FF467
:103CD80000710122D1E7022D81D16668504F514B06
:103CE8000025012EBD631E6017D1454B3E4840F6A6
:103CF800B2421A644FF400712A46FDF773FC3A4841
:103D080032464FF48061FDF76DFC4FF4C873BB6316
:103D180040F6B830FFF780FE18E0022E1FD1384B6E
:103D2800314840F6B2421A644FF400712A46FDF752
:103D380059FC2D482A464FF48061FDF753FC4FF497
:103D4800FA73BB6340F6FC0000F026FB01224FF437
:103D580000712548FDF746FC052363603FE7032E05
:103D680028D1274E41F2220333642A464FF40071CA
:103D78001D48FDF737FC01224FF480611A48FDF712
:103D880031FC40F22623BB6340F69800FFF744FE5F
:103D980001224FF400711448FDF724FC40F6B243A9
:103DA800114833642A464FF40071FDF71BFC4FF4A9
:103DB8007A70AFE7042E03D1114E40F64213D3E7D1
:103DC800052E7FF40CAFBD6301224FF40071064845
:103DD800FDF708FC0323236001E700BF0003002070
:103DE8006C0300202C030020000C0240001002404D
:103DF800BC1A0020201B0020581A0020601B00203D
:103E0800000800405C020020E86B00080C0300205A
:103E1800EE6B0008F96B0008006C00080014024003
:103E280000000140240300207047000007B5104B34
:103E380000220092596C41F480415964596C01F494
:103E48008041009100990192196C41F080511964E8
:103E58001B6C03F08053019311460520019BFDF76D
:103E680073FA0520FDF7A4FA03B05DF804FB00BF60
:103E7800003802407047FEE7FEE7FEE7FEE77047BE
:103E88007047704700F050BA704700000148FDF7CE
:103E98001CB900BF5C02002008B54FF40070FDF7A4
:103EA800A7FB024B05225A6008BD00BF0003002093
:103EB8000148FEF7F3BC00BF6C030020FFF7F8BF12
:103EC800FFF7F6BFFFF7F4BF0148FEF7E7BC00BFF6
:103ED8002C0300200148FDF723BD00BFAC020020E1
:103EE8000148FEF741B900BFAC02002010B50A4CEA
:103EF8002046FFF73DFA23685868C0B200F000FB7F
:103F0800642206492046FFF7CAF918B1BDE81040F7
:103F1800FFF78ABF10BD00BF201B0020BC1A00207D
:103F280008B54FF48060FDF763FB024B03221A606B
:103F380008BD00BF0003002010B50A4C2046FFF75B
:103F480017FA23685868C0B200F0F2FA64220649EA
:103F58002046FFF7A4F918B1BDE81040FFF764BF89
:103F680010BD00BF601B0020581A002070B50E4617
:103F780015460C46A31B9D4201DC284670BDAFF3D5
:103F8800008004F8010BF5E770B50E4615460C469F
:103F9800A31B9D4201DC284670BD14F8010BFFF7F6
:103FA8009DFCF5E708B50A4B1968024609B90949A5
:103FB80019601868694602448A4206D900F004FC70
:103FC8000C2303604FF0FF3008BD1A6008BD00BF26
:103FD800FC010020A41B00204FF0FF3070474FF475
:103FE80000534B6000207047012070470020704745
:103FF8000F49D1F8883043F47003C1F888300D4B6D
:104008001A68002042F001021A6098601A6822F0CB
:10401800847222F480321A60074A5A601A6822F4BD
:1040280080221A60D8604FF000638B60704700BF31
:1040380000ED00E000380240103000240368234AF5
:10404800934213B52DD10024214B00945A6C42F0B1
:1040580001025A645B6C03F0010322462146009377
:104068001820009BFDF770F91820FDF7A1F92246EA
:1040780021461920FDF768F91920FDF799F922461C
:1040880021461A20FDF760F91A20FDF791F91B2047
:1040980022462146FDF758F91B20FDF789F902B0A1
:1040A80010BD0C4A9342FAD10022094B0192196CB7
:1040B80041F0040119641B6C03F0040301931E20F2
:1040C8001146019BFDF740F91E20E6E7000001407C
:1040D800003802400008004010B5044688B0142299
:1040E800002103A800F0A2FB23681A4A934218D1C2
:1040F80000230193184B19481A6B42F010021A63F7
:104108001B6B03F010030193019B4FF400630393AF
:10411800022304930123079303A9FDF783F908B049
:1041280010BD0F4A9342FAD1002302930A4B0D485F
:104138001A6B42F008021A631B6B03F00803029320
:10414800029B4FF40043039302230493079303A9AC
:10415800E3E700BF000001400038024000100240C1
:1041680000080040000C024010B596B01022002153
:1041780003A800F05BFB00241C2221460DEB020083
:104188000194029400F052FB202221460EA800F070
:104198004DFB2948294A8460302380E80C004FF4FD
:1041A8007A73C3608023046144618361FEF77EFCF7
:1041B80008B1FFF739FE4FF4805303A91E48039353
:1041C800FEF74AFD08B1FFF72FFE1B48FEF788FCF3
:1041D80008B1FFF729FE002401A9174801940294A9
:1041E800FEF73CFE08B1FFF71FFE6023042207A973
:1041F80011480793089409940A940B940C940D940D
:10420800FEF7BEFC08B1FFF70FFE00234FF4005283
:104218000EA909480E930F931093119312931392BA
:104228001593FEF739FE08B1FFF7FEFD0248FFF7C8
:1042380053FF16B010BD00BF6C0300200000014002
:1042480010B58EB01022002103A800F0EFFA002468
:104258001C220DEB020021460194029400F0E6FABC
:104268001F48204A8460182380E80C0049F6404320
:10427800C360802304618361FEF718FC08B1FFF76F
:10428800D3FD4FF4805303A915480393FEF7E4FCCC
:1042980008B1FFF7C9FD1248FEF722FC08B1FFF785
:1042A800C3FD002301A90E4801930293FEF7D6FD32
:1042B80008B1FFF7B9FD6023079340F6B2430893AE
:1042C8000C22002307A9064809930B93FEF758FC14
:1042D80008B1FFF7A9FD0248FFF7FEFE0EB010BDBA
:1042E8002C030020000800400C4BDA6822F0807292
:1042F800DA60DA6842F08072DA60094B1A6822F0F4
:1043080001021A601A6842F001021A6000225A601B
:104318005A6800BF00BF5868801A7047F0ED00E087
:10432800001000E070470000184AF8B51368013320
:104338001360174B1A6812B11A68013A1A60154EC1
:10434800002537463378ECB2A34202D8FFF7EAFFDC
:10435800F8BDA40033195868B0B103789B0713D58A
:1043680083680BB1013B836083686BB93C44C368C5
:1043780001699847626853689360137813F00101E4
:1043880004BF61F3410313700135DBE71802002015
:104398001C02002000020020EFF3058313B1084B34
:1043A80038B97047074B19681A68521A9042FBD8F7
:1043B80070471A68D20348BF00F1FF30F0E700BF2A
:1043C80010E000E018020020014B1868704700BF99
:1043D80018020020064A00F13F4000F57E00116BEC
:1043E800C0F38F230120984008431063704700BF33
:1043F800003802402DE9F04F85B000F13F459DF8A7
:104408003840029405F57E059DF83C40DFF8A4800D
:10441800039402F1FF3C01930024C5F387254FF074
:10442800030A5FFA8CFC41FA04F6F3073BD5012333
:1044380038F81560D0F80CE003FA04F949EA0606E2
:1044480028F8156004FA03F60AFA06F7029BFF43F8
:1044580003FA06FB07EA0E0E4EEA0B0EC0F80CE054
:10446800D0F800E002FA06FB0EEA070E4EEA0B0E41
:10447800BCF1010FC0F800E015D8D0F804E0019BAA
:104488002EEA090903FA04FE1FFA8EFE49EA0E090C
:10449800C0F80490D0F808E0039B07EA0E0703FA77
:1044A80006F6374387600134102CBCD105B0BDE84F
:1044B800F08F00BF200200202DE9F0470546164680
:1044C8001F469DF820809DF824900C4669B1FFF79F
:1044D80081FFCDF82490CDF820803B463246214616
:1044E8002846BDE8F047FFF785BFBDE8F0870368B9
:1044F8000133B3F57A7F08BF0023036070470000DB
:10450800034B044A196822F811001846FFF7EFBF59
:1045180044020020BC110020034B1868034B1B68A1
:10452800C31A5842584170473C02002040020020FC
:10453800034B044A196822F811001846FFF7D7BF41
:104548003C020020EC090020044808B50268044B2E
:1045580033F81220FFF7CBFF104608BD40020020B9
:10456800EC0900202DE9F047244FDFF8A480FFF77D
:10457800D3FF064608B1BDE8F08701224FF48071E9
:104588004046FDF72FF8FFF7DFFF3B685FFA80F939
:1045980073B31B4C1B4D2368B9F12C0F03F10102B7
:1045A800226005F8039028460CD1EE54164BD3F838
:1045B80000A00AF101021A6000F001F9134B26600D
:1045C80043F82A002368013BEA5C0A2A10D1002636
:1045D800EE540D4D0B48D5F800A00AF101032B60ED
:1045E80000F0EDF8094B2E6043F82A0026603E6083
:1045F800B9F15B0FBBD101233B60B6E7480200204D
:104608004C020020F0190020500200200003002076
:104618000014024008B50B480B4B4FF4E13E80E80C
:1046280008400C2200238360C360036142618361F8
:10463800C361FEF7A9FD18B1BDE80840FFF7F4BB58
:1046480008BD00BF201B00200010014008B50B4822
:104658000B4B4FF4E13E80E808400C2200238360B6
:10466800C360036142618361C361FEF78DFD18B1C8
:10467800BDE80840FFF7D8BB08BD00BF601B00209D
:104688000014014010B514228AB0044600210DEB35
:10469800020000F0CBF823682F4A93422ED12F4B0B
:1046A8002F48002401945A6C42F010025A645A6C44
:1046B80002F010020192019A02941A6B42F0010270
:1046C8001A631B6B03F001030293029B4FF4C06350
:1046D800059302230693012307930323089305A94F
:1046E80007230993FCF79EFE252022462146FCF766
:1046F8002BFE2520FCF75CFE0AB010BD194A934238
:10470800FAD1164B1848002403945A6C42F0200240
:104718005A645A6C02F020020392039A04941A6BAA
:1047280042F004021A631B6B03F004030493049B16
:10473800C0230593022306930123079303230893B9
:1047480005A908230993FCF76DFE47202246214658
:10475800FCF7FAFD4720CDE7001001400038024081
:10476800000002400014014000080240DFF834D085
:10477800002103E00C4B5B58435004310B480C4BB1
:1047880042189A42F6D30B4A02E0002342F8043B4F
:10479800094B9A42F9D3FFF72BFC00F01BF8FFF7FF
:1047A800B5F9704700000220C06E00080000002024
:1047B800DC010020DC010020A41B0020FEE70A2207
:1047C800002100F027BD0000014B1868704700BFAA
:1047D8000C00002070B50D4E0D4CA41BA410002534
:1047E800A54209D10B4E0C4C02F0ECF9A41BA41005
:1047F8000025A54205D170BD56F8253098470135EA
:10480800EEE756F8253098470135F2E7B86E00080C
:10481800B86E0008B86E0008BC6E0008024B01466E
:10482800186800F059B800BF0C0000200244034685
:10483800934200D1704703F8011BF9E738B50546E4
:10484800002945D051F8043C0C1F002BB8BFE418D0
:1048580001F01FFE1F4A1368104633B963601460E5
:104868002846BDE8384001F015BEA3420CD921689E
:104878006218934204BF1A685B68636004BF5218E9
:1048880022600460ECE713465A680AB1A242FAD9DA
:1048980019685818A0420BD1206801445818824260
:1048A8001960DDD1106852685A6001441960D7E771
:1048B80002D90C232B60D3E7206821188A4204BF51
:1048C80011685268626004BF091821605C60C7E71C
:1048D80038BD00BF5402002070B5CD1C25F003057B
:1048E80008350C2D38BF0C25002D064601DBA942E2
:1048F80003D90C233360002070BD01F0CAFD234AA0
:104908001468214691B9224C23681BB9304600F03F
:10491800F1FB20602946304600F0ECFB431C26D111
:104928000C233360304601F0B5FDE4E70B685B1BF0
:104938001AD40B2B0FD90B60CD50CC18304601F090
:10494800A9FD04F10B00231D20F00700C31A1BD09A
:104958005A42E25070BD8C420DBF63684B68636079
:10496800136018BF0C46E9E70C464968CAE7C41C3F
:1049780024F00304A04205D0211A304600F0BAFB07
:104988000130CDD02560D9E770BD00BF54020020AA
:10499800580200202DE9FF4755EC104B0D9FDDF81C
:1049A80030A0002D0E4691461946B8BF22462B4628
:1049B80027F02007BBBF05F100431D4600232D2328
:1049C800B8BF1446462F0B7004D0452F00D10136CE
:1049D800022100E0032103AB019302AB00933246AE
:1049E800534645EC104B00F077FD472F804602D127
:1049F80019F0010F26D0462F08EB060911D198F8B7
:104A08000030302B0AD10022002320462946FBF72C
:104A1800FFFF18B9C6F10106CAF80060DAF80030DD
:104A280099440022002320462946FBF7F1FF38B9B4
:104A38003022039B994505D9591C03911A70F8E750
:104A4800CDF80C90039B0E9AA3EB08034046136025
:104A580004B0BDE8F087F7B503460029B8BF49425E
:104A680003F8022BB4BF2D222B220929427020DD26
:104A78000DF1070217460A2691FBF6F506FB1511FC
:104A88003031092D02F8011C02F1FF34294609DCF6
:104A98003031023A04F8011CBA421C4604D3201AE9
:104AA80003B0F0BD2246E7E712F8011B03F8011B2B
:104AB800F2E730221C46114404F8022B5970EEE745
:104AC8002DE9F04F8DB00C46DDF8588016461F468C
:104AD800054601F04FFC036804931846FBF770FB8A
:104AE80000230A93D8F800300590073323F0070312
:104AF80003F1080294F818A0D4F800B0C8F8002010
:104B0800D3E90023C4E91223D4E9128929F0004328
:104B18000793CDF818804FF0FF32A54BDDE9060169
:104B2800FBF7A8FF002840F0FB814FF0FF32A04BB5
:104B3800DDE90601FBF780FF002840F0F181002243
:104B4800002340464946FBF76DFF10B12D2384F83A
:104B58004330984B984ABAF1470F8CBF9046984615
:104B680003232BF00402236122604FF00009009711
:104B780033460BAA2146284600F0E2F9013040F0FE
:104B880093804FF0FF300DB0BDE8F08F61684B1C8B
:104B98004BF480623FD106236360002303930AAB82
:104BA800029309AB009349EC108B0DF123032260AB
:104BB800CDF804A061682846FFF7ECFE0AF0DF0391
:104BC800472B804609D1099BD81C02DB62689342B7
:104BD80057DDAAF1020A5FFA8AFABAF1650F099954
:104BE80034D80139524604F150000991FFF733FFD8
:104BF8000A9A8318012A8146236102DC2268D107B8
:104C080001D5013323619DF82330002BAFD02D232C
:104C180084F84330ABE7BAF1670F02D0BAF1470F17
:104C2800BBD189B1002303930AAB029309AB00936C
:104C380049EC108B2260CDF804A00DF1230328461F
:104C4800FFF7A8FE8046BEE70123A5E7BAF1660F85
:104C580019D1002963680CDD216113B92268D207D4
:104C680002D501330B442361099BA3654FF000096A
:104C7800C9E713B92268D00701D50233F3E7012346
:104C8800F1E74FF0670A099B0A9A934205DB22680D
:104C98002361D107E8D50133E5E7002BD4BFC3F181
:104CA800020301231344DEE723685A0507D4236966
:104CB800424631462846B84701302BD161E7BAF160
:104CC800650F40F2E28000220023D4E91201FBF7CD
:104CD8009FFE00283CD00123384A31462846B84771
:104CE80001303FF44EAF0A9B099A9A4202DB2368CF
:104CF800D8070FD5059B049A31462846B847013096
:104D08003FF43FAF4FF0000804F11A090A9B013B3A
:104D1800984512DB23689B0709D54FF0000804F17A
:104D28001909E3680B9A9B1A9845C0F2EE80E0686F
:104D38000B9B9842B8BF184625E701234A463146DF
:104D48002846B84701303FF41CAF08F10108DDE7F9
:104D5800099B002B34DC0123184A31462846B84702
:104D680001303FF40EAF099B23B90A9B13B923689E
:104D7800D907CFD5059B049A31462846B847013054
:104D88003FF4FFAE4FF0000904F11A0A099B5B4299
:104D9800994501DB0A9B8BE7012352463146284699
:104DA800B84701303FF4EDAE09F10109EEE700BF65
:104DB800FFFFEF7F246C0008286C0008346C0008A3
:104DC8000A9AA36D9A42A8BF1A46002A914638DC6F
:104DD80004F11A034FF0000B29EAE9790693D4F895
:104DE80058A0AAEB09039B4533DB0A9B099A9A4210
:104DF8003ADB2368DA0737D40A9B0999A3EB0A023E
:104E0800A3EB01099145A8BF9146B9F1000F33DC26
:104E18004FF0000829EAE97904F11A0A099A0A9B6D
:104E28009B1AA3EB09039845BFF674AF01235246BA
:104E380031462846B84701303FF4A3AE08F10108CF
:104E4800ECE71346314642462846B8470130BFD101
:104E580097E60123069A31462846B84701303FF4C1
:104E680090AE0BF1010BBAE7059B049A3146284630
:104E7800B8470130C0D184E64B4608EB0A023146F8
:104E88002846B8470130C3D17BE60A9A012A01DCDB
:104E9800DB0737D50123424631462846B84701305B
:104EA8003FF46FAE059B049A31462846B847013057
:104EB8003FF467AE00220023D4E91201FBF7A8FDF6
:104EC80058B14FF0000804F11A0A0A9B013B9845B3
:104ED8000DDB4B4604F15002EBE60A9B08F1010298
:104EE800013B31462846B8470130F2D149E6012353
:104EF800524631462846B84701303FF442AE08F1E1
:104F08000108E2E701234246EBE701234A4631461E
:104F18002846B84701303FF434AE08F1010800E7ED
:104F280042464B4640464946FBF7A4FD00283FF45D
:104F38002DAE014B014A0EE62C6C0008306C0008BF
:104F48002DE9F04791461F468A680B69DDF82080F5
:104F58009342B8BF1346C9F8003091F8432006467B
:104F68000C4612B10133C9F800302368990642BFD4
:104F7800D9F800300233C9F80030256815F0060565
:104F880007D104F1190AE368D9F800209B1A9D4259
:104F980029DB94F843302268003318BF01239206B6
:104FA8002ED404F1430239463046C047013021D09F
:104FB8002368E568D9F8002003F00603042B08BF2E
:104FC800AD1AA36822690CBF25EAE575002593424E
:104FD800C4BF9B1AED184FF000091A344D451BD178
:104FE8000020BDE8F0870123524639463046C047C5
:104FF800013003D14FF0FF30BDE8F0870135C2E73B
:10500800E1185A1C302081F84300224494F84510D6
:1050180082F843100233C4E701232246394630465A
:10502800C0470130E6D009F10109D7E770B50E464F
:10503800054618B183690BB901F00EF9AB69AC6884
:1050480013B9284601F008F9234B9C4217D16C6824
:10505800A3891B071DD52369DBB1013EA36816F898
:10506800011F013BA360E9B9002B2EDA22460A2171
:10507800284600F0E5F8013011D00A2070BD174B22
:105088009C4201D1AC68E3E7154B9C4208BFEC6831
:10509800DEE72146284600F025F90028DDD04FF04C
:1050A800FF3070BD002B04DAA269934206DB0A299F
:1050B80004D023685A1C22601970CFE7224628467C
:1050C80000F0BEF80130C9D1E9E723680A205A1C6C
:1050D8002260187070BD00BF646C0008846C000802
:1050E800446C0008024B01461868FFF79FBF00BFD9
:1050F8000C00002038B5064C0023054608462360FE
:10510800FEF750FF431C02D1236803B12B6038BD62
:10511800A01B00202DE9F84F8046894692461F467D
:105128008B465D460A9815F8014B01F01FF920449B
:10513800467816F008060BD12D2C0BD12C780126B9
:105148000BF1020567B1102F14D1302C0AD011E0F1
:10515800AB46E6E72B2C04BF2C780BF10205F1E7F0
:10516800302C27D12B7803F0DF03582B4BD16C78E8
:1051780010270235002E0CBF6FF000414FF00041A0
:105188000022B1FBF7FE104607FB1E1CA4F13003FA
:10519800092B11D81C46A7421DDD531C07D0864594
:1051A80016D301D1A44513DB00FB0740012215F8F3
:1051B800014BEBE70A27DDE7A4F14103192B01D8DE
:1051C800373CE8E7A4F16103192B04D8573CE2E720
:1051D8004FF0FF32EBE7531C08D12223C8F8003008
:1051E8000846BAF1000F07D1BDE8F88F06B1404272
:1051F800BAF1000F0CD022B1013DCAF80050BDE849
:10520800F88F4D46F9E73024002FB3D10827B1E7CE
:10521800BDE8F88F084B37B51C68084D236A002B8A
:1052280008BF2B46009313460A4601462046FFF75F
:1052380071FF03B030BD00BF0C00002070000020DB
:10524800F8B50E461446054618B183690BB901F046
:1052580003F8214B9C422AD16C68A369A360A389F7
:105268001A072ED5236963B323692068C01A6369B6
:10527800F6B29842374604DB2146284600F082FF02
:1052880028BBA368013BA36023685A1C22601E70D8
:1052980063690130984204D0A389DB0719D50A2E27
:1052A80017D12146284600F06DFF90B10FE00B4B57
:1052B8009C4201D1AC68D0E7094B9C4208BFEC681E
:1052C800CBE72146284600F00DF80028CCD04FF057
:1052D800FF373846F8BD00BF646C0008846C0008CE
:1052E800446C0008324B70B51D6806460C4625B163
:1052F800AB6913B9284600F0AFFF2E4B9C420FD183
:105308006C68B4F90C309AB215072CD4D00611D4B5
:105318000922326043F04003A3814FF0FF3070BD93
:10532800254B9C4201D1AC68EBE7244B9C4208BF5B
:10533800EC68E6E7510712D5616B41B104F144030B
:10534800994202D03046FFF779FA00236363A389B4
:1053580023F02403A3810023636023692360A389C6
:1053680043F00803A38123694BB9A38903F420738D
:10537800B3F5007F03D02146304601F02DF8A2890D
:1053880012F001030CD00023A36063695B42A361A0
:10539800236953B9B4F90C3013F08000BAD170BD49
:1053A800920758BF6369A360F2E70020F7E700BFE0
:1053B8000C000020646C0008846C0008446C000831
:1053C8002DE9F74F03690C699C42804600F38280FF
:1053D800013C01F114074FEA840E00F1140657F856
:1053E800245056F8240006EB0E03013507EB0E098E
:1053F8000193B0FBF5F595B34FF0000A3846B44673
:10540800D34650F8042B93B205FB03A34FEA134A83
:105418009BB2ABEB0303120CBCF800B005FB02A275
:1054280013FA8BF34FEA124A1FFA82FBDCF80020CA
:10543800CBEB124202EB23429BB243EA0243814583
:105448004FEA224B4CF8043BDBD256F80E3033B906
:10545800019B043B9E421A4630D3C8F81040404690
:1054680001F023FA002825DB013530464FF0000E05
:1054780057F8042BD0F800C093B2AEEB0303120C1C
:1054880013FA8CF3C2EB1C4202EB23429BB243EAB1
:105498000243B9454FEA224E40F8043BE8D256F899
:1054A800242006EB84032AB9043B9E421A460BD3F8
:1054B800C8F81040284603B0BDE8F08F1268043BD6
:1054C800002ACAD1013CC5E71268043B002AEFD183
:1054D800013CEAE70020EEE72DE9F04F57EC106BAE
:1054E80097B0CDE90067466A079104460A920F9380
:1054F800209D3EB91020FFF791F9606246608660F2
:105508000660C660636A196851B15A684A60012327
:1055180093408B60204600F0F2FF636A00221A6015
:10552800019B002BBFBF01232B60019B23F000438D
:10553800B2BF019300232B60DDF80480A84B33EA47
:1055480008031BD10F9A42F20F731360009B23B913
:10555800C8F31300002800F07885219B53B9A14BAC
:1055680021E0A14B02930833219A1360029817B0E7
:10557800BDE8F08F9B4B02930333F5E7DDE9006745
:105588000022002330463946FBF742FA814660B1D3
:105598000F9A01231360219B002B00F05385934B36
:1055A800219A1360013B0293E0E714AA15A947EC7E
:1055B800106B204601F0F1F9C8F30A558246002D18
:1055C8007ED0C7F3130343F07F51304641F44011B6
:1055D800A5F2FF35CDF848900022854BFAF7FCFD7F
:1055E80079A3D3E90023FAF7ABFF79A3D3E9002322
:1055F800FAF7F4FD064628460F46FAF73BFF76A36E
:10560800D3E90023FAF79CFF02460B463046394699
:10561800FAF7E4FD06460F46FBF742FA00228346F6
:10562800002330463946FBF7FDF958B15846FAF7DA
:1056380021FF02460B4630463946FBF7E9F908B91F
:105648000BF1FF3BBBF1160F59D86A4901EBCB01AF
:10565800DDE90023D1E90001FBF702FA002850D068
:105668000BF1FF3B00230E93149B5D1B6B1E0693EF
:1056780045BFC5F101030593002300234CBF0693E2
:105688000593BBF1000F3EDB069BCDF82CB05B44C5
:10569800069300230893079B092B00F2AF80052B84
:1056A800C4BF043B0793079BA3F10203CCBF0026AA
:1056B8000126032B00F2AE80DFE803F082842F7707
:1056C800159B149D1D4405F23243202B11DD009AD1
:1056D80005F21240C3F1400322FA00F008FA03F37E
:1056E8001843FAF7B7FE0123A1F1F871013D1293AF
:1056F80072E7C3F12000009B03FA00F0F1E70123F1
:10570800B1E70E90B0E7059BA3EB0B030593CBF134
:105718000003089300230B93BDE7012309930A9B19
:10572800002B7ADD04930393656A00226A600421E2
:1057380001F114029A4275D96968204600F0ABFE5F
:10574800636A28601B680293039B0E2B00F2E580B6
:10575800002E00F0E2809DED007BBBF1000F8DED87
:105768000C7B74DD234A0BF00F034FEA2B1602EB78
:10577800C303F006D3E9008959D51F4B51EC170B29
:10578800D3E90823FBF706F8CDE9000106F00F0678
:105798000325194F002E4CD142464B46DDE9000146
:1057A800FAF7F8FFCDE900016AE0012309930A9BA3
:1057B8005B4404930133012B0393B8BF0123B3E780
:1057C8000023ABE70023F1E761436F63A787D23F6C
:1057D800B3C8608B288AC63FFB799F501344D33FD8
:1057E8000000F07F3F6C0008366C0008356C00083C
:1057F8000000F83FD86C0008B06C000801260023B0
:10580800079309964FF0FF33049303930022122362
:105818000A9289E701230993F4E701230493039388
:105828001A46F5E76A6801326A60490080E702258E
:10583800AFE7F10708D540464946D7E90023FAF70C
:105848007FFE01358046894676100837A2E700F0CA
:105858009D80CBF100069F4B9F4F06F00F0203EB94
:10586800C203D3E90023DDE90C01FAF769FECDE9AB
:105878000001361100230225002E7CD1002B91D186
:105888000E9B002B00F08480DDE900890022934BF9
:1058980040464946FBF7C6F8002879D0039B002B01
:1058A80076D0049B002B34DD00228D4B40464946C0
:1058B800FAF746FECDE90001049E0BF1FF370135EA
:1058C8002846FAF7D7FDDDE90023FAF739FE00226A
:1058D800844BFAF783FC8046A1F15079002E5AD107
:1058E8000022814BDDE90001FAF776FC42464B467F
:1058F800CDE90001FBF7B4F8002840F09B8242464E
:1059080009F10043DDE90001FBF78CF8002840F0BD
:105918008F82DDE90C23CDE90023159B002BC0F213
:105928005081BBF10E0F00F34C816A4B03EBCB03A4
:10593800D3E900890A9B002B80F2DA80039B002BB5
:1059480000F3D68040F073820022674B40464946F8
:10595800FAF7F6FDDDE90023FBF778F8039E3746F2
:10596800002840F04A82029B029A5D1C3123137082
:105978000BF1010B45E2F20705D5D7E90023FAF749
:10598800DFFD013501237610083775E7022577E733
:105998005F46039E94E7029A4E4B32441392099A4B
:1059A800711E002A48D003EBC103D3E9002300206D
:1059B8004E49FAF7EFFE42464B46FAF70DFC029DB8
:1059C80080468946DDE90001FBF76AF80646FAF7E2
:1059D80051FD02460B46DDE90001FAF7FDFB3036C2
:1059E80005F8016B42464B46CDE90001FBF71AF872
:1059F800002865D1DDE9002300203849FAF7ECFBDF
:105A080042464B46FBF70EF8002840F0BA80139B3D
:105A18009D423FF47EAF0022314B40464946FAF79B
:105A28008FFD0022804689462D4BDDE90001FAF7FB
:105A380087FDCDE90001C5E703EBC10142464B46AE
:105A4800D1E90001FAF77CFDCDE91001029DDDE9FD
:105A58000001FBF725F80646FAF70CFD303602463A
:105A68000B46DDE90001FAF7B7FB05F8016B139B5C
:105A7800AB42804689464FF0000225D11B4BDDE939
:105A88001001FAF7ABFB02460B4640464946FAF7C7
:105A9800E7FF002875D1DDE9102300201349FAF744
:105AA8009BFB02460B4640464946FAF7BBFF0028D7
:105AB8003FF42FAF15F8013C302B05F1FF3201D030
:105AC800BB464DE01546F5E7054BFAF739FDCDE93C
