:020000040800F2
:1000000000000220D90400080507000807070008BF
:10001000090700080B0700080D0700080000000092
:100020000000000000000000000000000F070008B2
:10003000110700080000000013070008150700085A
:1000400029050008290500082905000829050008D8
:1000500029050008190700082905000829050008D6
:1000600029050008290500082905000829050008B8
:1000700029050008290500082905000829050008A8
:100080002905000829050008290500082905000898
:100090002905000829050008290500082905000888
:1000A00029050008290500081D0700082905000882
:1000B0002905000829050008290500082905000868
:1000C0002905000829050008290500082905000858
:1000D0002905000829050008290500082905000848
:1000E0002905000829050008290500082905000838
:1000F0002905000829050008290500082905000828
:100100002905000829050008290500082905000817
:100110002905000829050008290500082905000807
:1001200029050008290500082905000829050008F7
:1001300029050008290500082905000829050008E7
:1001400029050008290500082905000829050008D7
:1001500029050008290500082905000829050008C7
:1001600029050008290500082905000829050008B7
:1001700029050008290500082905000800000000DD
:0801800029050008290500080B
:1001880010B5054C237833B9044B13B10448AFF3C9
:1001980000800123237010BD0C0000200000000027
:1001A800B016000808B5034B1BB103490348AFF369
:1001B800008008BD0000000010000020B0160008F4
:1001C80053B94AB9002908BF00281CBF4FF0FF31B6
:1001D8004FF0FF3000F07AB9ADF1080C6DE904CEAC
:1001E80000F006F8DDF804E0DDE9022304B070470A
:1001F8002DE9F0478C460D460446089E002B51D148
:100208008A4217466DD9B2FA82FEBEF1000F0BD0B2
:10021800CEF1200C01FA0EF520FA0CFC02FA0EF7CA
:100228004CEA050C00FA0EF44FEA174A250CBCFB01
:10023800FAF81FFA87F90AFB18CC45EA0C4508FBBF
:1002480009F3AB420AD9ED1908F1FF3280F0238196
:10025800AB4240F22081A8F102083D44ED1AA4B255
:10026800B5FBFAF00AFB105544EA054400FB09F90E
:10027800A14509D9E41900F1FF3380F00A81A145AD
:1002880040F2078102383C44A4EB090440EA0840E4
:100298000021002E61D024FA0EF40023346073602C
:1002A800BDE8F0878B4207D9002E54D0002186E89C
:1002B80021000846BDE8F087B3FA83F1002940F031
:1002C8008E80AB4202D3824200F2FA80841A65EB38
:1002D80003050120AC46002E3FD086E81010BDE88B
:1002E800F08712B90127B7FBF2F7B7FA87FEBEF11C
:1002F800000F34D1EB1B3A0C1FFA87FC0121B3FB2A
:10030800F2F8250C02FB183345EA03450CFB08F309
:10031800AB4207D9ED1908F1FF3002D2AB4200F227
:10032800D1808046ED1AA3B2B5FBF2F002FB10555E
:1003380043EA05440CFB00FCA44507D9E41900F185
:10034800FF3302D2A44500F2B8801846A4EB0C048F
:1003580040EA08409DE731463046BDE8F087CEF1D7
:10036800200405FA0EF307FA0EF720FA04F83A0CFF
:1003780025FA04F448EA0308B4FBF2F14FEA1845F9
:1003880002FB11441FFA87FC45EA044501FB0CF304
:10039800AB4200FA0EF409D9ED1901F1FF3080F0F3
:1003A8008A80AB4240F2878002393D44EB1A1FFA3B
:1003B80088F5B3FBF2F002FB103345EA034500FB76
:1003C8000CF3AB4207D9ED1900F1FF386FD2AB42FD
:1003D8006DD902383D44EB1A40EA01418FE7C1F17B
:1003E800200722FA07F88B4005FA01F448EA0303CC
:1003F80020FA07FE4FEA134CFD404EEA040EB5FB07
:10040800FCF94FEA1E440CFB19551FFA83F844EA1D
:10041800054509FB08F4AC4202FA01F200FA01FAB8
:1004280008D9ED1809F1FF3043D2AC4241D9A9F1FE
:1004380002091D442D1B1FFA8EFEB5FBFCF00CFBB8
:1004480010554EEA054400FB08F8A04507D9E41802
:1004580000F1FF3529D2A04527D902381C4440EACB
:100468000940A4EB0804A0FB02894C45C6464D464A
:1004780015D312D056B1BAEB0E0364EB050404FA97
:1004880007F7CB401F43CC40376074600021BDE8BC
:10049800F0871846F8E69046E0E6C245EAD2B8EB9F
:1004A800020E69EB03050138E4E72846D7E7404622
:1004B80091E78146BEE7014678E702383C4445E7C4
:1004C800084608E7A8F102083D442BE7704700BF3B
:1004D800DFF834D0002103E00C4B5B584350043163
:1004E8000B480C4B42189A42F6D30B4A02E0002301
:1004F80042F8043B094B9A42F9D300F0A7F901F0FE
:10050800A7F800F0ADF8704700000220E8160008D0
:10051800000000200C0000200C0000206C000020CF
:10052800FEE7000030B514228BB00DEB020000216D
:1005380001F0B2F80024234B00941A6B224D42F0CC
:1005480004021A631A6B02F004020092009A0194E2
:100558001A6B42F020021A631A6B02F02002019211
:10056800019A02941A6B42F080021A631A6B02F025
:1005780080020292029A03941A6B42F008021A63EC
:100588001A6B02F008020392039A04941A6B42F061
:1005980001021A631B6B03F00103049322462846E9
:1005A8004FF48041049B00F02BFB4FF480430593EC
:1005B80005A90123284606930794089400F03AFAFF
:1005C8000BB030BD00380240000C024030B595B089
:1005D8003022002108A801F05FF81422002103A8A6
:1005E80001F05AF800211C4B01911A6C42F080521C
:1005F8001A641B6C03F080530193019B174B029103
:100608001A6842F480421A601B6803F4804302931C
:10061800029B4FF4803309934FF480030F931923FF
:100628001093C02302240125119308A804231393CF
:1006380008950E94129400F0E9FA0F23039380238F
:10064800059329464FF4805303A80494069307930F
:1006580000F08CFC15B030BD00380240007000403E
:1006680070B500F03DF9FFF7B1FFFFF75BFF00F051
:10067800B3F800210D480D4D00F088FF00210B480C
:1006880000F0A4FF2E4600242B680A205C63013486
:1006980000F052F9B4F5FA7FF6D133680A205C63AA
:1006A80000F04AF9013CF8D1EDE700BF280000202E
:1006B8007047000007B5104B00220092596C41F4B6
:1006C80080415964596C01F480410091009901926C
:1006D800196C41F0805119641B6C03F0805301932D
:1006E80011460520019B00F04DF9052000F07EF928
:1006F80003B05DF804FB00BF003802407047FEE716
:10070800FEE7FEE7FEE770477047704700F002B962
:100718007047000008B58021084800F06BFA0128EE
:1007280002464FF48041064818BF002200F068FADC
:100738000448BDE8084000F047BD00BF001402406F
:10074800000C02402800002007B50D4B02689A42B1
:1007580013D1002203F570430192596C41F48021B2
:1007680059645B6C03F4802301931A201146019BA2
:1007780000F008F91A2000F039F903B05DF804FB1D
:100788000048014010B5044686B01422002101A893
:1007980000F082FF22680D4B9A4215D10023009386
:1007A8000B4B0C481A6B42F020021A631B6B03F0C8
:1007B80020030093009B802301930223029301A945
:1007C8000323059300F036F906B010BD0048014038
:1007D800003802400014024000B589B01C220021F4
:1007E80001A800F059FF1748174945F6C05380E89B
:1007F8000A00002383604FF47A7203618023C26089
:10080800836100F0E9FD08B1FFF752FF0D4800F0E1
:10081800FDFD08B1FFF74CFF60230022019301A9F9
:100828004FF4FA73074802930392059200F03EFED4
:1008380008B1FFF73DFF0348FFF7A4FF09B05DF8D3
:1008480004FB00BF28000020004801400F49D1F8F0
:10085800883043F47003C1F888300D4B1A680020C3
:1008680042F001021A6098601A6822F0847222F439
:1008780080321A60074A5A601A6822F480221A6085
:10088800D8604FF000638B60704700BF00ED00E058
:10089800003802401030002438B50E4A0E4B054689
:1008A80018784FF47A73B3FBF0F31068B0FBF3F0E9
:1008B80000F0AAF8044658B90F2D09D8024629466F
:1008C8004FF0FF3000F05EF8044B20461D6038BD45
:1008D800012038BD0000002004000020080000208E
:1008E80008B50B4B1A6842F400721A601A6842F491
:1008F80080621A601A6842F480721A60032000F05D
:100908002FF80020FFF7C8FFFFF7D4FE002008BD2E
:10091800003C0240034A044B11681B780B441360E7
:10092800704700BF6800002004000020014B1868D1
:10093800704700BF6800002038B50446FFF7F6FF8F
:10094800631C1CBF054B1B78054618BFE418FFF74E
:10095800EDFF401B8442FAD838BD00BF04000020D8
:10096800074AD36823F4E0631B041B0C43F0BF63FE
:10097800000243F4003300F4E0600343D36070479F
:1009880000ED00E0174B30B5DC68C4F30224C4F175
:100998000703251D042B28BF0423062D4FF001054E
:1009A80005FA03F303F1FF338CBF033C002419401D
:1009B800A14005FA04F4013C2240002842EA010261
:1009C8004FEA0212ADBF00F1604000F00F00064B85
:1009D80000F56140B5BFD2B2D2B21A5480F80023F4
:1009E80030BD00BF00ED00E014ED00E0002808DB9A
:1009F8004209012300F01F0003FA00F0014B43F8FD
:100A08002200704700E100E00138B0F1807F0AD28F
:100A1800064B074A5860F02182F82310002007226D
:100A280098601A6070470120704700BF10E000E02E
:100A380000ED00E02DE9F04F85B00B68DFF8AC81E0
:100A4800684ADFF8AC91019300234FF0010E019C36
:100A58000EFA03FE0EEA0406B64540F0AE804C6876
:100A680024F01007022F16D14FEAD30A00EB8A0AA6
:100A780003F0070BDAF820504FEA8B0B4FF00F0CFE
:100A88000CFA0BFC25EA0C0C0D6905FA0BF545EA86
:100A98000C05CAF820504FEA430A0325D0F800B0E5
:100AA80005FA0AF5ED4304F0030C0BEA050B0CFA02
:100AB8000AFC013F4CEA0B0C012FC0F800C011D80A
:100AC800876807EA050BCF6807FA0AFC4CEA0B07A8
:100AD8008760476827EA0E0EC4F300179F4047EA6D
:100AE8000E074760C7683D408F6807FA0AF73D431D
:100AF800C560E50061D54FF0000BCDF80CB0D8F813
:100B08004470394D47F48047C8F84470D8F84470A9
:100B180007F480470397039F23F0030707F18047F3
:100B280007F59C3703F0030CD7F808A04FEA8C0CA4
:100B38004FF00F0E0EFA0CFEA8422AEA0E0E43D012
:100B480005F58065A84241D005F58065A8423FD0EB
:100B580005F58065A8423DD005F58065A8423BD0E3
:100B680048453BD005F50065A84239D005F58065B4
:100B7800A84214BF0825072505FA0CF545EA0E0515
:100B8800BD601568F74314F4803F0CBF3D40354302
:100B98001560556814F4003F0CBF3D40354355605F
:100BA800956814F4801F0CBF3D4035439560D568A7
:100BB800A40254BF3D403543D5600133102B7FF468
:100BC80044AF05B0BDE8F08F5D46D5E70125D3E712
:100BD8000225D1E70325CFE70425CDE70525CBE797
:100BE8000625C9E7003C01400000024000380240E9
:100BF800001402400369194214BF01200020704705
:100C08000AB1816170470904FBE700002DE9F3414F
:100C1800044618B9012002B0BDE8F0810368DD0779
:100C280010D42368980758D423681A0700F19A80CB
:100C380023685B0700F1B880A269002A40F0198197
:100C48000020E8E7A64B9A6802F00C02042A07D0B5
:100C58009A6802F00C02082A0AD15B68590207D583
:100C68009F4B1B689A03DCD56368002BD9D1D1E769
:100C780063689B4DB3F5803F11D12B6843F48033F3
:100C88002B60FFF753FE964D06462B689B03C8D48E
:100C9800FFF74CFE801B6428F7D90320BBE7B3F5A8
:100CA800A02F04D12B6843F480232B60E5E72A6842
:100CB80022F480322A602A6822F480222A60002BDB
:100CC800DFD1FFF733FE06462B689F03A9D5FFF750
:100CD8002DFE801B6428F7D9DFE7814B9A6812F054
:100CE8000C0F07D09A6802F00C02082A11D15B6831
:100CF8005E020ED47A4B1A68950702D5E268012A7B
:100D080088D11A68216922F0F80242EAC1021A6001
:100D18008AE7E268734BB2B101221A60FFF706FE58
:100D28006F4D06462B68980707D52B68226923F074
:100D3800F80343EAC2032B6076E7FFF7F7FD801B51
:100D48000228EFD9A9E71A60FFF7F0FD644D0646BF
:100D58002B6899077FF568AFFFF7E8FD801B02282D
:100D6800F6D99AE76269604B7AB101221A60FFF7F7
:100D7800DDFD5B4D06466B6F9F073FF559AFFFF7EB
:100D8800D5FD801B0228F6D987E71A60FFF7CEFD4C
:100D9800534D06466B6F98077FF54AAFFFF7C6FDC0
:100DA800801B0228F6D978E74D4B1A6C12F0805256
:100DB80028D101921A6C42F080521A641B6C03F01D
:100DC80080530193019B0126484D2B68D9051BD5FB
:100DD800A368434D012B27D12B6F43F001032B67E9
:100DE800FFF7A4FD3E4D074641F288382B6F9B075D
:100DF80039D5002E3FF420AF394A136C23F08053C5
:100E0800136419E70026DFE72B6843F480732B602F
:100E1800FFF78CFD07462B68DA05D9D4FFF786FD66
:100E2800C01B0228F7D938E7052B04D12B6F43F0F4
:100E380004032B67D0E72A6F22F001022A672A6F82
:100E480022F004022A67002BCAD1FFF76FFD41F296
:100E5800883807462B6F9807CBD5FFF767FDC01B6F
:100E68004045F7D919E7FFF761FDC01B4045BDD9DB
:100E780013E71B4DAB6803F00C03082B3FF4CAAE15
:100E88001B4E0023022A336034D1FFF74FFD07467B
:100E98002B6899011ED4226AE3691343626A43EA04
:100EA8008213E26A43EA0263A26A0D4C5208013ACD
:100EB80043EA02436B6001233360FFF737FD0546C1
:100EC80023689A013FF5BCAEFFF730FD401B0228AE
:100ED800F6D9E2E6FFF72AFDC01B0228D8D9DCE6DE
:100EE8000038024000004742800E47420070004030
:100EF80060004742FFF71AFD04462B689B017FF507
:100F08009FAEFFF713FD001B0228F6D9C5E600BF08
:100F1800134908B58B6803F00C03042B03D0082B86
:100F280003D0104808BD104808BD4A684B68496896
:100F380013F4800314BF0C480A48C1F3881118BF82
:100F4800002302F03F02A1FB0001FFF739F9044B2F
:100F58005B68C3F3014301335B00B0FBF3F008BDEA
:100F6800003802400024F40040787D012DE9F0416A
:100F78000D46044610B90120BDE8F081444B1A68BB
:100F880002F00F028A4228D321688F072DD4C807A0
:100F980040D43F4B1A6802F00F02954266D322688C
:100FA80051076CD4130707D53A4A2169936823F48B
:100FB800604343EAC1039360FFF7AAFF354B364A03
:100FC8009B68C3F30313D35CD840344B18600020EC
:100FD800FFF762FC0020BDE8F081CAB21A701B68F6
:100FE80003F00F039942C6D1CEE72A4B11F0040F44
:100FF8001EBF9A6842F4E0529A600E0742BF9A6890
:1010080042F460429A609A68A06822F0F0020243B3
:101018009A60BCE762681F4B012A1DD11B6813F454
:10102800003FA8D01B4EB36823F003031343B360FB
:10103800FFF77CFC41F288380746B368626803F022
:101048000C03B3EB820FA4D0FFF770FCC01B404524
:10105800F3D90320BDE8F081911E01291B6802D84D
:1010680013F0007FDDE713F0020FDAE7EAB21A7037
:101078001B6803F00F039D427FF47DAF8FE705499E
:10108800E0688B6823F4E05303438B608AE700BF72
:10109800003C024000380240C8160008000000204A
:1010A800036A23F001030362036A70B54468826926
:1010B8000D6822F073022A438D6823F002032B4344
:1010C8000E4DA84202D00E4EB04210D1CE6823F089
:1010D80008033343A84223F0040302D0084DA84272
:1010E80005D14D698E6924F4407435432C4344601E
:1010F80082614A684263036270BD00BF000001401C
:1011080000040140036A23F480730362036A70B524
:101118004468C2690D6822F073022A438D6823F47B
:10112800007343EA0523114DA84203D005F58065F5
:10113800A84214D1CD6823F4006343EA05230B4D7C
:10114800A84223F4806303D005F58065A84206D140
:101158004D698E6924F44054354344EA05144460CB
:10116800C2614A68C263036270BD00BF00000140EB
:10117800036A23F480530362036A30B54468C26982
:101188000D6822F4E64242EA05228D6823F40053F2
:1011980043EA0533084DA84203D005F58065A84207
:1011A80004D14D6924F4804444EA85144460C26142
:1011B8004A680264036230BD00000140704770470E
:1011C800704770477047704703681A69910710B5F0
:1011D80004460ED5DA6892070BD56FF002021A6141
:1011E8009B6901229B07027777D0FFF7EAFF00236C
:1011F800237723681A69500710D5DA6851070DD587
:101208006FF004021A619B69022213F4407F22776F
:10121800204668D0FFF7D5FF0023237723681A6993
:1012280012070FD5DA6810070CD56FF008021A619B
:10123800DB6904229907227720465AD0FFF7C1FFBD
:101248000023237723681A69D20610D5DA68D006F6
:101258000DD56FF010021A61DB69082213F4407F84
:10126800227720464BD0FFF7ACFF00232377236873
:101278001A69D10708D5DA68D20705D56FF00102D7
:101288001A612046FFF79BFF23681A69100608D5E4
:10129800DA68110605D56FF080021A61204600F061
:1012A800D6F923681A69520608D5DA68500605D5B2
:1012B8006FF040021A612046FFF785FF23681A691C
:1012C800910622D5DA6892061FD56FF020022046D3
:1012D8001A61BDE8104000F0B9B9FFF771FF204668
:1012E800FFF770FF83E7FFF76BFF2046FFF76AFF02
:1012F80092E7FFF765FF2046FFF764FFA0E7FFF7D7
:101308005FFF2046FFF75EFFAFE710BD304A036876
:10131800904212D0B0F1804F0FD0A2F57C4290429B
:101328000BD002F58062904207D002F580629042AD
:1013380003D002F57842904219D14A6823F070032D
:101348001343234A904229D0B0F1804F26D0A2F50A
:101358007C42904222D002F5806290421ED002F573
:10136800806290421AD002F57842904216D0194A0B
:10137800904213D002F5806290420FD002F580624D
:1013880090420BD0A2F59832904207D002F58062C5
:10139800904203D002F58062904203D1CA6823F4D8
:1013A800407313434A6923F08003134303608B6837
:1013B800C3620B688362064B984203D003F58063CF
:1013C800984201D10B69036301234361704700BF51
:1013D800000001400040014010B50446A0B190F85B
:1013E8003D3003F0FF021BB980F83C20FFF7ACF951
:1013F800022384F83D302068211DFFF787FF012371
:1014080084F83D30002010BD012010BD10B5044601
:10141800A0B190F83D3003F0FF021BB980F83C20E2
:10142800FFF7CCFE022384F83D302068211DFFF72A
:101438006DFF012384F83D30002010BD012010BD50
:10144800036A23F010030362036A70B54468826973
:101458000D6822F4E64242EA05228D6823F0200353
:1014680043EA0513104DA84203D005F58065A8424C
:1014780014D1CD6823F0800343EA05130A4DA8422E
:1014880023F0400303D005F58065A84206D14D69D5
:101498008E6924F44064354344EA850444608261DB
:1014A8004A688263036270BD0000014038B590F855
:1014B8003C30012B04464FF0020025D0012384F86C
:1014C8003C3084F83D000C2A18D8DFE802F00717F2
:1014D80017171E1717172F17171740002068FFF741
:1014E800DFFD236809699A6942F008029A619A69DE
:1014F80022F004029A619A690A439A610123002042
:1015080084F83D3084F83C0038BD2068FFF798FF28
:10151800236809699A6942F400629A619A6922F417
:1015280080629A619A6942EA0122E6E72068FFF739
:10153800E9FD23680969DA6942F00802DA61DA69C3
:1015480022F00402DA61DA690A43DA61D6E7206830
:10155800FFF70EFE23680969DA6942F40062DA616E
:10156800DA6922F48062DA61DA6942EA0122ECE798
:10157800036A01F01F0110B501248C4023EA04031B
:101588000362036A8A401A43026210BD10B504461A
:1015980001220068FFF7ECFF23680B4A93420ED044
:1015A80002F5806293420AD09A6802F00702062A7E
:1015B80003D01A6842F001021A60002010BD5A6C6C
:1015C80042F400425A64EFE70000014010B50446B7
:1015D8000C290DD8DFE801F0070C0C0C230C0C0CBF
:1015E800280C0C0C2D000268D36843F00203D3606A
:1015F80001222068FFF7BCFF2368134A93421DD0DD
:1016080002F58062934219D09A6802F00702062A0E
:1016180003D01A6842F001021A60002010BD026867
:10162800D36843F00403E2E70268D36843F0080391
:10163800DDE70268D36843F01003D8E75A6C42F438
:1016480000425A64E0E700BF00000140704770475D
:1016580070B50D4E0D4CA41BA4100025A54209D150
:101668000B4E0C4C00F020F8A41BA4100025A5423A
:1016780005D170BD56F8253098470135EEE756F884
:10168800253098470135F2E7E0160008E016000813
:10169800E0160008E416000802440346934200D10D
:1016A800704703F8011BF9E7F8B500BFF8BC08BCA0
:1016B8009E467047F8B500BFF8BC08BC9E46704708
:1016C80000000000000000000102030406070809EA
:0816D80020EBFF7F0100000080
:0416E000AD01000850
:0416E4008901000870
:0C16E8000024F4000100000010000000CD
:04000005080004D912
:00000001FF
