:020000040800F2
:1000000000000220E91A00086116000863160008C3
:100010006516000867160008691600080000000051
:100020000000000000000000000000006B16000847
:100030006D160008000000006F1600087116000819
:10004000391B0008391B0008391B0008391B000840
:10005000391B000875160008391B0008391B0008F9
:10006000391B0008391B0008391B0008391B000820
:10007000391B0008391B0008391B0008391B000810
:10008000391B0008391B0008391B0008391B000800
:10009000391B0008391B0008391B0008391B0008F0
:1000A000391B0008391B0008391B0008391B0008E0
:1000B000391B0008391B0008391B0008391B0008D0
:1000C000391B0008391B0008391B0008391B0008C0
:1000D000391B000879160008391B0008391B000875
:1000E000391B0008391B0008391B0008391B0008A0
:1000F000391B0008391B0008391B0008391B000890
:10010000391B0008391B0008391B0008391B00087F
:10011000391B0008391B0008391B0008391B00086F
:10012000391B0008391B0008391B0008391B00085F
:10013000391B0008391B0008391B0008391B00084F
:10014000391B0008391B0008391B0008391B00083F
:10015000391B0008391B0008391B000885160008E8
:10016000391B0008391B0008391B0008391B00081F
:10017000391B0008391B0008391B0008000000006B
:08018000391B0008391B0008BF
:1001900010B5054C237833B9044B13B10448AFF3C1
:1001A00000800123237010BD7400002000000000B7
:1001B000802E000808B5034B1BB103490348AFF379
:1001C000008008BD0000000078000020802E00089C
:1001D000034613F8012B002AFBD1181A0138704787
:1001E00001F0FF01102A2BDB10F0070F08D010F8E8
:1001F000013B013A8B422DD010F0070F42B3F6D1EC
:10020000F0B441EA012141EA014122F007047FF004
:1002100000070023F0E80256083C85EA010586EA5B
:10022000010685FA47F5A3FA87F586FA47F6A5FA97
:1002300087F68EB9EED1F0BC01F0FF0102F00702A3
:1002400032B110F8013B013A83EA010313B1F8D14E
:100250000020704701387047002D06BF354603382F
:10026000073815F0010F07D1013015F4807F02BF68
:10027000013015F4C03F0130F0BC0138704700BFB9
:1002800053B94AB9002908BF00281CBF4FF0FF31FD
:100290004FF0FF3000F07AB9ADF1080C6DE904CEF3
:1002A00000F006F8DDF804E0DDE9022304B0704751
:1002B0002DE9F0478C460D460446089E002B51D18F
:1002C0008A4217466DD9B2FA82FEBEF1000F0BD0FA
:1002D000CEF1200C01FA0EF520FA0CFC02FA0EF712
:1002E0004CEA050C00FA0EF44FEA174A250CBCFB49
:1002F000FAF81FFA87F90AFB18CC45EA0C4508FB07
:1003000009F3AB420AD9ED1908F1FF3280F02381DD
:10031000AB4240F22081A8F102083D44ED1AA4B29C
:10032000B5FBFAF00AFB105544EA054400FB09F955
:10033000A14509D9E41900F1FF3380F00A81A145F4
:1003400040F2078102383C44A4EB090440EA08402B
:100350000021002E61D024FA0EF400233460736073
:10036000BDE8F0878B4207D9002E54D0002186E8E3
:1003700021000846BDE8F087B3FA83F1002940F078
:100380008E80AB4202D3824200F2FA80841A65EB7F
:1003900003050120AC46002E3FD086E81010BDE8D2
:1003A000F08712B90127B7FBF2F7B7FA87FEBEF163
:1003B000000F34D1EB1B3A0C1FFA87FC0121B3FB71
:1003C000F2F8250C02FB183345EA03450CFB08F351
:1003D000AB4207D9ED1908F1FF3002D2AB4200F26F
:1003E000D1808046ED1AA3B2B5FBF2F002FB1055A6
:1003F00043EA05440CFB00FCA44507D9E41900F1CD
:10040000FF3302D2A44500F2B8801846A4EB0C04D6
:1004100040EA08409DE731463046BDE8F087CEF11E
:10042000200405FA0EF307FA0EF720FA04F83A0C46
:1004300025FA04F448EA0308B4FBF2F14FEA184540
:1004400002FB11441FFA87FC45EA044501FB0CF34B
:10045000AB4200FA0EF409D9ED1901F1FF3080F03A
:100460008A80AB4240F2878002393D44EB1A1FFA82
:1004700088F5B3FBF2F002FB103345EA034500FBBD
:100480000CF3AB4207D9ED1900F1FF386FD2AB4244
:100490006DD902383D44EB1A40EA01418FE7C1F1C2
:1004A000200722FA07F88B4005FA01F448EA030313
:1004B00020FA07FE4FEA134CFD404EEA040EB5FB4E
:1004C000FCF94FEA1E440CFB19551FFA83F844EA65
:1004D000054509FB08F4AC4202FA01F200FA01FA00
:1004E00008D9ED1809F1FF3043D2AC4241D9A9F146
:1004F00002091D442D1B1FFA8EFEB5FBFCF00CFB00
:1005000010554EEA054400FB08F8A04507D9E41849
:1005100000F1FF3529D2A04527D902381C4440EA12
:100520000940A4EB0804A0FB02894C45C6464D4691
:1005300015D312D056B1BAEB0E0364EB050404FADE
:1005400007F7CB401F43CC40376074600021BDE803
:10055000F0871846F8E69046E0E6C245EAD2B8EBE6
:10056000020E69EB03050138E4E72846D7E7404669
:1005700091E78146BEE7014678E702383C4445E70B
:10058000084608E7A8F102083D442BE7704700BF82
:1005900038B50E4A0E4B054618784FF47A73B3FB04
:1005A000F0F31068B0FBF3F000F096F8044658B989
:1005B0000F2D09D8024629464FF0FF3000F04AF8C7
:1005C000044B20461D6038BD012038BD08000020C6
:1005D000000000200400002008B50B4B1A6842F40C
:1005E00000721A601A6842F480621A601A6842F453
:1005F00080721A60032000F01BF80020FFF7C8FF8C
:1006000001F00AF8002008BD003C0240034A044BF8
:1006100011681B780B441360704700BFAC000020CA
:1006200000000020014B1868704700BFAC0000209C
:10063000074AD36823F4E0631B041B0C43F0BF6339
:10064000000243F4003300F4E0600343D3607047DA
:1006500000ED00E0174B30B5DC68C4F30224C4F1B0
:100660000703251D042B28BF0423062D4FF0010589
:1006700005FA03F303F1FF338CBF033C0024194058
:10068000A14005FA04F4013C2240002842EA01029C
:100690004FEA0212ADBF00F1604000F00F00064BC0
:1006A00000F56140B5BFD2B2D2B21A5480F800232F
:1006B00030BD00BF00ED00E014ED00E0002808DBD5
:1006C0004209012300F01F0003FA00F0014B43F838
:1006D0002200704700E100E00138B0F1807F0AD2CB
:1006E000064B074A5860F02182F8231000200722A9
:1006F00098601A6070470120704700BF10E000E06A
:1007000000ED00E090F83530022B03D080234365E4
:10071000012070470268052380F83530136823F004
:1007200001031360002070472DE9F04F85B00B687E
:10073000DFF8AC81684ADFF8AC91019300234FF0F9
:10074000010E019C0EFA03FE0EEA0406B64540F0C7
:10075000AE804C6824F01007022F16D14FEAD30A5E
:1007600000EB8A0A03F0070BDAF820504FEA8B0BF4
:100770004FF00F0C0CFA0BFC25EA0C0C0D6905FA76
:100780000BF545EA0C05CAF820504FEA430A032549
:10079000D0F800B005FA0AF5ED4304F0030C0BEABB
:1007A000050B0CFA0AFC013F4CEA0B0C012FC0F8B8
:1007B00000C011D8876807EA050BCF6807FA0AFC62
:1007C0004CEA0B078760476827EA0E0EC4F3001750
:1007D0009F4047EA0E074760C7683D408F6807FAA9
:1007E0000AF73D43C560E50061D54FF0000BCDF839
:1007F0000CB0D8F84470394D47F48047C8F84470BD
:10080000D8F8447007F480470397039F23F0030749
:1008100007F1804707F59C3703F0030CD7F808A0D1
:100820004FEA8C0C4FF00F0E0EFA0CFEA8422AEA8B
:100830000E0E43D005F58065A84241D005F58065D0
:10084000A8423FD005F58065A8423DD005F58065FA
:10085000A8423BD048453BD005F50065A84239D0B9
:1008600005F58065A84214BF0825072505FA0CF593
:1008700045EA0E05BD601568F74314F4803F0CBFD0
:100880003D4035431560556814F4003F0CBF3D40B2
:1008900035435560956814F4801F0CBF3D403543C7
:1008A0009560D568A40254BF3D403543D5600133FF
:1008B000102B7FF444AF05B0BDE8F08F5D46D5E75F
:1008C0000125D3E70225D1E70325CFE70425CDE7AE
:1008D0000525CBE70625C9E7003C014000000240A2
:1008E00000380240001402400AB1816170470904D7
:1008F000FBE700002DE9F341044618B9012002B0DE
:10090000BDE8F0810368DD0710D42368980758D448
:1009100023681A0700F19A8023685B0700F1B8800A
:10092000A269002A40F019810020E8E7A64B9A68E6
:1009300002F00C02042A07D09A6802F00C02082A7E
:100940000AD15B68590207D59F4B1B689A03DCD517
:100950006368002BD9D1D1E763689B4DB3F5803F25
:1009600011D12B6843F480332B60FFF75BFE964D6B
:1009700006462B689B03C8D4FFF754FE801B6428EF
:10098000F7D90320BBE7B3F5A02F04D12B6843F4BC
:1009900080232B60E5E72A6822F480322A602A68E7
:1009A00022F480222A60002BDFD1FFF73BFE0646AF
:1009B0002B689F03A9D5FFF735FE801B6428F7D964
:1009C000DFE7814B9A6812F00C0F07D09A6802F0AB
:1009D0000C02082A11D15B685E020ED47A4B1A68A9
:1009E000950702D5E268012A88D11A68216922F0A8
:1009F000F80242EAC1021A608AE7E268734BB2B1B8
:100A000001221A60FFF70EFE6F4D06462B6898070D
:100A100007D52B68226923F0F80343EAC2032B6051
:100A200076E7FFF7FFFD801B0228EFD9A9E71A60E0
:100A3000FFF7F8FD644D06462B6899077FF568AF10
:100A4000FFF7F0FD801B0228F6D99AE76269604B38
:100A50007AB101221A60FFF7E5FD5B4D06466B6F28
:100A60009F073FF559AFFFF7DDFD801B0228F6D940
:100A700087E71A60FFF7D6FD534D06466B6F980760
:100A80007FF54AAFFFF7CEFD801B0228F6D978E745
:100A90004D4B1A6C12F0805228D101921A6C42F020
:100AA00080521A641B6C03F080530193019B012652
:100AB000484D2B68D9051BD5A368434D012B27D181
:100AC0002B6F43F001032B67FFF7ACFD3E4D07464C
:100AD00041F288382B6F9B0739D5002E3FF420AFA9
:100AE000394A136C23F08053136419E70026DFE7BB
:100AF0002B6843F480732B60FFF794FD07462B6847
:100B0000DA05D9D4FFF78EFDC01B0228F7D938E7E4
:100B1000052B04D12B6F43F004032B67D0E72A6F1A
:100B200022F001022A672A6F22F004022A67002BB2
:100B3000CAD1FFF777FD41F2883807462B6F980737
:100B4000CBD5FFF76FFDC01B4045F7D919E7FFF77D
:100B500069FDC01B4045BDD913E71B4DAB6803F0D1
:100B60000C03082B3FF4CAAE1B4E0023022A33604D
:100B700034D1FFF757FD07462B6899011ED4226A2E
:100B8000E3691343626A43EA8213E26A43EA026357
:100B9000A26A0D4C5208013A43EA02436B600123FA
:100BA0003360FFF73FFD054623689A013FF5BCAE71
:100BB000FFF738FD401B0228F6D9E2E6FFF732FDC9
:100BC000C01B0228D8D9DCE60038024000004742AA
:100BD000800E47420070004060004742FFF722FD50
:100BE00004462B689B017FF59FAEFFF71BFD001BA2
:100BF0000228F6D9C5E600BF134908B58B6803F093
:100C00000C03042B03D0082B03D0104808BD104858
:100C100008BD4A684B68496813F4800314BF0C4848
:100C20000A48C1F3881118BF002302F03F02A1FB5C
:100C30000001FFF725FB044B5B68C3F3014301335D
:100C40005B00B0FBF3F008BD003802400024F40064
:100C500040787D012DE9F0410D46044610B9012090
:100C6000BDE8F081444B1A6802F00F028A4228D393
:100C700021688F072DD4C80740D43F4B1A6802F073
:100C80000F02954266D3226851076CD4130707D52B
:100C90003A4A2169936823F4604343EAC1039360AD
:100CA000FFF7AAFF354B364A9B68C3F30313D35CA7
:100CB000D840344B18600020FFF76AFC0020BDE8E4
:100CC000F081CAB21A701B6803F00F039942C6D1B3
:100CD000CEE72A4B11F0040F1EBF9A6842F4E0528F
:100CE0009A600E0742BF9A6842F460429A609A681E
:100CF000A06822F0F00202439A60BCE762681F4BD2
:100D0000012A1DD11B6813F4003FA8D01B4EB36805
:100D100023F003031343B360FFF784FC41F28838E8
:100D20000746B368626803F00C03B3EB820FA4D0EC
:100D3000FFF778FCC01B4045F3D90320BDE8F081E4
:100D4000911E01291B6802D813F0007FDDE713F024
:100D5000020FDAE7EAB21A701B6803F00F039D4234
:100D60007FF47DAF8FE70549E0688B6823F4E0539B
:100D700003438B608AE700BF003C0240003802401A
:100D8000B02E000808000020044B054A9B68C3F3FE
:100D90008223D35C034A1068D84070470038024071
:100DA000C02E000808000020044B054A9B68C3F3CE
:100DB0004233D35C034A1068D84070470038024081
:100DC000C02E0008080000200368DA6822F4907240
:100DD000DA605A6922F001025A61202380F83A3021
:100DE000704700002DE9F0470668C2683369C169A1
:100DF00023F4405313433361044683680069F26867
:100E00000343606922F41642034322F00C020B43B1
:100E10001343F3607369A26923F440731343B1F57C
:100E2000004F73617A4B7CD19E4203D003F58063FF
:100E30009E4244D1FFF7B8FF192505FB00F3606817
:100E40004FF064094000B3FBF0F3B3FBF9F34FEA52
:100E50000318FFF7A9FF636868435B00B0FBF3F773
:100E6000FFF7A2FF636868435B00B0FBF3F3B3FBDB
:100E7000F9F309FB1373DB003233B3FBF9F35B00C7
:100E800003F4F877FFF790FF626868435200B0FB05
:100E9000F2FAFFF789FF636868435B00B0FBF3F386
:100EA000B3FBF9F309FB13A3DB003233B3FBF9F314
:100EB00003F0070343443B44B360BDE8F087FFF70A
:100EC00063FF192505FB00F360684FF064094000DB
:100ED000B3FBF0F3B3FBF9F34FEA0318FFF754FF4A
:100EE000636868435B00B0FBF3F7FFF74DFF63688F
:100EF00068435B00B0FBF3F3B3FBF9F309FB137337
:100F0000DB003233B3FBF9F35B0003F4F877FFF750
:100F10003BFF626868435200B0FBF2FAFFF734FF10
:100F2000B9E79E4202D03B4B9E4240D1FFF73CFFC7
:100F3000676819254FF0640905FB00F3BF00B3FB98
:100F4000F7F3B3FBF9F31F01FFF72EFF6368684364
:100F50009B00B0FBF3F8FFF727FF636868439B0033
:100F6000B0FBF3F3B3FBF9F309FB13831B0132333B
:100F7000B3FBF9F303F0F008FFF716FF626868436C
:100F80009200B0FBF2FAFFF70FFF636868439B0023
:100F9000B0FBF3F3B3FBF9F309FB13A31B013233EB
:100FA000B3FBF9F303F00F0343EA080383E7FFF70A
:100FB000EBFE676819254FF0640905FB00F3BF00DD
:100FC000B3FBF7F3B3FBF9F31F01FFF7DDFE636833
:100FD00068439B00B0FBF3F8FFF7D6FE63686843F5
:100FE0009B00B0FBF3F3B3FBF9F309FB13831B0185
:100FF0003233B3FBF9F303F0F008FFF7C5FE626884
:1010000068439200B0FBF2FAFFF7BEFEBDE700BFF7
:101010000010014000140140F8B504460E46174682
:101020001D4621680B6836EA030301D10020F8BD94
:101030006B1CF7D095B92368DA6822F4D072DA60B5
:101040005A6922F001025A61202384F8393084F869
:101050003A30002384F838300320F8BDFFF7E2FA75
:10106000C01B8542DDD2E6E710B5044640B390F8D8
:10107000393003F0FF021BB980F8382000F0C0FCC3
:101080002268242384F83930D36823F40053D360D2
:101090002046FFF7A7FE23681A6922F490421A61DE
:1010A0005A6922F02A025A61DA6842F40052DA6080
:1010B00000202023E06384F8393084F83A3010BDF2
:1010C000012010BD2DE9F0411F4690F83930202B4A
:1010D00004460D4690464FD100294AD0002A48D0F8
:1010E00090F83830012B47D0012380F838300023A6
:1010F000C363212380F83930FFF794FAA4F82480E1
:101100000646A4F82680E38C9BB26BB93B46324678
:1011100040212046FFF780FFB0B9202384F8393002
:1011200084F83800BDE8F081E38C013B9BB2E38496
:10113000A368B3F5805F32463B464FF080012046FE
:101140000ED1FFF769FF10B10320BDE8F0812B88B5
:101150002268C3F308035360236943B90235D2E719
:10116000FFF75AFF0028EFD123682A785A6001352B
:10117000C9E70120BDE8F0810220BDE8F08190F8C8
:101180003A30202B20D1E9B1E2B190F83830012B70
:101190001AD0C285828500232222C36380F83A20B8
:1011A00002688162D16880F8383041F48071D16082
:1011B000516941F001015161D16841F02001D160D4
:1011C00018467047012070470220704770477047EB
:1011D00090F83A30222B10B536D183680169026845
:1011E000B3F5805F836A23D15268E9B9C2F308027C
:1011F00023F8022B8362C48D013CA4B2C4858CB950
:101200000368DA6822F02002DA60DA6822F4807279
:10121000DA605A6922F001025A61202380F83A30DC
:10122000FFF7D5FF002010BDD2B223F8012BE1E774
:1012300021B9591C526881621A70DCE75268591C46
:10124000816202F07F02F7E7022010BD70470000C4
:1012500003681A68D96870B5160704465D6907D136
:1012600096065AD58D0658D5BDE87040FFF7B0BF39
:1012700015F0010502D111F4907F4ED0D30705D5AA
:10128000CE0542BFE36B43F00103E363500704D58F
:101290001DB1E36B43F00203E363930704D51DB173
:1012A000E36B43F00403E363160704D51DB1E36B5E
:1012B00043F00803E363E36B002B66D0950604D587
:1012C000880602D52046FFF783FF23685D69E26B3D
:1012D0001107204602D415F040051AD0FFF774FD1F
:1012E00023685A69520610D55A69606B22F0400291
:1012F0005A6150B1254B0365FFF704FA002844D02A
:10130000606BBDE87040036D18472046FFF79EFFF5
:1013100070BDFFF79BFFE56370BD160627D50D0670
:1013200025D594F83920212A2FD1A268B2F5805F03
:10133000226A17D11188C1F308015960216979B96E
:1013400002322262E28C013A92B2E284EAB9DA68AD
:1013500022F08002DA60DA6842F04002DA6070BDA2
:101360000132EEE7511C216212785A60EAE750061A
:101370000BD54A0609D5DA6822F04002DA6020234C
:1013800084F839302046FFF721FF70BD9113000823
:1013900008B5806B0023C385C384FFF757FF08BDE2
:1013A0002DE9F0418CB01422002107A800F0F0FBD9
:1013B00000243E4B01941A6BDFF800813C4E3D4FF8
:1013C00042F010021A631A6B02F010020192019AA5
:1013D00002941A6B42F004021A631A6B02F00402C0
:1013E0000292029A03941A6B42F020021A631A6B5B
:1013F00002F020020392039A04941A6B42F08002D6
:101400001A631A6B02F080020492049A05941A6B14
:1014100042F040021A631A6B02F040020592059AEC
:1014200006941A6B42F001021A631B6B03F001036E
:101430000693404601222021069BFFF755FA2246DB
:1014400030464FF4E071FFF74FFA012238464FF46F
:101450008071FFF749FA0125202307A94046079329
:10146000089509940A94FFF75FF94FF4E07307A910
:1014700030460793089509940A94FFF755F94FF4FD
:101480000073079307A90C4B089330460995FFF7A3
:101490004BF94FF4807307A93846079308950994D0
:1014A0000A94FFF741F90CB0BDE8F0810038024022
:1014B0000014024000180240000011100010024009
:1014C0001FB50A28019009D104A90D2341F8043D54
:1014D00001224FF6FF730748FFF7F4FD4FF6FF7345
:1014E000012201A90348FFF7EDFD019805B05DF861
:1014F00004FB00BF5817002070B594B030220021C3
:1015000008A800F045FB0021142203A800F040FBCE
:1015100000241C4B01941A6C42F080521A641B6C1C
:1015200003F080530193019B174B02941A6842F415
:1015300080421A601B6803F480430293029B4FF4BD
:10154000803309934FF480030F9319231093C02322
:1015500002250126119308A80423139308960E95DB
:101560001295FFF7C7F90F230393802305933146A4
:101570004FF4805303A8049506930794FFF76AFB82
:1015800014B070BD003802400070004008B5FFF78D
:1015900023F8FFF7B1FFFFF703FF00F0F9F900F0C0
:1015A00013FA642212491348134CFFF7E8FD642232
:1015B00012491348FFF7E3FD012220211148FFF7EC
:1015C00093F901224FF480710F48FFF78DF90F480E
:1015D00000F06EFB4FF6FF7304220D490848FFF739
:1015E00071FD204600F064FB00F0BAF8F9E700BF97
:1015F0001401002058170020A42E0008B00000207D
:10160000981700200010024000180240982E000891
:101610009F2E00087047000007B5104B0022009273
:10162000596C41F480415964596C01F48041009136
:1016300000990192196C41F0805119641B6C03F000
:101640008053019311460520019BFFF703F8052005
:10165000FFF734F803B05DF804FB00BF0038024028
:101660007047FEE7FEE7FEE7FEE77047704770470A
:10167000FEF7CCBF704700000148FFF7E9BD00BF8F
:10168000581700200148FFF7E3BD00BF981700205E
:1016900070B50E4615460C46A31B9D4201DC28463C
:1016A00070BDAFF3008004F8010BF5E770B50E468E
:1016B00015460C46A31B9D4201DC284670BD14F85C
:1016C000010BFFF7FDFEF5E708B50A4B1968024666
:1016D00009B9094919601868694602448A4206D95D
:1016E00000F02CFA0C2303604FF0FF3008BD1A60A5
:1016F00008BD00BF90000020DC1700204FF0FF3035
:1017000070474FF400534B60002070470120704732
:10171000002070470F49D1F8883043F47003C1F8B6
:1017200088300D4B1A68002042F001021A60986060
:101730001A6822F0847222F480321A60074A5A60D2
:101740001A6822F480221A60D8604FF000638B6020
:10175000704700BF00ED00E0003802401030002468
:101760002DE9F0434E484F4FDFF86C91B3B000F0D5
:101770009FFA012220214C48FFF7B6F8B8463B7883
:10178000012B17D1484600F093FA484800F090FA30
:10179000474800F08DFA474800F08AFA464800F0C2
:1017A00087FA434800F084FA444800F081FA404840
:1017B00000F07EFA002588F8005000F097F8012824
:1017C000DDD000F0BDF80122C4B240213C48FFF753
:1017D0008BF8002CD3D0012621463A4888F80060C7
:1017E00000F0DEF9322C36D0782C55D0312CC6D111
:1017F000324620212C48344C344E354DFFF774F8D6
:1018000000F0ACF8A8B100F071F80028F8D100F0B1
:1018100079F800F095F82146C2B2684600F050FA17
:101820006846FEF7D5FC4FF6FF7382B2694628463C
:101830000EE000F09FF82146C2B219A800F040FA6D
:1018400019A8FEF7C5FC4FF6FF7382B219A93046FE
:10185000FFF738FCD4E72A46202113481A4CFFF73B
:1018600043F82A464FF480711A48FFF73DF800F01C
:1018700075F858B100F03AF80028F8D100F060F897
:101880002146C2B2684600F01BFAF0E700F072F899
:10189000C0B200F09DF9EAE733B0BDE8F08300BFC5
:1018A000C82E00080C00002000100240E92E00089D
:1018B000D32E0008F82E0008062F0008142F000869
:1018C000001402401C2F00082C2F0008581700207D
:1018D0009817002000180240D22E00080368013338
:1018E000B3F57A7F08BF002303607047034B186885
:1018F000034B1B68C31A5842584170479C00002094
:10190000A0000020F8B50A4B0A4D1C680A4E0B4F88
:101910002B689C4204D30A20BDE8F84000F058B977
:1019200036F81410384600F03BF90134F0E700BFF8
:10193000A00000209C000020880F00202F2F00080E
:10194000044808B50268044B33F81220FFF7C6FFBD
:10195000104608BDA0000020880F0020034B186827
:10196000034B1B68C31A584258417047940000202B
:1019700098000020044808B50268044B33F8122090
:10198000FFF7ACFF104608BD98000020B807002004
:1019900008B50B480B4B4FF4E13E80E808400C22A1
:1019A00000238360C360036142618361C361FFF709
:1019B0005BFB18B1BDE80840FFF72CBE08BD00BFB7
:1019C000581700200010014008B50B480B4B4FF48E
:1019D000165E80E808400C2200238360C360036128
:1019E00042618361C361FFF73FFB18B1BDE8084066
:1019F000FFF710BE08BD00BF98170020001401407B
:101A000010B514228AB0044600210DEB020000F04C
:101A1000BFF823682F4A93422ED12F4B2F48002422
:101A200001945A6C42F010025A645A6C02F010028F
:101A30000192019A02941A6B42F001021A631B6B25
:101A400003F001030293029B4FF4C063059302234A
:101A50000693012307930323089305A907230993FA
:101A6000FEF762FE252022462146FEF7F3FD2520E3
:101A7000FEF724FE0AB010BD194A9342FAD1164B64
:101A80001848002403945A6C42F020025A645A6C9D
:101A900002F020020392039A04941A6B42F00402AB
:101AA0001A631B6B03F004030493049BC023059388
:101AB00002230693012307930323089305A9082310
:101AC0000993FEF731FE472022462146FEF7C2FD6C
:101AD0004720CDE7001001400038024000000240DE
:101AE0000014014000080240DFF834D0002103E078
:101AF0000C4B5B58435004310B480C4B42189A4234
:101B0000F6D30B4A02E0002342F8043B094B9A4209
:101B1000F9D3FFF7FFFD00F017F8FFF737FD704727
:101B200000000220DC2F00080000002074000020CC
:101B300074000020DC170020FEE70000014B18684D
:101B4000704700BF1000002070B50D4E0D4CA41B57
:101B5000A4100025A54209D10B4E0C4C01F090F9C0
:101B6000A41BA4100025A54205D170BD56F8253050
:101B700098470135EEE756F8253098470135F2E7EA
:101B8000D42F0008D42F0008D42F0008D82F000825
:101B900002440346934200D1704703F8011BF9E762
:101BA0000FB40A4B13B51C6824B1A36913B92046BE
:101BB00000F05CFA05AB049AA1680193204600F09E
:101BC00069FD02B0BDE8104004B07047100000206D
:101BD00038B5084B1C68054624B1A36913B92046E3
:101BE00000F044FAA26829462046BDE8384000F0DB
:101BF000FDBF00BF1000002070B50E46054618B1AD
:101C000083690BB900F032FAAB69AC6813B92846A6
:101C100000F02CFA234B9C4217D16C68A3891B0758
:101C20001DD52369DBB1013EA36816F8011F013BF6
:101C3000A360E9B9002B2EDA22460A21284600F0DB
:101C400063F8013011D00A2070BD174B9C4201D1BE
:101C5000AC68E3E7154B9C4208BFEC68DEE7214621
:101C6000284600F0A3F80028DDD04FF0FF3070BD0B
:101C7000002B04DAA269934206DB0A2904D0236808
:101C80005A1C22601970CFE72246284600F03CF823
:101C90000130C9D1E9E723680A205A1C2260187074
:101CA00070BD00BF582F0008782F0008382F00089B
:101CB000024B01461868FFF79FBF00BF10000020CD
:101CC0000EB400B59CB04FF402711DABADF814100A
:101CD000029006906FF000410A48049107914FF678
:101CE000FF7153F8042BADF816100068019302A998
:101CF00000F0B2FB029B00221A701CB05DF804EBEE
:101D000003B0704710000020F8B50E461446054693
:101D100018B183690BB900F0A9F9214B9C422AD173
:101D20006C68A369A360A3891A072ED5236963B3DE
:101D300023692068C01A6369F6B29842374604DB0B
:101D40002146284600F028F928BBA368013BA36080
:101D500023685A1C22601E7063690130984204D0C7
:101D6000A389DB0719D50A2E17D12146284600F092
:101D700013F990B10FE00B4B9C4201D1AC68D0E756
:101D8000094B9C4208BFEC68CBE72146284600F08F
:101D90000DF80028CCD04FF0FF373846F8BD00BF13
:101DA000582F0008782F0008382F0008324B70B5E4
:101DB0001D6806460C4625B1AB6913B9284600F0EC
:101DC00055F92E4B9C420FD16C68B4F90C309AB285
:101DD00015072CD4D00611D40922326043F04003F9
:101DE000A3814FF0FF3070BD254B9C4201D1AC6800
:101DF000EBE7244B9C4208BFEC68E6E7510712D59D
:101E0000616B41B104F14403994202D0304600F0C5
:101E10001BFA00236363A38923F02403A381002317
:101E2000636023692360A38943F00803A3812369C6
:101E30004BB9A38903F42073B3F5007F03D0214687
:101E4000304600F0C1F9A28912F001030CD0002342
:101E5000A36063695B42A361236953B9B4F90C3091
:101E600013F08000BAD170BD920758BF6369A360B8
:101E7000F2E70020F7E700BF10000020582F00080D
:101E8000782F0008382F00088A892DE9F04105468F
:101E900010070C465AD44B68002B05DC0B6C002B4A
:101EA00002DC0020BDE8F081E66A002EF9D00023B4
:101EB00012F480522F682B6033D0606DA3895A07CB
:101EC00005D56368C01A636B0BB1236CC01A00237D
:101ED0000246E66A216A2846B047431CA38906D118
:101EE00029681D294BD82B4ACA40D60747D500225E
:101EF0006260D9042269226004D5421C01D12B689A
:101F000003B96065616B2F600029CAD004F14403F6
:101F1000994202D0284600F097F900206063BDE89E
:101F2000F081216A01232846B047411CC6D12B68A5
:101F3000002BC3D01D2B01D0162B01D12F60B0E791
:101F4000A38943F04003A381BDE8F0810F69002F0E
:101F5000A7D093070E6808BF4B690F6018BF002316
:101F6000A6EB07088B60B8F1000F9ADD43463A46AE
:101F7000216AA66A2846B047002807DCA38943F0F7
:101F80004003A3814FF0FF30BDE8F0810744A8EB88
:101F90000008E8E70100402038B50B6905460C460B
:101FA000DBB118B183690BB900F060F80C4B9C42AF
:101FB00009D16C68B4F90C307BB121462846BDE8E4
:101FC0003840FFF761BF074B9C4201D1AC68F1E795
:101FD000054B9C4208BFEC68ECE7002038BD00BF11
:101FE000582F0008782F0008382F0008014900F00A
:101FF000A9B800BF991F0008002310B5044603606C
:102000004360836081814366C28103614361836170
:10201000194608225C30FFF7BBFD054B6362054B98
:10202000A362054BE362054B2462236310BD00BF2E
:10203000792C00089B2C0008D32C0008F72C0008F2
:1020400070B54A1E682555430E4605F1740100F02F
:1020500049F9044640B1002180E842000C30A060FC
:1020600005F16802FFF794FD204670BD836910B545
:10207000044633BB8364C3640365124B124A1B6876
:102080008262984204BF0123836100F01FF8606000
:10209000204600F01BF8A060204600F017F8002250
:1020A000E06004216068FFF7A7FF01220921A06812
:1020B000FFF7A2FF02221221E068FFF79DFF012334
:1020C000A36110BD342F0008ED1F0008F8B51C4BAC
:1020D0001E68B369074613B93046FFF7C7FF483695
:1020E000B4687368013B03D5336833B13668F7E7EA
:1020F000B4F90C506DB16834F4E704213846FFF7A9
:102100009FFF30600028F1D10C233B60044620463D
:10211000F8BD4FF6FF73E3810123A3816566256057
:10212000A560656025616561A5610822294604F105
:102130005C00FFF72DFD6563A563A564E564E6E734
:10214000342F00082DE9F8438046894600F1480401
:10215000002614B93046BDE8F883A5686768013FDA
:1021600001D52468F5E7AB89012B07D9B5F90E3005
:10217000013303D029464046C84706436835EEE799
:1021800070B50E46B1F90E10002990B014461D46E8
:1021900007DA00232B60B3891A0610D44FF480634A
:1021A0000EE001AA00F0CEFD0028F2DB029A02F454
:1021B0007042A2F500535A425A412A60EEE740238A
:1021C0000020236010B070BD8B8973B59D07064653
:1021D0000C4607D504F147032360236101236361A3
:1021E00002B070BD01AB6A46FFF7CAFF0099054611
:1021F000304600F077F848B9B4F90C309A05EFD4BE
:1022000023F0030343F00203A381E3E70D4BB36222
:10221000A389206043F08003A381009B6361019B3D
:1022200020615BB1B4F90E10304600F09DFD28B17D
:10223000A38923F0030343F00103A381A3891D4372
:10224000A581CDE7ED1F000838B50546002945D02A
:1022500051F8043C0C1F002BB8BFE41800F0CBFD74
:102260001F4A1368104633B9636014602846BDE8FE
:10227000384000F0C1BDA3420CD9216862189342D6
:1022800004BF1A685B68636004BF52182260046070
:10229000ECE713465A680AB1A242FAD919685818ED
:1022A000A0420BD120680144581882421960DDD148
:1022B000106852685A6001441960D7E702D90C23AC
:1022C0002B60D3E7206821188A4204BF1168526846
:1022D000626004BF091821605C60C7E738BD00BFB9
:1022E000A400002070B5CD1C25F0030508350C2D89
:1022F00038BF0C25002D064601DBA94203D90C236B
:102300003360002070BD00F076FD234A146821463A
:1023100091B9224C23681BB9304600F09DFC206027
:102320002946304600F098FC431C26D10C2333602C
:10233000304600F061FDE4E70B685B1B1AD40B2B01
:102340000FD90B60CD50CC18304600F055FD04F18C
:102350000B00231D20F00700C31A1BD05A42E25085
:1023600070BD8C420DBF63684B686360136018BF1B
:102370000C46E9E70C464968CAE7C41C24F003048C
:10238000A04205D0211A304600F066FC0130CDD0C5
:102390002560D9E770BD00BFA4000020A800002080
:1023A0002DE9F0478E689E4282460C46914698463B
:1023B00035D88A8912F4906F31D0256809696F1A6F
:1023C0006569022305EB450595FBF3F508F101036B
:1023D0003B449D4238BF1D46530531D52946FFF782
:1023E00081FF064650B90C23CAF80030A38943F098
:1023F0004003A3814FF0FF30BDE8F0873A462169E2
:1024000000F0D4FCA38923F4906343F08003A381FC
:10241000266165613E44ED1B2660A5604646464543
:1024200028BF464632464946206800F0CAFCA368E9
:102430009B1BA36023681E4426600020BDE8F08734
:102440002A4600F0DAFC06460028E1D12169504610
:10245000FFF7FAFEC7E700002DE9F04F9DB0804678
:1024600003938B891C060D4616460FD50B696BB975
:102470004021FFF737FF2860286128B90C23C8F8EE
:1024800000304FF0FF30C5E040236B61002309931B
:1024900020238DF8293030238DF82A304FF0010B9E
:1024A00037463C4614F8013B002B3CD1B7EB060AFB
:1024B0000BD05346324629464046FFF771FF0130A4
:1024C00000F0A380099B534409933B78002B00F054
:1024D0009C8000234FF0FF320493079305920693EC
:1024E0008DF853301A93052221785048FDF778FE75
:1024F000671C049BD8B9D90644BF20228DF853200D
:102500001A0744BF2B228DF8532022782A2A16D08E
:10251000079A00210A20274601343B78303B092BDB
:1025200051D9C9B111E0252BC0D02746B9E73F4AA0
:10253000801A0BFA00F0184304903C46D3E7039A44
:10254000111D12680391002A01DB079204E0524238
:1025500043F00203079204933B782E2B0ED17B7835
:102560002A2B07F1010132D1039B1A1D1B6803922C
:10257000002BB8BF4FF0FF33023705932C4C39784E
:1025800003222046FDF72CFE38B14023001B03FA3E
:1025900000F0049B034304930137397825488DF8F4
:1025A000281006227E1CFDF71BFE002835D0224B8A
:1025B000FBB9039B073323F0070308330393099BFD
:1025C0004B4409936CE700FB02320121A3E700238F
:1025D000059318460A240F4601313A78303A092A01
:1025E00003D9002BCAD00590C8E704FB00200123C3
:1025F000F1E703AB00932A46104B04A94046AFF322
:102600000080B0F1FF3F8146D9D1AB895B063FF531
:1026100038AF09981DB0BDE8F08F03AB00932A4690
:10262000064B04A9404600F0C1F9EAE7982F0008DC
:102630009E2F0008A22F000800000000A123000820
:102640009368013B002B10B4936009DA9469A342AC
:1026500002DBCBB20A2B03D15DF8044BFFF754BB6E
:102660001368581C10601970C8B25DF8044B7047AD
:10267000F8B506460F461446D518AC4201D10020E5
:1026800007E03A4614F8011B3046FFF7D9FF431C18
:10269000F3D1F8BD2DE9F04F9DB00C4617460393DA
:1026A000064618B183690BB9FFF7E0FC7C4B9C42EE
:1026B00057D17468A38918075DD52369002B5AD0B8
:1026C0000023099320238DF8293030238DF82A30F8
:1026D0004FF0010BB846454615F8013B002B55D18C
:1026E000B8EB070A0BD053463A4621463046FFF76F
:1026F000BFFF013000F0C480099B5344099398F850
:102700000030002B00F0BC8000234FF0FF32049318
:102710000793059206938DF853301A930522297872
:102720006048FDF75DFD05F10108049B002831D1EB
:10273000D90644BF20228DF853201A0744BF2B220C
:102740008DF853202A782A2A2CD0079A00210A20B3
:10275000A846013598F80030303B092B6DD971B38C
:1027600026E0514B9C4201D1B468A3E74F4B9C42F9
:1027700008BFF4689EE721463046FFF717FB0028A4
:102780009ED04FF0FF301DB0BDE8F08F252BA7D0B5
:10279000A846A0E7434A801A0BFA00F018430490B9
:1027A0004546BBE7039A111D12680391002A01DB1D
:1027B000079204E0524243F002030792049398F810
:1027C00000302E2B10D198F801302A2B08F101018E
:1027D00037D1039B1A1D1B680392002BB8BF4FF023
:1027E000FF3308F102080593314D98F800100322D9
:1027F0002846FDF7F5FC40B14023401B03FA00F0EA
:10280000049B0343049308F1010898F80010294839
:102810008DF82810062208F10107FDF7E1FC0028D9
:1028200034D0254B03BB039B073323F00703083346
:102830000393099B4B4409934CE700FB02320121AF
:1028400086E70023059318460A258846013198F843
:102850000020303A092A03D9002BC5D00590C3E7E0
:1028600005FB00200123F0E703AB00932246134B46
:1028700004A93046AFF30080B0F1FF3F8146D8D1C4
:10288000A3895B063FF57DAF09987CE703AB009316
:1028900022460A4B04A9304600F088F8ECE700BF56
:1028A000582F0008982F0008782F0008382F0008AC
:1028B0009E2F0008A22F00080000000071260008CB
:1028C0002DE9F04791461F468A680B69DDF82080A4
:1028D0009342B8BF1346C9F8003091F8432006462A
:1028E0000C4612B10133C9F800302368990642BF83
:1028F000D9F800300233C9F80030256815F0060514
:1029000007D104F1190AE368D9F800209B1A9D4207
:1029100029DB94F843302268003318BF0123920664
:102920002ED404F1430239463046C047013021D04D
:102930002368E568D9F8002003F00603042B08BFDC
:10294000AD1AA36822690CBF25EAE57500259342FC
:10295000C4BF9B1AED184FF000091A344D451BD126
:102960000020BDE8F0870123524639463046C04773
:10297000013003D14FF0FF30BDE8F0870135C2E7E9
:10298000E1185A1C302081F84300224494F8451085
:1029900082F843100233C4E7012322463946304609
:1029A000C0470130E6D009F10109D7E72DE9F0432E
:1029B00017460A7E85B06E2A984606460C460C9B42
:1029C00001F1430E00F0BC801AD8632A2ED00AD839
:1029D000002A00F0C880582A00F08A8004F14205DD
:1029E00084F842202AE0642A01D0692AF6D12168BD
:1029F0001A6811F0800F23D0111D1960136827E0A9
:102A0000732A00F0B48008D86F2A2AD0702AE5D142
:102A10000A6842F020020A6003E0752A21D0782A71
:102A2000DCD1782284F845206E4964E01A6801F10F
:102A30004205111D1960136884F842300123A3E098
:102A400011F0400F02F104011960D7D0B2F9003043
:102A5000002B03DA2D225B4284F8432062490A22CC
:102A600017E02068196810F0800F03D0081D186067
:102A70000B6806E010F0400F01F104001860F7D079
:102A80000B8859496F2A14BF0A220822002084F8B3
:102A900043006568A560002DC0F29C80206820F08E
:102AA00004002060002B3FD1002D40F0958075463A
:102AB000082A0BD12368DA0708D5236962689A428D
:102AC000DEBF302305F8013C05F1FF35AEEB050311
:102AD0002361CDF800803B4603AA21463046FFF72C
:102AE000EFFE013055D14FF0FF3005B0BDE8F08367
:102AF00081F845203C492268186812F0800F00F1E7
:102B000004051D6001D0036802E05506FBD503886B
:102B1000D00744BF42F0200222601BB9226822F095
:102B2000200222601022B1E77546B3FBF2F002FBEF
:102B30001033CB5C05F8013D03460028F5D1B7E71B
:102B400008681A68496910F0800F04D0101D1860D9
:102B50001368196007E010F0400F02F104001860DC
:102B60001368F6D01980002323617546B1E71A680F
:102B7000111D19601568626800212846FDF730FBB9
:102B800008B1401B606063682361002384F8433010
:102B90009FE723692A4639463046C0470130A2D014
:102BA00023689B0707D5002504F11909E368039AF8
:102BB0009B1A9D4205DBE068039B9842B8BF18460C
:102BC00093E701234A4639463046C04701308AD050
:102BD0000135EBE7002BA7D10B7884F8423004F1E4
:102BE000420565E7BA2F0008A92F000870B50D4609
:102BF0001446064618B183690BB9FFF737FA134B31
:102C00009C4212D17468A368013B002BA36016DAC2
:102C1000A269934202DBEBB20A2B10D1224629466D
:102C20003046BDE87040FFF76FB8094B9C4201D1B8
:102C3000B468E8E7074B9C4208BFF468E3E7236801
:102C40005A1C22601D70E8B270BD00BF582F0008EA
:102C5000782F0008382F000838B5064C00230546A9
:102C600008462360FEF730FD431C02D1236803B100
:102C70002B6038BDD817002010B50C46B1F90E10E6
:102C800000F0E2F80028ABBF636DA3891B1823F4A2
:102C90008053ACBF6365A38110BD2DE9F0411F4691
:102CA0008B89DB0505460C46164605D50223002216
:102CB000B1F90E1000F068F8A389B4F90E1023F4EE
:102CC0008053A38132463B462846BDE8F04100F0E0
:102CD00017B810B50C46B1F90E1000F055F8431CAA
:102CE000A38915BF606523F4805343F48053A38107
:102CF00018BFA38110BDB1F90E1000F013B8000089
:102D000038B5074C054608461146002222601A468F
:102D1000FEF7CCFC431C02D1236803B12B6038BD05
:102D2000D817002038B5064C002305460846236016
:102D3000FEF7E4FC431C02D1236803B12B6038BDCD
:102D4000D817002038B5074C002305460846114621
:102D50002360FEF7D6FC431C02D1236803B12B602D
:102D600038BD00BFD817002038B5064C00230546F3
:102D700008462360FEF7CAFC431C02D1236803B156
:102D80002B6038BDD817002038B5074C05460846DB
:102D90001146002222601A46FEF7BAFC431C02D1FB
:102DA000236803B12B6038BDD817002010B5431E2F
:102DB0000A44914200D110BD11F8014B03F8014FB4
:102DC000F7E7884210B501EB020303D8421E99428F
:102DD0000CD110BD9842F9D28118D21AD34200D139
:102DE00010BD13F8014D01F8014DF7E711F8014B43
:102DF00002F8014FEBE770477047F8B507461446F5
:102E00000E4621B91146BDE8F840FFF76BBA22B96A
:102E1000FFF71AFA25462846F8BD00F027F8844245
:102E20000FD921463846FFF75DFA05460028F2D053
:102E300031462246FFF7BAFF31463846FFF704FA1B
:102E4000E9E73546E7E7000038B5074C0546084690
:102E50001146002222601A46FEF71AFC431C02D1DA
:102E6000236803B12B6038BDD817002051F8040C3B
:102E70000028A0F10400BCBF0B58C0187047000028
:102E8000F8B500BFF8BC08BC9E467047F8B500BF57
:082E9000F8BC08BC9E46704727
:102E98007072696E74662074657374007365726904
:102EA800616C20746573740000000000000000006D
:102EB80001020304060708090000000001020304D8
:102EC800554152543654657374000A2D2D2D2D2DFD
:102ED8002D2D2D2D2D2D2D2D2D2D2D2D2D2D2D2D1A
:102EE800005072657373206D656E75206B6579008F
:102EF800313E205253323332205465737400323ECF
:102F0800205253343835205465737400783E206558
:102F18007869740025632069732073656C65637430
:102F280065640A0025630025642000001400002061
:102F38000000000000000000000000000000000089
:102F48000000000000000000000000000000000079
:102F58000000000000000000000000000000000069
:102F68000000000000000000000000000000000059
:102F78000000000000000000000000000000000049
:102F88000000000000000000000000000000000039
:102F9800232D302B2000686C4C006566674546473A
:102FA80000303132333435363738394142434445BD
:102FB800460030313233343536373839616263642C
:042FC800656600003A
:082FCC00E4D2FF7F01000000C8
:042FD400B50100083B
:042FD800910100085B
:102FDC0001000000100000000024F40001000000BB
:102FEC001400002000000000582F0008782F000863
:102FFC00382F000800000000000000000000000056
:10300C0000000000000000000000000000000000B4
:10301C0000000000000000000000000000000000A4
:10302C000000000000000000000000000000000094
:10303C000000000000000000000000000000000084
:04304C000000000080
:0400000508001AE9EC
:00000001FF
