:020000040800F2
:1000000000000220D55000089148000893480008DD
:10001000954800089748000899480008000000002B
:100020000000000000000000000000009B480008E5
:100030009D480008000000009F480008A1480008F3
:1000400025510008255100082551000825510008B8
:1000500025510008A5480008255100082551000831
:100060002551000825510008255100082551000898
:100070002551000825510008255100082551000888
:100080002551000825510008A948000825510008FD
:100090002551000825510008255100082551000868
:1000A00025510008C148000825510008B54800083E
:1000B0002551000825510008C5480008D14800080E
:1000C000DD48000825510008255100082551000889
:1000D00025510008E948000825510008255100086D
:1000E0002551000825510008255100082551000818
:1000F0002551000825510008255100082551000808
:1001000025510008255100082551000825510008F7
:1001100025510008255100082551000825510008E7
:10012000F548000825510008255100082551000810
:1001300025510008255100082551000825510008C7
:1001400025510008255100082551000825510008B7
:1001500025510008255100082551000825510008A7
:100160002551000825510008255100082551000897
:100170002551000825510008255100080000000005
:0801800025510008255100087B
:1001900010B5054C237833B9044B13B10448AFF3C1
:1001A00000800123237010BDE0010020000000004A
:1001B000F884000808B5034B1BB103490348AFF3AB
:1001C000008008BD00000000E4010020F884000861
:1001D000034613F8012B002AFBD1181A0138704787
:1001E00001F0FF01102A2BDB10F0070F08D010F8E8
:1001F000013B013A8B422DD010F0070F42B3F6D1EC
:10020000F0B441EA012141EA014122F007047FF004
:1002100000070023F0E80256083C85EA010586EA5B
:10022000010685FA47F5A3FA87F586FA47F6A5FA97
:1002300087F68EB9EED1F0BC01F0FF0102F00702A3
:1002400032B110F8013B013A83EA010313B1F8D14E
:100250000020704701387047002D06BF354603382F
:10026000073815F0010F07D1013015F4807F02BF68
:10027000013015F4C03F0130F0BC0138704700BFB9
:1002800081F0004102E000BF83F0004330B54FEA47
:1002900041044FEA430594EA050F08BF90EA020FB4
:1002A0001FBF54EA000C55EA020C7FEA645C7FEA47
:1002B000655C00F0E2804FEA5454D4EB5555B8BF6A
:1002C0006D420CDD2C4480EA020281EA030382EADB
:1002D000000083EA010180EA020281EA0303362D6D
:1002E00088BF30BD11F0004F4FEA01314FF4801C40
:1002F0004CEA113102D0404261EB410113F0004F52
:100300004FEA03334CEA133302D0524263EB430308
:1003100094EA050F00F0A780A4F10104D5F1200EA6
:100320000DDB02FA0EFC22FA05F2801841F1000101
:1003300003FA0EF2801843FA05F359410EE0A5F1D5
:1003400020050EF1200E012A03FA0EFC28BF4CF006
:10035000020C43FA05F3C01851EBE37101F00045BC
:1003600007D54FF0000EDCF1000C7EEB00006EEBC9
:100370000101B1F5801F1BD3B1F5001F0CD3490853
:100380005FEA30004FEA3C0C04F101044FEA4452AA
:1003900012F5800F80F09A80BCF1004F08BF5FEA31
:1003A000500C50F1000041EB045141EA050130BD11
:1003B0005FEA4C0C404141EB010111F4801FA4F1B4
:1003C0000104E9D191F0000F04BF01460020B1FA09
:1003D00081F308BF2033A3F10B03B3F120020CDA41
:1003E0000C3208DD02F1140CC2F10C0201FA0CF01F
:1003F00021FA02F10CE002F11402D8BFC2F1200C84
:1004000001FA02F120FA0CFCDCBF41EA0C01904039
:10041000E41AA2BF01EB0451294330BD6FEA040482
:100420001F3C1CDA0C340EDC04F11404C4F120026D
:1004300020FA04F001FA02F340EA030021FA04F37F
:1004400045EA030130BDC4F10C04C4F1200220FAD6
:1004500002F001FA04F340EA0300294630BD21FA14
:1004600004F0294630BD94F0000F83F4801306BFDA
:1004700081F480110134013D4EE77FEA645C18BFCE
:100480007FEA655C29D094EA050F08BF90EA020F65
:1004900005D054EA000C04BF1946104630BD91EA5D
:1004A000030F1EBF0021002030BD5FEA545C05D160
:1004B0004000494128BF41F0004130BD14F580049F
:1004C0003CBF01F5801130BD01F0004545F0FE4113
:1004D00041F470014FF0000030BD7FEA645C1ABF48
:1004E000194610467FEA655C1CBF0B46024650EA7F
:1004F000013406BF52EA033591EA030F41F40021AB
:1005000030BD00BF90F0000F04BF0021704730B530
:100510004FF4806404F132044FF000054FF0000105
:1005200050E700BF90F0000F04BF0021704730B5C6
:100530004FF4806404F1320410F0004548BF40429B
:100540004FF000013EE700BF42004FEAE2014FEAF0
:1005500031014FEA02701FBF12F07F4393F07F4FCB
:1005600081F06051704792F0000F14BF93F07F4FFD
:10057000704730B54FF4607401F0004521F0004140
:1005800020E700BF50EA010208BF704730B54FF0C6
:1005900000050AE050EA010208BF704730B511F0CB
:1005A000004502D5404261EB41014FF4806404F103
:1005B00032045FEA915C3FF4DCAE4FF003025FEA85
:1005C000DC0C18BF03325FEADC0C18BF033202EB0D
:1005D000DC02C2F1200300FA03FC20FA02F001FA67
:1005E00003FE40EA0E0021FA02F11444C1E600BF06
:1005F00070B54FF0FF0C4CF4E06C1CEA11541DBFB9
:100600001CEA135594EA0C0F95EA0C0F00F0DEF883
:100610002C4481EA030621EA4C5123EA4C5350EA68
:10062000013518BF52EA033541F4801143F48013B9
:1006300038D0A0FB02CE4FF00005E1FB02E506F04A
:100640000042E0FB03E54FF00006E1FB03569CF09F
:10065000000F18BF4EF0010EA4F1FF04B6F5007FA5
:1006600064F5407404D25FEA4E0E6D4146EB060617
:1006700042EAC62141EA55514FEAC52040EA5E50A0
:100680004FEACE2EB4F1FD0C88BFBCF5E06F1ED84A
:10069000BEF1004F08BF5FEA500E50F1000041EB81
:1006A000045170BD06F0004646EA010140EA02002E
:1006B00081EA0301B4EB5C04C2BFD4EB0C0541EA50
:1006C000045170BD41F480114FF0000E013C00F365
:1006D000AB8014F1360FDEBF002001F0004170BD89
:1006E000C4F10004203C35DA0C341BDC04F11404A2
:1006F000C4F1200500FA05F320FA04F001FA05F22E
:1007000040EA020001F0004221F0004110EBD370FA
:1007100021FA04F642EB06015EEA430E08BF20EA26
:10072000D37070BDC4F10C04C4F1200500FA04F3C9
:1007300020FA05F001FA04F240EA020001F000415B
:1007400010EBD37041F100015EEA430E08BF20EACE
:10075000D37070BDC4F1200500FA05F24EEA020E16
:1007600020FA04F301FA05F243EA020321FA04F045
:1007700001F0004121FA04F220EA020000EBD370FC
:100780005EEA430E08BF20EAD37070BD94F0000FFC
:100790000FD101F00046400041EB010111F4801F30
:1007A00008BF013CF7D041EA060195F0000F18BFE1
:1007B000704703F00046520043EB030313F4801F1D
:1007C00008BF013DF7D043EA0603704794EA0C0FD7
:1007D0000CEA135518BF95EA0C0F0CD050EA4106ED
:1007E00018BF52EA4306D1D181EA030101F000416A
:1007F0004FF0000070BD50EA410606BF1046194692
:1008000052EA430619D094EA0C0F02D150EA01369D
:1008100013D195EA0C0F05D152EA03361CBF1046DE
:1008200019460AD181EA030101F0004141F0FE417D
:1008300041F470014FF0000070BD41F0FE4141F401
:10084000780170BD70B54FF0FF0C4CF4E06C1CEA01
:1008500011541DBF1CEA135594EA0C0F95EA0C0FB6
:1008600000F0A7F8A4EB050481EA030E52EA033571
:100870004FEA013100F088804FEA03334FF0805592
:1008800045EA131343EA12634FEA022245EA1115BF
:1008900045EA10654FEA00260EF000419D4208BF70
:1008A000964244F1FD0404F5407402D25B084FEA1D
:1008B0003202B61A65EB03055B084FEA32024FF4C9
:1008C00080104FF4002CB6EB020E75EB030E22BF26
:1008D000B61A754640EA0C005B084FEA3202B6EBE6
:1008E000020E75EB030E22BFB61A754640EA5C0095
:1008F0005B084FEA3202B6EB020E75EB030E22BF25
:10090000B61A754640EA9C005B084FEA3202B6EB25
:10091000020E75EB030E22BFB61A754640EADC00E4
:1009200055EA060E18D04FEA051545EA16754FEA46
:1009300006164FEAC30343EA52734FEAC2025FEA64
:100940001C1CC0D111F4801F0BD141EA00014FF0F3
:1009500000004FF0004CB6E711F4801F04BF0143C4
:100960000020B4F1FD0C88BFBCF5E06F3FF6AFAEE0
:10097000B5EB030C04BFB6EB020C5FEA500C50F170
:10098000000041EB045170BD0EF0004E4EEA1131F3
:1009900014EB5C04C2BFD4EB0C0541EA045170BDFA
:1009A00041F480114FF0000E013C90E645EA060E3E
:1009B0008DE60CEA135594EA0C0F08BF95EA0C0F6C
:1009C0003FF43BAF94EA0C0F0AD150EA01347FF4B4
:1009D00034AF95EA0C0F7FF425AF104619462CE78B
:1009E00095EA0C0F06D152EA03353FF4FDAE1046EE
:1009F000194622E750EA410618BF52EA43067FF43F
:100A0000C5AE50EA41047FF40DAF52EA43057FF4CE
:100A1000EBAE12E74FF0FF3C06E000BF4FF0010CD9
:100A200002E000BF4FF0010C4DF804CD4FEA410C3D
:100A30007FEA6C5C4FEA430C18BF7FEA6C5C1BD00A
:100A400001B050EA410C0CBF52EA430C91EA030F8B
:100A500002BF90EA020F0020704710F1000F91EAE8
:100A6000030F58BF994208BF90422CBFD8176FEAB6
:100A7000E37040F0010070474FEA410C7FEA6C5C84
:100A800002D150EA013C07D14FEA430C7FEA6C5C8B
:100A9000D6D152EA033CD3D05DF8040B704700BFB7
:100AA0008446104662468C461946634600E000BF05
:100AB00001B5FFF7B7FF002848BF10F1000F01BDD7
:100AC0004DF808EDFFF7F4FF0CBF012000205DF8A2
:100AD00008FB00BF4DF808EDFFF7EAFF34BF012027
:100AE00000205DF808FB00BF4DF808EDFFF7E0FFC0
:100AF00094BF012000205DF808FB00BF4DF808ED11
:100B0000FFF7CEFF94BF012000205DF808FB00BF77
:100B10004DF808EDFFF7C4FF34BF012000205DF859
:100B200008FB00BF4FEA410C7FEA6C5C02D150EA3F
:100B3000013C0AD14FEA430C7FEA6C5C02D152EAD5
:100B4000033C02D14FF0000070474FF001007047A6
:100B50004FEA410212F5001215D211D56FF47873E5
:100B6000B3EB625212D94FEAC12343F0004343EA88
:100B7000505311F0004F23FA02F018BF4042704763
:100B80004FF00000704750EA013005D111F00040ED
:100B900008BF6FF0004070474FF00000704700BF83
:100BA0004FEA4102B2F1E04324BFB3F5001CDCF18F
:100BB000FE5C0DD901F0004C4FEAC0024CEA5070C7
:100BC000B2F1004F40EB830008BF20F001007047F6
:100BD00011F0804F21D113F13872BCBF01F00040F9
:100BE000704741F480114FEA5252C2F11802C2F12B
:100BF000200C10FA0CF320FA02F018BF40F00100AC
:100C00004FEAC1234FEAD32303FA0CFC40EA0C005D
:100C100023FA02F34FEA4303CCE77FEA625307D19A
:100C200050EA01331EBF4FF0FE4040F440007047D1
:100C300001F0004040F0FE4040F40000704700BF6B
:100C400053B94AB9002908BF00281CBF4FF0FF3133
:100C50004FF0FF3000F07AB9ADF1080C6DE904CE29
:100C600000F006F8DDF804E0DDE9022304B0704787
:100C70002DE9F0478C460D460446089E002B51D1C5
:100C80008A4217466DD9B2FA82FEBEF1000F0BD030
:100C9000CEF1200C01FA0EF520FA0CFC02FA0EF748
:100CA0004CEA050C00FA0EF44FEA174A250CBCFB7F
:100CB000FAF81FFA87F90AFB18CC45EA0C4508FB3D
:100CC00009F3AB420AD9ED1908F1FF3280F0238114
:100CD000AB4240F22081A8F102083D44ED1AA4B2D3
:100CE000B5FBFAF00AFB105544EA054400FB09F98C
:100CF000A14509D9E41900F1FF3380F00A81A1452B
:100D000040F2078102383C44A4EB090440EA084061
:100D10000021002E61D024FA0EF4002334607360A9
:100D2000BDE8F0878B4207D9002E54D0002186E819
:100D300021000846BDE8F087B3FA83F1002940F0AE
:100D40008E80AB4202D3824200F2FA80841A65EBB5
:100D500003050120AC46002E3FD086E81010BDE808
:100D6000F08712B90127B7FBF2F7B7FA87FEBEF199
:100D7000000F34D1EB1B3A0C1FFA87FC0121B3FBA7
:100D8000F2F8250C02FB183345EA03450CFB08F387
:100D9000AB4207D9ED1908F1FF3002D2AB4200F2A5
:100DA000D1808046ED1AA3B2B5FBF2F002FB1055DC
:100DB00043EA05440CFB00FCA44507D9E41900F103
:100DC000FF3302D2A44500F2B8801846A4EB0C040D
:100DD00040EA08409DE731463046BDE8F087CEF155
:100DE000200405FA0EF307FA0EF720FA04F83A0C7D
:100DF00025FA04F448EA0308B4FBF2F14FEA184577
:100E000002FB11441FFA87FC45EA044501FB0CF381
:100E1000AB4200FA0EF409D9ED1901F1FF3080F070
:100E20008A80AB4240F2878002393D44EB1A1FFAB8
:100E300088F5B3FBF2F002FB103345EA034500FBF3
:100E40000CF3AB4207D9ED1900F1FF386FD2AB427A
:100E50006DD902383D44EB1A40EA01418FE7C1F1F8
:100E6000200722FA07F88B4005FA01F448EA030349
:100E700020FA07FE4FEA134CFD404EEA040EB5FB84
:100E8000FCF94FEA1E440CFB19551FFA83F844EA9B
:100E9000054509FB08F4AC4202FA01F200FA01FA36
:100EA00008D9ED1809F1FF3043D2AC4241D9A9F17C
:100EB00002091D442D1B1FFA8EFEB5FBFCF00CFB36
:100EC00010554EEA054400FB08F8A04507D9E41880
:100ED00000F1FF3529D2A04527D902381C4440EA49
:100EE0000940A4EB0804A0FB02894C45C6464D46C8
:100EF00015D312D056B1BAEB0E0364EB050404FA15
:100F000007F7CB401F43CC40376074600021BDE839
:100F1000F0871846F8E69046E0E6C245EAD2B8EB1C
:100F2000020E69EB03050138E4E72846D7E740469F
:100F300091E78146BEE7014678E702383C4445E741
:100F4000084608E7A8F102083D442BE7704700BFB8
:100F500038B50E4A0E4B054618784FF47A73B3FB3A
:100F6000F0F31068B0FBF3F000F0E6FA044658B96D
:100F70000F2D09D8024629464FF0FF3000F09AFAAB
:100F8000044B20461D6038BD012038BD08000020FC
:100F9000000000200400002008B50B4B1A6842F442
:100FA00000721A601A6842F480621A601A6842F489
:100FB00080721A60032000F06BFA0020FFF7C8FF70
:100FC00003F042FC002008BD003C0240034A044BF1
:100FD00011681B780B441360704700BF08020020A3
:100FE00000000020014B1868704700BF0802002075
:100FF00038B50446002800F09B80056C25B903F045
:10100000B5F9656484F83C50236CDB0600F18E80F2
:10101000236C23F4885323F0020343F00203236478
:10102000444B5A6822F440325A605A6861680A4355
:101030005A60236821695A6822F480725A605A689B
:1010400042EA01225A605A68A16822F040725A604E
:101050005A680A435A609A68E16822F400629A600A
:101060009A680A439A603449A26A8A4252D09968BF
:1010700021F07061996099680A439A609A68E16A00
:1010800022F040529A609A680A439A609A68217ED8
:1010900022F002029A609A6842EA41029A6094F849
:1010A0002020002A3ED05A68616A42F400625A60E9
:1010B0005A6822F460425A605A68013942EA413261
:1010C0005A60DA6AE16922F47002DA62DA6A013996
:1010D00042EA0152DA629A6894F8301022F40072FF
:1010E0009A609A6842EA41229A609A68616922F499
:1010F00080629A609A68002042EA81229A60606465
:10110000236C23F0030343F001032364002384F8DA
:101110003C3038BD9A6822F070629A609A6822F07A
:101120004052B2E75A6822F40062C9E70120EDE7B5
:10113000012038BD002301400100000F82B00023D0
:10114000019390F83C30012B67D0012380F83C30AC
:1011500003689A68D10705D59A68D20714D400208D
:1011600002B070479A682E4942F001029A602D4AF7
:101170001268B2FBF1F202EB42020192019A002ADC
:10118000EAD0019A013AF8E7026C22F4E06222F018
:10119000010242F4807202645A68510541BF026C38
:1011A00022F4405242F480520264026C12F48052E3
:1011B0001CBF426C22F006024264002280F83C20F0
:1011C0006FF022021A605A6842F0806242F02002F8
:1011D0005A60154A516811F01F0F14491AD18B42F9
:1011E00006D001F580718B420BD15268D206B6D180
:1011F000986810F04050B2D19A6842F080429A60EC
:10120000AEE70B498B42AAD1526802F01F020F2AA7
:10121000EED9A4E78B42A2D1EAE70220A0E700BF03
:1012200040420F0008000020002301400020014040
:10123000002201407047704738B5036819685A6842
:101240008D0704462BD5900629D5226CD1065EBFAA
:10125000226C42F4007222649A6812F0405F17D147
:10126000227EAAB9DA6A12F4700F02D09A68520587
:101270000ED45A6822F020025A60236C23F4807343
:101280002364236CDB045EBF236C43F001032364FF
:10129000204603F0C3F923686FF012021A60236836
:1012A00019685A684D0732D5100630D5226CD10620
:1012B0005EBF226C42F4005222649A6812F4401F0E
:1012C0001ED19A6B12F4401F02D09A68520517D4AF
:1012D0005A68550514D49A6812F0405F10D1227EE6
:1012E00072B95A6822F080025A60236C23F480534A
:1012F0002364236CD8055EBF236C43F00103236491
:10130000204600F0C3F823686FF00C021A602368CF
:1013100019685A68C9070FD555060DD51B68D80737
:101320000AD5236C43F4803323642046FFF782FF01
:1013300023686FF001021A60236819685A688906E9
:101340000DD552010BD5626C6FF0200542F0020200
:10135000626420461D60FFF76EFF23681D6038BD84
:10136000F7B50023019390F83C30012B00F0838007
:101370000D6804688A680123092D80F83C30AEB2FC
:101380002AD906EB4603E7681E3B4FF0070E0EFA1C
:1013900003FE27EA0E07E760E76802FA03F33B4320
:1013A000E3604A68062A4FEA820325D81344676B34
:1013B000591F1F238B4027EA03036363626B06FAFE
:1013C00001F1114361632D4B9C4234D0002380F81E
:1013D0003C30184603B0F0BD276905EB45034FF0DC
:1013E000070E0EFA03FE27EA0E072761276902FAA5
:1013F00003F33B432361D4E70C2A0ED81344216B3B
:10140000A3F123021F23934021EA03032363236BE9
:1014100006FA02F21A432263D5E71344E16A413B1C
:101420001F229A4021EA0202E262E26A06FA03F10E
:101430001143E162C7E7122D04D1114A536843F406
:1014400080035360A5F11003012BBFD80C4A5368E9
:10145000102D43F400035360B8D10A4B0A4A1B68AD
:10146000B3FBF2F20A2353430193019B002BADD04F
:10147000019B013BF8E70220ACE700BF00200140E0
:10148000002301400800002040420F007047000088
:10149000074AD36823F4E0631B041B0C43F0BF63CB
:1014A000000243F4003300F4E0600343D36070476C
:1014B00000ED00E0174B30B5DC68C4F30224C4F142
:1014C0000703251D042B28BF0423062D4FF001051B
:1014D00005FA03F303F1FF338CBF033C00241940EA
:1014E000A14005FA04F4013C2240002842EA01022E
:1014F0004FEA0212ADBF00F1604000F00F00064B52
:1015000000F56140B5BFD2B2D2B21A5480F80023C0
:1015100030BD00BF00ED00E014ED00E0002808DB66
:101520004209012300F01F0003FA00F0014B43F8C9
:101530002200704700E100E00138B0F1807F0AD25C
:10154000064B074A5860F02182F82310002007223A
:1015500098601A6070470120704700BF10E000E0FB
:1015600000ED00E00368DAB223F47F7323F0030395
:101570001821103AB2FBF1F20449032A88BF043360
:10158000895C8365C165806D704700BF1085000868
:1015900070B50446FFF726FD0546002C71D00023E8
:1015A00084F834302268022384F83530136823F03D
:1015B0000103136021680B68D8073CD40B68324DD7
:1015C0006268A0691D40A3681343E268134322695F
:1015D000134362691343E26903431343226A1343CB
:1015E000626A042A43EA050301BF266BE56A3543B4
:1015F0002B430B604B69042A23F0070343EA0203E1
:101600000BD1A26AE56A13433DB1F8B9012A2DD086
:1016100001D3022A01D1EA012BD44B612046FFF706
:10162000A1FFE26D3F2393408360002001236065AA
:1016300084F8353070BDFFF7D5FC401B0528B9D9BB
:1016400020236365032084F8350070BDB0F5005F8A
:1016500013D1032AE1D801A050F822F07316000834
:1016600017160008731600086D160008B5F1C07F44
:10167000D3D1402363650120E5E7022AF9D9032A83
:10168000C8E7012070BD00BF3F8010F090F83530F2
:10169000022B03D080234365012070470268052395
:1016A00080F83530136823F0010313600020704781
:1016B000F7B5002301935A4B856D1F68C36D2E68E3
:1016C00008229A40164204460CD001680868400778
:1016D00008D5086820F004000860AA60626D42F036
:1016E0000102626501229A40164208D021684969C8
:1016F000090641BFAA60626D42F0020262650422DF
:101700009A40164208D021680968880741BFAA603C
:10171000626D42F00402626510229A40164210D0B7
:101720002368196809070CD5AA601A68500335D5D3
:101730001B68190301D4236C00E0A36C0BB1204695
:101740009847E16D20228A40164238D023681868F5
:10175000C60634D5AA6094F83520052A1A6825D122
:1017600022F016021A605A6922F080025A61226C35
:101770000AB9A26C1AB11A6822F008021A603F2353
:101780008B40AB60002384F83430012384F835307B
:10179000236D0BB12046984703B0F0BD1A68D205FF
:1017A0005EBF1A6822F008021A60C4E7500328D509
:1017B0001B68190332D4636C0BB120469847636DE4
:1017C000002BE9D0636DDA0719D50523226884F868
:1017D0003530136823F0010313604FF41653B7FB41
:1017E000F3F7019B01339F42019302D31368DB0798
:1017F000F7D4002384F83430012384F83530E36CC7
:10180000C7E71A6812F4807208D1196821F0100134
:101810001960012384F8342084F83530E36BCBE77A
:101820000800002090F83500704700002DE9F04FC7
:1018300085B00B68DFF8AC81684ADFF8AC910193A2
:1018400000234FF0010E019C0EFA03FE0EEA04067F
:10185000B64540F0AE804C6824F01007022F16D138
:101860004FEAD30A00EB8A0A03F0070BDAF820509C
:101870004FEA8B0B4FF00F0C0CFA0BFC25EA0C0C0B
:101880000D6905FA0BF545EA0C05CAF820504FEA38
:10189000430A0325D0F800B005FA0AF5ED4304F039
:1018A000030C0BEA050B0CFA0AFC013F4CEA0B0C8B
:1018B000012FC0F800C011D8876807EA050BCF6870
:1018C00007FA0AFC4CEA0B078760476827EA0E0E06
:1018D000C4F300179F4047EA0E074760C7683D40C2
:1018E0008F6807FA0AF73D43C560E50061D54FF000
:1018F000000BCDF80CB0D8F84470394D47F4804750
:10190000C8F84470D8F8447007F480470397039FE1
:1019100023F0030707F1804707F59C3703F0030C1A
:10192000D7F808A04FEA8C0C4FF00F0E0EFA0CFE01
:10193000A8422AEA0E0E43D005F58065A84241D0A0
:1019400005F58065A8423FD005F58065A8423DD0E9
:1019500005F58065A8423BD048453BD005F50065BC
:10196000A84239D005F58065A84214BF082507258F
:1019700005FA0CF545EA0E05BD601568F74314F449
:10198000803F0CBF3D4035431560556814F4003F5F
:101990000CBF3D4035435560956814F4801F0CBF63
:1019A0003D4035439560D568A40254BF3D40354362
:1019B000D5600133102B7FF444AF05B0BDE8F08F44
:1019C0005D46D5E70125D3E70225D1E70325CFE71B
:1019D0000425CDE70525CBE70625C9E7003C0140F6
:1019E0000000024000380240001402400AB1816148
:1019F00070470904FBE701684B6913F480634FF0FB
:101A0000000210D06FF480634B612023026380F8E2
:101A10003D3080F83E20036C80F83C2043F0040306
:101A2000036401207047184670472DE9F8430446C7
:101A300017469946C1F307488EB22568B8F1010FE1
:101A40000CBF6B69AB6936EA030314BF01200020A9
:101A500008B9BDE8F8836B695A0516D52B6843F4BD
:101A600000732B606FF480636B612022002323637B
:101A700084F83D2084F83E30226C42F00402226457
:101A800084F83C300120BDE8F8837B1CD5D0FFF7FB
:101A9000A9FAA0EB0900874201D3002FCDD1002382
:101AA0002022236384F83D2084F83E30226C42F0EB
:101AB0002002E4E770B504460D46164623685B69CC
:101AC0005B0701D5002070BD2046FFF794FFA8B941
:101AD0006A1CF3D0FFF786FA801B854201D3002DE4
:101AE000ECD100232022236384F83D2084F83E308B
:101AF000226C84F83C3042F020022264012070BD48
:101B000070B504460D4616462068436913F040033D
:101B100001D0002070BD4269D2060ED56FF01002D0
:101B200042612022236384F83D2084F83E30226CF9
:101B3000226484F83C30012070BDFFF753FA801B0B
:101B4000A84201D8002DDFD100232022236384F88E
:101B50003D2084F83E30226C42F02002E8E72DE977
:101B6000F843089E044690461F46C1F307498DB2CC
:101B70002368B9F1010F0CBF5B699B6935EA030368
:101B80000CBF01230023434502D00020BDE8F883A9
:101B90007B1CEDD0FFF726FA801B874201D3002F74
:101BA000E6D100232022236384F83D2084F83E30D0
:101BB000226C84F83C3042F0200222640120BDE80F
:101BC000F88370B504460D46164623685B691B060C
:101BD00001D5002070BD2046FFF70DFFA8B96A1C93
:101BE000F3D0FFF7FFF9801B854201D3002DECD124
:101BF00000232022236384F83D2084F83E30226CA9
:101C000084F83C3042F020022264012070BD0000C4
:101C100070B5044608B9012070BD90F83D3003F05E
:101C2000FF021BB980F83C2002F094FC22682423B8
:101C300084F83D30136823F00103136001F0B6FA15
:101C40006568414B9D424DD8404B9842E3D922688C
:101C50003F495368B0FBF1F123F03F030B4353605E
:101C6000136A23F03F03013119431162D169364BE6
:101C700021F44F419D4221F0FF0100F1FF3048D88F
:101C80006D00B0FBF5F00130C0F30B03042B38BF3F
:101C900004230B43D3611168206AE36921F0C0017A
:101CA00003430B4313609168E068236921F4034107
:101CB000034321F0FF010B439360D168A06963697E
:101CC00021F0FF0103430B43D360136843F001038A
:101CD000136000202023206484F83D30206384F8C2
:101CE0003E0070BD1B4B984295D92268184E536830
:101CF000B0FBF6F623F03F0333435360136A4FF40F
:101D00009671714323F03F034FF47A76B1FBF6F1FD
:101D1000A9E7A36853B905EB4503B0FBF3F0431CF7
:101D2000C3F30B036BB143F40043B2E719236B43D6
:101D3000B0FBF3F0431CC3F30B0313B143F4404374
:101D4000A7E70123A5E700BFA08601007F841E004E
:101D500040420F00FF083D002DE9FF4104461F46A9
:101D60000D469046FFF73EF994F83D30202B06468D
:101D700004D00225284604B0BDE8F0810090192364
:101D8000012258492046FFF7EAFE0028F1D194F8D5
:101D90003C30012BEDD0012384F83C3023681A68D5
:101DA000D2075EBF1A6842F001021A601A6822F474
:101DB00000621A60212284F83D20102284F83E201F
:101DC000002222646785628D2285474AE262E26AC8
:101DD000C4F82480082A04D0012A02D012F5803FDA
:101DE00004D11A6842F480721A6002E0226B122A4F
:101DF000F7D000960A9B00224FF001112046FFF712
:101E0000AEFE08B10125B5E723692268B3F5804F1E
:101E100013D105F0FE05156133460A9A3349204671
:101E2000FFF703FE05460028ECD1236803905A69AA
:101E300003929B690393039B44E0EB1103F00603B9
:101E400043F0F00313612A490A9A33462046FFF70C
:101E5000ECFD0028D6D12368EDB21D61DCE73246E7
:101E60000A992046FFF7ADFE40B1236C042B01BF59
:101E70002268136843F400731360C3E7636A206841
:101E80001A4612F8011B01616262628D013A92B238
:101E90006285228D4769511E89B27F0721850AD547
:101EA00049B15978016102336362638D013B9BB292
:101EB000023A6385228532460A992046FFF7FAFDE9
:101EC0000028D2D1238D002BC9D121680A6842F4A1
:101ED00000720A60202284F83D2084F83C3084F8A7
:101EE0003E3047E7020010000000FFFF0200010043
:101EF000080001002DE9F043044689B098460F46DA
:101F00009146109EFFF76EF894F83D30202B054661
:101F100004D00227384609B0BDE8F08300901923A9
:101F20000122A6492046FFF71AFE0028F1D194F8B5
:101F30003C30012BEDD0012384F83C3023681A6833
:101F4000D0075EBF1A6842F001021A601A6822F4D4
:101F500000621A60222284F83D20102284F83E207C
:101F600000222264A4F82A80628D2285944AE262CB
:101F7000E26A1968C4F8249041F48061082A196063
:101F800004D0012A02D012F5803F04D11A6842F42D
:101F900080721A6002E0226B112AF7D00095334656
:101FA00000224FF001112046FFF7D9FD08B10127AB
:101FB000B0E72369B3F5804F236840D147F00107AC
:101FC000FFB21F612B4632467E492046FFF72DFDAA
:101FD00007460028EBD1228D2368002A63D0012A0E
:101FE00074D11A6822F480621A6004975A690492C4
:101FF0009A690492049A1A6842F400721A60DFF82F
:10200000CC81238D002B58D0032B00F2BA80012BFA
:1020100077D12A4631462046FFF772FD0028C6D107
:102020002268636A12691A70636A01336362238DDE
:10203000013B2385638D013B9BB26385E1E74FEA5A
:10204000E71808F0060848F0F0021A615E492B46CE
:1020500032462046FFF7E9FC0028A8D123685949F9
:10206000FFB21F6132462B462046FFF7DEFC0246D8
:1020700000289CD1236807905969079199690791B5
:102080000799196841F4807119602046009533461C
:102090004FF00111FFF763FD002888D1226848F056
:1020A000F10313618EE703975A6903929A690392C9
:1020B000039A1A6842F400721A60202384F83D30B3
:1020C000002384F83E3084F83C3023E7022A1A6863
:1020D0000DD122F480621A601A6842F400621A601C
:1020E00005975A6905929B690593059B87E742F41A
:1020F00080621A6006975A6906929B690693069B4E
:102100007DE7022B009533464FF000024146204602
:102110001AD1FFF724FD00287FF449AF23681A681D
:1021200042F400721A60626A1B691370626A531C7F
:102130006362238D013B2385638D013B9BB26385E5
:1021400023681B6953706FE7FFF709FD02460028FB
:102150007FF42DAF2368196821F480611960616AEA
:102160001B690B70636A009501336362238D013B29
:102170002385638D013B9BB26385414633462046F0
:10218000C7E72A4631462046FFF7BAFC00287FF40D
:102190000EAF2268636A12691A70626A531C636226
:1021A000238D013B2385638D013B9BB263852368AF
:1021B000596949077FF525AFC3E700BF020010004A
:1021C0000000FFFF02000100080001000400010000
:1021D0007047704770477047704770477047704747
:1021E00070477047806B026890F83D1070B51468B6
:1021F000466B856B002324F48064F363EB63146007
:1022000043851468336524F001042B65146090F84D
:102210003D40602CC9B208D1202280F83D2080F8D2
:102220003E300364FFF7DDFF70BD01F0280128296F
:102230000DD1146844F001041460146844F48064FF
:102240001460036380F83D10FFF7CAFF70BD2022C1
:1022500080F83D2080F83E30F6E7000090F83D2001
:1022600090F83E30102B10B5D2B20446036805D169
:10227000222A02BF196821F40061196002F02801C6
:1022800028293AD10022226384F83D105A6812F4BA
:10229000006259D05A68606B22F400625A6090F86C
:1022A0003530012B3C4B35D00365FFF7EFF950B1CA
:1022B0002268606B136823F001031360202384F805
:1022C0003D30036D984794F83D30226C5207DBB2E5
:1022D00012D5282B10D12268536823F4E063536091
:1022E0002E4BE362202200232363204684F83D2006
:1022F00084F83E30FFF771FF10BD5968090504D41A
:10230000602A1CBF202284F83D200022226384F82A
:102310003E20BBE7A06B0365FFF7B8F90028D2D0D9
:1023200023685A69520605D5626A1B691370636A8D
:10233000013363622268A06B136823F0010313600A
:10234000202384F83D30BCE794F83D10602915D176
:10235000202184F83D1022645A69500605D5626A2E
:102360001B691370636A013363622268136823F088
:10237000010313602046FFF734FFA4E75A695106B2
:1023800005D5626A1B691370636A01336362204674
:10239000FFF726FF97E700BFE52100080000FFFFD9
:1023A000036830B55A68C56A90F83E100446C9B251
:1023B00090F83D0010298DB0C0B202D0402940F005
:1023C000B6829869596911F0010F07D1B5F52A0F46
:1023D00002D0B5F12A4F52D10DB030BD95054ED582
:1023E000E26AB2F52A0F0CD10122E26294F83E2093
:1023F000402A11D1226D52B9626C02F0FE021A61BC
:10240000EAE7E26AB2F12A4FF0D10822EDE7626C06
:1024100042F00102D2B2F2E72269B2F5804F1BD13D
:1024200094F83D20212A626C12D102F0FE021A615A
:10243000626B12B9A16B0029CED0D26B1AB9A26B14
:10244000D26B002AC8D05A6842F400625A60C3E7CF
:1024500042F00102D2B2EAE7226D32B9626CD211C7
:1024600002F0060242F0F002C9E7226D012AB3D160
:10247000626CD21102F0060242F0F102BFE70D07D2
:1024800003D5950501D5626CE4E78D0740F1E18045
:10249000950540F1DE8094F83E10E26A256B94F8D1
:1024A0003D002228C9B240F0CC80206D40B94029BF
:1024B00006D101905A6901929B690193019B8BE7B8
:1024C000216D81B92069B0F5404F0CD102915A6954
:1024D00002929A690292029A1A6842F480721A6011
:1024E000236D013328E0618D89B251B903915A6996
:1024F00003929A690392039A1A6842F400721A606E
:1025000019E0618D89B201294AD112F5803F1CD1B1
:102510001A6822F480621A605A6812F400620DD0C0
:102520001A6822F480621A60002204925A690492A6
:102530009B690493049B002323654DE705925A6928
:1025400005929A690592059AD6E7082A1CD0202A96
:102550001AD0122D0DD1012A16D11A6822F48062E8
:102560001A60002206925A6906929B690693069B9E
:10257000E1E7102AF1D88E4921FA02F2D007ECD512
:102580001A6842F48062EBE71A6822F480621A60EB
:10259000002207925A6907929A690792079AABE755
:1025A000618D89B202292CD1102A03D88049D140EB
:1025B000C90722D4196821F480611960196841F4AF
:1025C0000061196059680D050FD512F5803F08D0DC
:1025D000511E1F299DBF774ACA40D2430122D0070E
:1025E00003D45A6842F480525A60002208925A6911
:1025F00008929B690893089B9DE7196841F48061E4
:10260000DFE7196841F4806119605968090510D540
:1026100012F5803F09D0013A1F2A9DBF654921FA72
:1026200002F2D2430122D20703D45A6842F4805204
:102630005A60002209925A6909929B690993099B81
:1026400079E700220A925A690A929B690A930A9BC7
:10265000C2E610F0040F586800F0AE8005053FF5A3
:10266000BBAE11F0800F01F0040169D0500567D5B1
:10267000002965D194F83D20258D94F83E10E06A3C
:10268000D2B2C9B2C5B9212A18D1082878D02028D9
:1026900076D010F5803F73D05A6822F4E0625A6019
:1026A00011232363002384F83E30202384F83D3037
:1026B0002046FFF78DFD8FE6212A05D040297FF4C3
:1026C0008BAE222A7FF488AE628D92B21AB95A6814
:1026D00022F48062BAE694F83E20402A26D1226D88
:1026E00062B9E26C012AA26C04D1D2B21A61236DE4
:1026F000023321E7C2F307221A61F1E6226D012AB3
:1027000002D1A26CD2B2F7E7226D022A7FF464AE46
:1027100094F83D20222A04D11A6842F480721A608B
:102720005AE694F83D20212A7FF456AE626A12F8E8
:10273000011B19616262638D013B9BB263854BE6AD
:1027400000293FF449AE92057FF546AEE16A94F860
:102750003D20212A7FF440AE628D92B2002AE5D15D
:1027600008290DD020290BD011F5803F08D05968D9
:1027700021F4E06159601123236384F83E2094E73B
:102780005A6822F4E0625A601A6842F400721A60D1
:1027900000232022236384F83D2094F83E2084F80F
:1027A0003E30402A204684D1FFF718FD14E600BFD2
:1027B000140001008180008005053FF50DAE11F089
:1027C000400F01F0040148D0500546D5002944D1FE
:1027D00094F83D20222A7FF4FFAD628D92B2032A45
:1027E00014D9626A1B691370636A01336362638D73
:1027F000013B9BB26385638D9BB2032B7FF4ECADF1
:102800002268536823F480635360E5E5E06A022898
:102810003FF4E2AD012A3FF6DFAD1A6822F4806290
:102820001A605A6822F4E0625A60626A1B69137087
:10283000636A01336362638D013B9BB2638520232E
:1028400084F83D3094F83E3084F83E10402B68D137
:1028500021632046FFF7C3FCBEE500293FF4BCAD71
:1028600092057FF5B9ADE26A618D89B20429616A8A
:1028700009D15A6822F480625A601B690B70636A3E
:102880000133636257E7608D80B203280CD158682A
:10289000042A20F480605860EFD0022AEDD01A6834
:1028A00022F480621A60E8E7608D80B20228E4D1E9
:1028B000012A01D0102A28D11A6822F480621A60F5
:1028C0001B690B70626A531C6362638D013B9BB290
:1028D000638523681B695370636A226801336362EE
:1028E000638D013B9BB26385536823F4407353604F
:1028F000202384F83D3094F83E30402B4FF0000305
:1029000084F83E300DD12363A3E7042A01D0022AC4
:1029100003D11A6842F48062D1E71A6842F4007267
:10292000CDE7122323632046FFF753FC54E5216CC7
:1029300021B35969002511F0020F29D012F4007F4C
:1029400026D0226C02B19D6994F83D2002F0280245
:10295000282A16D15A6822F480625A6085F0040150
:102960002B064FF00003C1F3800154BFA289228BD4
:1029700084F83C302046FFF72FFC2DE59D6959690E
:10298000D9E76FF002025A61002384F83C3023E556
:10299000CD0640F1AF80950540F1AC8094F83D50F4
:1029A0005A6822F4E0625A6000220B925A690B9234
:1029B0001A6842F001021A600B9A1A6822F48062C7
:1029C0001A605A681105EDB220D505F0F702222AE7
:1029D00048D1A06B0268526892B26285628D92B251
:1029E0001AB1226C42F0040222645A6822F4006296
:1029F0005A60FEF717FF012808D0A06B784B0365DB
:102A0000FEF744FE10B1A06B036D9847638D9BB237
:102A100013B323685A69520709D5626A1B69137098
:102A2000636A01336362638D013B9BB263852368F4
:102A30005A69500609D5626A1B691370636A0133CB
:102A40006362638D013B9BB26385638D9BB21BB157
:102A5000236C43F004032364236C03B32046FFF785
:102A6000FDFBB9E4606B0268526892B26285628DC8
:102A700092B21AB1226C42F0040222645A6822F423
:102A800000625A60FEF7CEFE0128BFD0606B544B47
:102A90000365FEF7FBFD0028B8D0606BB4E72A2D74
:102AA00006D12363282384F83D302046FFF793FBAB
:102AB00094F83D30282B0CD14A4BE36220220023AE
:102AC0002363204684F83D2084F83E30FFF785FBE1
:102AD00082E4236B222B02D0222D7FF47DAC0023D5
:102AE0002022236384F83D2084F83E302046FFF7FF
:102AF00072FB71E400F0F700212801F0040535D1E4
:102B0000090627D5510525D525BB94F83D10628DC2
:102B100092B2C9B2002A3FF45FAC626A12F8015B5C
:102B20001D616262628D013A92B26285628D92B2DB
:102B3000002A7FF451AC29297FF44EAC5A6822F464
:102B400080625A602823206384F83D302046FFF7D6
:102B500041FB41E4002D3FF43FAC95057FF53CACD3
:102B6000628D92B2002A7FF4E1AD35E4480627D5A4
:102B7000510525D525BB94F83D20618D89B2D2B28F
:102B800000293FF429AC616A1B690B70636A013349
:102B90006362638D013B9BB26385638D9BB2002BA7
:102BA0007FF41AAC2A2A7FF417AC2268536823F406
:102BB0008063536022232363282384F83D3095E704
:102BC000002D3FF409AC92057FF506AC628D92B200
:102BD000002A3FF401AC626A1B6913704FE600BF24
:102BE000E52100080000FFFFF8B503685F695E6833
:102BF00017F48075044606D016F480751EBF6FF476
:102C000080725A610125B90506D5F20542BF6FF4FD
:102C1000007245F002055A61780537D5F10535D5C2
:102C200094F83EE0618D94F83D20206BBEF1200FBA
:102C300089B2D2B25AD1002958D102F0F701212924
:102C400003D0282A52D1212850D194F83D20E16A9E
:102C50000829D2B201D020292AD1282A28D12C4AE9
:102C6000E2625A6822F4E0625A606FF480625A614C
:102C70001A6822F480621A6000232022236320460F
:102C800084F83D2084F83E30FFF7A7FA3A053CD59A
:102C9000F3053AD523686FF4006245F008055A61E0
:102CA000236C1D4325642046BDE8F840FFF7D6BAE3
:102CB000212A17D11649E1622263202284F83D209F
:102CC000002284F83E205A6822F4E0625A606FF4D1
:102CD00080625A611A6822F480621A602046FFF707
:102CE00079FAD3E76FF480625A61CFE76FF48062BC
:102CF0005A6194F83E20102A04BF1A6842F4007208
:102D000045F0040508BF1A60C0E7002DC8D1F8BD22
:102D10000000FFFF006C70472DE9F341044618B92D
:102D2000012002B0BDE8F0810368DD0710D42368FC
:102D3000980758D423681A0700F19A8023685B0724
:102D400000F1B880A269002A40F019810020E8E76C
:102D5000A64B9A6802F00C02042A07D09A6802F087
:102D60000C02082A0AD15B68590207D59F4B1B68E1
:102D70009A03DCD56368002BD9D1D1E763689B4DFA
:102D8000B3F5803F11D12B6843F480332B60FEF7FD
:102D900029F9964D06462B689B03C8D4FEF722F905
:102DA000801B6428F7D90320BBE7B3F5A02F04D11B
:102DB0002B6843F480232B60E5E72A6822F48032F5
:102DC0002A602A6822F480222A60002BDFD1FEF7D5
:102DD00009F906462B689F03A9D5FEF703F9801B66
:102DE0006428F7D9DFE7814B9A6812F00C0F07D0FF
:102DF0009A6802F00C02082A11D15B685E020ED4B8
:102E00007A4B1A68950702D5E268012A88D11A68B8
:102E1000216922F0F80242EAC1021A608AE7E268F8
:102E2000734BB2B101221A60FEF7DCF86F4D064613
:102E30002B68980707D52B68226923F0F80343EA2B
:102E4000C2032B6076E7FEF7CDF8801B0228EFD98E
:102E5000A9E71A60FEF7C6F8644D06462B68990785
:102E60007FF568AFFEF7BEF8801B0228F6D99AE717
:102E70006269604B7AB101221A60FEF7B3F85B4DCC
:102E800006466B6F9F073FF559AFFEF7ABF8801B07
:102E90000228F6D987E71A60FEF7A4F8534D0646D4
:102EA0006B6F98077FF54AAFFEF79CF8801B0228EE
:102EB000F6D978E74D4B1A6C12F0805228D1019266
:102EC0001A6C42F080521A641B6C03F08053019319
:102ED000019B0126484D2B68D9051BD5A368434D9E
:102EE000012B27D12B6F43F001032B67FEF77AF8F4
:102EF0003E4D074641F288382B6F9B0739D5002E8F
:102F00003FF420AF394A136C23F08053136419E760
:102F10000026DFE72B6843F480732B60FEF762F82E
:102F200007462B68DA05D9D4FEF75CF8C01B0228E7
:102F3000F7D938E7052B04D12B6F43F004032B6737
:102F4000D0E72A6F22F001022A672A6F22F00402DA
:102F50002A67002BCAD1FEF745F841F288380746A8
:102F60002B6F9807CBD5FEF73DF8C01B4045F7D92E
:102F700019E7FEF737F8C01B4045BDD913E71B4DD5
:102F8000AB6803F00C03082B3FF4CAAE1B4E0023C2
:102F9000022A336034D1FEF725F807462B689901E1
:102FA0001ED4226AE3691343626A43EA8213E26A27
:102FB00043EA0263A26A0D4C5208013A43EA024313
:102FC0006B6001233360FEF70DF8054623689A0114
:102FD0003FF5BCAEFEF706F8401B0228F6D9E2E644
:102FE000FEF700F8C01B0228D8D9DCE60038024002
:102FF00000004742800E4742007000406000474298
:10300000FDF7F0FF04462B689B017FF59FAEFDF7AF
:10301000E9FF001B0228F6D9C5E600BF134908B531
:103020008B6803F00C03042B03D0082B03D010484B
:1030300008BD104808BD4A684B68496813F480030E
:1030400014BF0C480A48C1F3881118BF002302F0CE
:103050003F02A1FB0001FDF7F3FD044B5B68C3F3E6
:10306000014301335B00B0FBF3F008BD00380240C0
:103070000024F40040787D012DE9F0410D4604461E
:1030800010B90120BDE8F081444B1A6802F00F022C
:103090008A4228D321688F072DD4C80740D43F4BDC
:1030A0001A6802F00F02954266D3226851076CD469
:1030B000130707D53A4A2169936823F4604343EA2A
:1030C000C1039360FFF7AAFF354B364A9B68C3F3F1
:1030D0000313D35CD840344B18600020FDF738FF51
:1030E0000020BDE8F081CAB21A701B6803F00F031C
:1030F0009942C6D1CEE72A4B11F0040F1EBF9A6841
:1031000042F4E0529A600E0742BF9A6842F460426D
:103110009A609A68A06822F0F00202439A60BCE7C5
:1031200062681F4B012A1DD11B6813F4003FA8D011
:103130001B4EB36823F003031343B360FDF752FF44
:1031400041F288380746B368626803F00C03B3EBBA
:10315000820FA4D0FDF746FFC01B4045F3D90320E2
:10316000BDE8F081911E01291B6802D813F0007F91
:10317000DDE713F0020FDAE7EAB21A701B6803F01A
:103180000F039D427FF47DAF8FE70549E0688B68B0
:1031900023F4E05303438B608AE700BF003C024006
:1031A000003802404885000808000020044B054A0A
:1031B0009B68C3F38223D35C034A1068D8407047EE
:1031C000003802405885000808000020044B054ADA
:1031D0009B68C3F34233D35C034A1068D8407047FE
:1031E000003802405885000808000020036A23F0D8
:1031F00001030362036A70B5446882690D6822F0B6
:1032000073022A438D6823F002032B430E4DA8421C
:1032100002D00E4EB04210D1CE6823F008033343E3
:10322000A84223F0040302D0084DA84205D14D69FD
:103230008E6924F4407435432C43446082614A68AB
:103240004263036270BD00BF000001400004014002
:10325000036A23F480730362036A70B54468C26929
:103260000D6822F073022A438D6823F4007343EA49
:103270000523114DA84203D005F58065A84214D15D
:10328000CD6823F4006343EA05230B4DA84223F4E1
:10329000806303D005F58065A84206D14D698E692B
:1032A00024F44054354344EA05144460C2614A683A
:1032B000C263036270BD00BF00000140036A23F4D3
:1032C00080530362036A30B54468C2690D6822F412
:1032D000E64242EA05228D6823F4005343EA0533AF
:1032E000084DA84203D005F58065A84204D14D6978
:1032F00024F4804444EA85144460C2614A6802644C
:10330000036230BD0000014070477047704770474E
:103310007047704703681A69910710B504460ED5C7
:10332000DA6892070BD56FF002021A619B690122DD
:103330009B07027777D0FFF7EAFF00232377236804
:103340001A69500710D5DA6851070DD56FF00402DD
:103350001A619B69022213F4407F2277204668D0CD
:10336000FFF7D5FF0023237723681A6912070FD5CB
:10337000DA6810070CD56FF008021A61DB690422C5
:103380009907227720465AD0FFF7C1FF0023237701
:1033900023681A69D20610D5DA68D0060DD56FF009
:1033A00010021A61DB69082213F4407F227720465D
:1033B0004BD0FFF7ACFF0023237723681A69D107AE
:1033C00008D5DA68D20705D56FF001021A612046E8
:1033D000FFF79BFF23681A69100608D5DA68110603
:1033E00005D56FF080021A61204600F0B8FA236814
:1033F0001A69520608D5DA68500605D56FF0400202
:103400001A612046FFF785FF23681A69910622D5C5
:10341000DA6892061FD56FF0200220461A61BDE8D7
:10342000104000F09BBAFFF771FF2046FFF770FFD6
:1034300083E7FFF76BFF2046FFF76AFF92E7FFF78E
:1034400065FF2046FFF764FFA0E7FFF75FFF204618
:10345000FFF75EFFAFE710BD304A0368904212D01D
:10346000B0F1804F0FD0A2F57C4290420BD002F514
:103470008062904207D002F58062904203D002F54C
:103480007842904219D14A6823F070031343234ACB
:10349000904229D0B0F1804F26D0A2F57C429042D4
:1034A00022D002F5806290421ED002F580629042E6
:1034B0001AD002F57842904216D0194A904213D0A1
:1034C00002F5806290420FD002F5806290420BD0EC
:1034D000A2F59832904207D002F58062904203D064
:1034E00002F58062904203D1CA6823F4407313430B
:1034F0004A6923F08003134303608B68C3620B683F
:103500008362064B984203D003F58063984201D151
:103510000B69036301234361704700BF0000014052
:103520000040014010B50446A0B190F83D3003F0D2
:10353000FF021BB980F83C2001F04AFA022384F80C
:103540003D302068211DFFF787FF012384F83D30BF
:10355000002010BD012010BD10B50446A0B190F8A8
:103560003D3003F0FF021BB980F83C20FFF7CCFE92
:10357000022384F83D302068211DFFF76DFF0123F1
:1035800084F83D30002010BD012010BD036A23F0F7
:1035900010030362036A70B5446882690D6822F4FF
:1035A000E64242EA05228D6823F0200343EA051330
:1035B000104DA84203D005F58065A84214D1CD680E
:1035C00023F0800343EA05130A4DA84223F0400389
:1035D00003D005F58065A84206D14D698E6924F4B3
:1035E0004064354344EA8504446082614A688263EA
:1035F000036270BD0000014038B590F83C30012BEB
:1036000004464FF0020025D0012384F83C3084F8B2
:103610003D000C2A18D8DFE802F0071717171E170D
:1036200017172F17171740002068FFF7DFFD2368D3
:1036300009699A6942F008029A619A6922F00402C3
:103640009A619A690A439A610123002084F83D3007
:1036500084F83C0038BD2068FFF798FF23680969AB
:103660009A6942F400629A619A6922F480629A61CE
:103670009A6942EA0122E6E72068FFF7E9FD23683C
:103680000969DA6942F00802DA61DA6922F00402B3
:10369000DA61DA690A43DA61D6E72068FFF70EFEDD
:1036A00023680969DA6942F40062DA61DA6922F4AE
:1036B0008062DA61DA6942EA0122ECE710B58468D7
:1036C0000A4324F47F4442EA03232343836010BD6A
:1036D00090F83C30012B70B504464FF0020019D031
:1036E00084F83D002068012384F83C30836823F48B
:1036F0007F4323F0770383600B68402B65D015D898
:10370000102B0CD007D853B10123002084F83D3092
:1037100084F83C0070BD202B01D0302BF4D182689E
:1037200043F0070322F0700213431AE0602B34D0F9
:1037300019D8502BE8D14A68CE68016A056A25F08D
:1037400001050562836921F00A0123F0F00343EAD1
:1037500006130A4383610262836823F0700343F017
:1037600057038360D0E7702B0CD0B3F5005FCBD14B
:10377000CB684A688968FFF7A1FF2268936843F421
:10378000804308E0CB684A688968FFF797FF2268A2
:10379000936843F077039360B6E74D68CE68016A9B
:1037A00021F0100101628269036A22F4704223F061
:1037B000A00343EA051342EA06328261036283688A
:1037C00023F0700343F06703CBE74A68CE68016AD1
:1037D000056A25F001050562836921F00A0123F0DD
:1037E000F00343EA06130A4383610262836823F00D
:1037F000700343F04703B4E7036A01F01F0110B5FB
:1038000001248C4023EA04030362036A8A401A43BA
:10381000026210BD10B5044601220068FFF7ECFFFC
:1038200023680B4A93420ED002F5806293420AD07D
:103830009A6802F00702062A03D01A6842F00102D1
:103840001A60002010BD5A6C42F400425A64EFE73F
:103850000000014010B504460C290DD8DFE801F046
:10386000070C0C0C230C0C0C280C0C0C2D00026803
:10387000D36843F00203D36001222068FFF7BCFF46
:103880002368134A93421DD002F58062934219D0F7
:103890009A6802F00702062A03D01A6842F0010271
:1038A0001A60002010BD0268D36843F00403E2E709
:1038B0000268D36843F00803DDE70268D36843F089
:1038C0001003D8E75A6C42F400425A64E0E700BFA4
:1038D0000000014090F83C30012B30B54FF002035E
:1038E00014D0046880F83D306268A3680D684968A8
:1038F00022F0700223F080030B432A436260A3602E
:10390000012380F83D30002380F83C30184630BD5C
:1039100090F83C30012B1FD0CB688A6823F44073A9
:1039200013434A6823F4806313430A6823F4006353
:1039300013430A6923F4805313434A6923F4005361
:103940001343CA6923F4804313430268536400237A
:1039500080F83C3018467047022070477047704727
:103960000368DA6822F49072DA605A6922F0010280
:103970005A61202380F83A30704700002DE9F04763
:103980000668C2683369C16923F440531343336145
:10399000044683680069F2680343606922F41642B2
:1039A000034322F00C020B431343F3607369A269D3
:1039B00023F440731343B1F5004F73617A4B7CD10C
:1039C0009E4203D003F580639E4244D1FFF7FEFB85
:1039D000192505FB00F360684FF064094000B3FB54
:1039E000F0F3B3FBF9F34FEA0318FFF7EFFB63685B
:1039F00068435B00B0FBF3F7FFF7E8FB63686843DD
:103A00005B00B0FBF3F3B3FBF9F309FB1373DB00CB
:103A10003233B3FBF9F35B0003F4F877FFF7D6FB1F
:103A2000626868435200B0FBF2FAFFF7CFFB6368AD
:103A300068435B00B0FBF3F3B3FBF9F309FB13A39B
:103A4000DB003233B3FBF9F303F0070343443B4499
:103A5000B360BDE8F087FFF7A9FB192505FB00F36C
:103A600060684FF064094000B3FBF0F3B3FBF9F377
:103A70004FEA0318FFF79AFB636868435B00B0FBEB
:103A8000F3F7FFF793FB636868435B00B0FBF3F366
:103A9000B3FBF9F309FB1373DB003233B3FBF9F328
:103AA0005B0003F4F877FFF781FB6268684352001C
:103AB000B0FBF2FAFFF77AFBB9E79E4202D03B4B2C
:103AC0009E4240D1FFF782FB676819254FF06409D9
:103AD00005FB00F3BF00B3FBF7F3B3FBF9F31F01E2
:103AE000FFF774FB636868439B00B0FBF3F8FFF7D4
:103AF0006DFB636868439B00B0FBF3F3B3FBF9F322
:103B000009FB13831B013233B3FBF9F303F0F00815
:103B1000FFF75CFB626868439200B0FBF2FAFFF7C4
:103B200055FB636868439B00B0FBF3F3B3FBF9F309
:103B300009FB13A31B013233B3FBF9F303F00F03AB
:103B400043EA080383E7FFF731FB676819254FF065
:103B5000640905FB00F3BF00B3FBF7F3B3FBF9F314
:103B60001F01FFF723FB636868439B00B0FBF3F87A
:103B7000FFF71CFB636868439B00B0FBF3F3B3FBE8
:103B8000F9F309FB13831B013233B3FBF9F303F0A1
:103B9000F008FFF70BFB626868439200B0FBF2FA93
:103BA000FFF704FBBDE700BF001001400014014017
:103BB000F8B504460E4617461D4621680B6836EADE
:103BC000030301D10020F8BD6B1CF7D095B9236821
:103BD000DA6822F4D072DA605A6922F001025A617E
:103BE000202384F8393084F83A30002384F83830C0
:103BF0000320F8BDFDF7F6F9C01B8542DDD2E6E7EC
:103C000010B5044640B390F8393003F0FF021BB9F9
:103C100080F8382001F01EFA2268242384F8393015
:103C2000D36823F40053D3602046FFF7A7FE236830
:103C30001A6922F490421A615A6922F02A025A61E2
:103C4000DA6842F40052DA6000202023E06384F84E
:103C5000393084F83A3010BD012010BD2DE9F04113
:103C60001F4690F83930202B04460D4690464FD120
:103C700000294AD0002A48D090F83830012B47D08C
:103C8000012380F838300023C363212380F83930C2
:103C9000FDF7A8F9A4F824800646A4F82680E38C52
:103CA0009BB26BB93B46324640212046FFF780FF6E
:103CB000B0B9202384F8393084F83800BDE8F081A9
:103CC000E38C013B9BB2E384A368B3F5805F32468B
:103CD0003B464FF0800120460ED1FFF769FF10B13F
:103CE0000320BDE8F0812B882268C3F308035360EA
:103CF000236943B90235D2E7FFF75AFF0028EFD115
:103D000023682A785A600135C9E70120BDE8F081AF
:103D10000220BDE8F0817047704790F83A30222BBE
:103D200010B536D1836801690268B3F5805F836A94
:103D300023D15268E9B9C2F3080223F8022B836247
:103D4000C48D013CA4B2C4858CB90368DA6822F042
:103D50002002DA60DA6822F48072DA605A6922F0AE
:103D600001025A61202380F83A30FFF7D5FF002086
:103D700010BDD2B223F8012BE1E721B9591C5268DA
:103D800081621A70DCE75268591C816202F07F027E
:103D9000F7E7022010BD704703681A68D96870B54C
:103DA000160704465D6907D196065AD58D0658D583
:103DB000BDE87040FFF7B1BF15F0010502D111F465
:103DC000907F4ED0D30705D5CE0542BFE36B43F0BD
:103DD0000103E363500704D51DB1E36B43F0020315
:103DE000E363930704D51DB1E36B43F00403E3637E
:103DF000160704D51DB1E36B43F00803E363E36BDF
:103E0000002B66D0950604D5880602D52046FFF71C
:103E100084FF23685D69E26B1107204602D415F028
:103E200040051AD0FFF79CFD23685A69520610D549
:103E30005A69606B22F040025A6150B1254B03650C
:103E4000FDF724FC002844D0606BBDE87040036D92
:103E500018472046FFF79FFF70BDFFF79CFFE56303
:103E600070BD160627D50D0625D594F83920212AD0
:103E70002FD1A268B2F5805F226A17D11188C1F3F1
:103E800008015960216979B902322262E28C013A53
:103E900092B2E284EAB9DA6822F08002DA60DA6883
:103EA00042F04002DA6070BD0132EEE7511C21623F
:103EB00012785A60EAE750060BD54A0609D5DA6847
:103EC00022F04002DA60202384F839302046FFF7E0
:103ED00022FF70BDD93E000808B5806B0023C38562
:103EE000C384FFF758FF08BD1FB58DF80D304FF4A0
:103EF0007A738DF80C20009303AA02230446FDF781
:103F00002BFF18B12046FEF705FF012004B010BDBD
:103F10002DE9FF4104AC4FF47A7704F8012D98465F
:103F200000970123224605460E46FDF715FF30B1E6
:103F30002846FEF7EFFE012004B0BDE8F0810097AF
:103F4000BDF82830424631462846FDF7D3FF002809
:103F5000F2D0EDE77FB50C46182342F0D0010126E0
:103F600084F8B53084F8B4100DF10B030096752277
:103F70000546FFF7CDFF9DF80B30712B40F0DE803A
:103F800000236B2294F8B4102846FFF7ADFF3346A8
:103F90006B2294F8B4102846FFF7A6FF04231A22D8
:103FA00094F8B4102846FFF79FFF0023192294F8D5
:103FB000B4102846FFF798FF94F8B41000960DF15E
:103FC0000B031B222846FFF7A3FF9DF80B3094F844
:103FD000B41023F01A0343F018031B2228468DF86F
:103FE0000B30FFF781FF94F8B41000960DF10B032E
:103FF0001C222846FFF78CFF9DF80B3094F8B41074
:1040000003F0E7031C2228468DF80B30FFF76CFF06
:1040100094F8B41000960DF10B031D222846FFF70B
:1040200077FF9DF80B3094F8B41023F00F0343F0A2
:1040300003031D2228468DF80B30FFF755FF22237E
:10404000372294F8B4102846FFF74EFF3346382243
:1040500094F8B4102846FFF747FF00230A2294F88B
:10406000B5102846FFF740FF0F230A2294F8B51039
:104070002846FFF739FF0323102294F8B510009368
:10408000284603ABFFF744FF9DF80C00803807EE8D
:10409000900AF8EEE77A17EE900AFCF755FA00223C
:1040A000274BFCF7A5FA0022264BFCF7EFF8FCF7AC
:1040B00077FD60649DF80D00803807EE900AF8EEF9
:1040C000E77A17EE900AFCF73FFA00221C4BFCF748
:1040D0008FFA00221B4BFCF7D9F8FCF761FDA064B6
:1040E0009DF80E00803807EE900AF8EEE77A17EE9A
:1040F000900AFCF729FA0022114BFCF779FA00220A
:10410000104BFCF7C3F8FCF74BFD0023E0640A22D8
:1041100094F8B5102846FFF7E7FE16230A2294F814
:10412000B5102846FFF7E0FE4FF06253A363064B3D
:10413000E363064B2364002004B070BD0220FBE75C
:104140000000703F0000F03F00007A3D00E0BF3FFC
:104150001FB506230C463B2291F8B410009302AB26
:10416000FFF7D6FE9DF808309DF809109DF80B204A
:104170009DF80C00D4ED0E6A41EA032109B29DF8C6
:104180000A30A18407EE901A42EA0322B8EEE77AD9
:104190009DF80D3012B243EA002327EE267A07EE8F
:1041A000902A1BB284ED007AB8EEE77A07EE903AD7
:1041B000F8EEE77A27EE267A67EEA67AE284238580
:1041C00084ED017AC4ED027A04B010BD1FB5062358
:1041D0000C46432291F8B410009302ABFFF798FE0F
:1041E0009DF808309DF8091094ED0F6A9DF80B209A
:1041F0009DF80C00DFED186A41EA032109B207EED1
:10420000901A9DF80A306185B8EEE77A42EA0322F7
:1042100027EE067A9DF80D3012B243EA002327EE0E
:10422000267A07EE902A1BB284ED037AB8EEE77A7D
:1042300007EE903AF8EEE77A27EE067A67EE867A8E
:1042400027EE267A67EEA67AA285E38584ED047AC6
:10425000C4ED057A04B010BD35FA8E3C30B587B098
:10426000012302220C4691F8B51000930DF10F03C3
:104270000546FFF74DFE9DF80F30DA0721D50723DD
:10428000009394F8B51004AB03222846FFF740FED4
:104290009DF816301B0714D49DF811209DF810309E
:1042A00043EA022323869DF813209DF8123043EA47
:1042B000022363869DF815209DF8143043EA0223FB
:1042C000A38607B030BD1FB5012391F8B410009349
:1042D0003A220DF10F03FFF71BFE9DF80F00C043BC
:1042E00000F0010005B05DF804FB00001FB51022CE
:1042F0000021684600F042FF19481A4B0360002372
:104300000124436083600376C362174AC3600223BB
:10431000046180F8204044628262C36180F83040CA
:104320004461FCF765FE08B100F08CFA0E238DE8BD
:104330001800694603230A480293FDF711F808B1F3
:1043400000F080FA0F220223694605488DE80C0030
:10435000FDF706F808B100F075FA04B010BD00BF13
:104360006C020020002201400100000F70B50646DB
:1043700088B01422002103A800F000FF3268254B0A
:104380009A4244D1002503F58B3301955A6C22489B
:10439000224C42F480625A645A6C02F480620192A8
:1043A000019A02951A6B42F020021A631B6B03F00C
:1043B00020030293029B3023039303A90323049356
:1043C000FDF734FA164AA5604FF0806384E80C00CC
:1043D0004FF4806323614FF4006363614FF4005333
:1043E000A36120464FF48073E560E3612562656256
:1043F000FDF7CEF808B100F025FA0022B4631220D0
:104400001146A663FDF756F81220FDF787F808B0AD
:1044100070BD00BF00220140001402400C020020C9
:1044200010640240F0B58DB01422002107A800F0FE
:10443000A5FE0024344B00941A6B344F344D42F0E7
:1044400004021A631A6B02F004020092009A0194AB
:104450001A6B42F020021A631A6B02F020020192DA
:10446000019A02941A6B42F080021A631A6B02F0EE
:1044700080020292029A03941A6B42F010021A63AD
:104480001A6B02F010020392039A04941A6B42F022
:1044900008021A631A6B02F008020492049A059447
:1044A0001A6B42F001021A631A6B02F001020592C4
:1044B000059A06941A6B42F002021A631B6B03F012
:1044C00002030693224638464021069BFDF78EFAEA
:1044D000224628464FF4C061FDF788FA01264023A2
:1044E00007A938460793089609940A94FDF79EF9A0
:1044F0004FF4C06307A928460793089609940A94C5
:10450000FDF794F90DB0F0BD0038024000140240F0
:10451000000C024008B50C480C4BDFF834E04FF4B7
:10452000804280E8084000238360C36002614361E9
:104530008361C3610362FDF76BFB18B1BDE80840FE
:1045400000F080B908BD00BFB40200200054004054
:10455000A086010030B5044689B01422002103A8CA
:1045600000F00CFE22681C4B9A4233D100251B4CF4
:104570000195236B1A4843F002032363236B03F076
:1045800002030193019BC02303931223049301238D
:1045900005930323069303A904230793FDF746F924
:1045A0000295236C43F400132364236C03F400137B
:1045B0002A46294602931F20029BFCF77BFF1F20FF
:1045C000FCF7ACFF20202A462946FCF773FF202089
:1045D000FCF7A4FF09B030BD005400400038024091
:1045E000000402401FB50A28019009D104A90D2337
:1045F00041F8043D01224FF6FF730748FFF72EFBF9
:104600004FF6FF73012201A90348FFF727FB01982A
:1046100005B05DF804FB00BF700400200148FCF702
:104620008DBD00BF6C02002070B594B03022002117
:1046300008A800F0A3FD0021142203A800F09EFDAD
:1046400000241C4B01941A6C42F080521A641B6CBB
:1046500003F080530193019B174B02941A6842F4B4
:1046600080421A601B6803F480430293029B4FF45C
:10467000803309934FF480030F9319231093C023C1
:1046800002250126119308A80423139308960E957A
:104690001295FEF741FB0F230393802305933146C8
:1046A0004FF4805303A8049506930794FEF7E4FCA7
:1046B00014B070BD00380240007000407FB5FCF7B8
:1046C0006BFCFFF7B1FFFFF7ADFEFFF70FFE00F049
:1046D00005FA00F071FA00F0A1FCFFF71BFF4C484F
:1046E00001F034FA00224B494B48FFF733FC10B17C
:1046F0004A4801F02BFA9FED4A1A9FED4A0A4A48B0
:10470000444C454E484DF6EE000A00F069FB474820
:10471000FCF714FD04214648FFF77CF804214448C7
:10472000FFF798F80C214348FFF774F80C21414833
:10473000FFF790F8404B40F68C221A642146304631
:10474000FFF7C1FD58B921463046FFF701FD21466C
:104750003046FFF73BFD21463046FFF77FFDD4EDA5
:10476000022A94ED012AD4ED001A94ED051AD4ED35
:10477000040A94ED030A2C4800F043FBD5ED017ABE
:104780002D4AB3EE097AF4EEC77AF1EE10FA26DD7F
:10479000FDEEE77A40F6B240CDED057A9DF9143092
:1047A0004FF6F17111FB03031364012240212348EA
:1047B000FDF71CF92868FBF7C7FE8046A868894604
:1047C000FBF7C2FECDE902016868FBF7BDFE424679
:1047D000CDE900014B461A4801F044F9AEE7BBEEC3
:1047E000097AF4EEC77AF1EE10FA40F6B2400CD531
:1047F000FDEEE77A4FF6F173CDED057A9DF91410D1
:1048000013FB010313640022D0E71064D2E700BF5A
:104810001885000834030020B40200201E8500081B
:104820000000000000007A440C0300206C0200200D
:1048300030040020F0030020000800400014024073
:104840002D8500087047000007B5104B002200922C
:10485000596C41F480415964596C01F480410091D4
:1048600000990192196C41F0805119641B6C03F09E
:104870008053019311460520019BFCF71BFE052088
:10488000FCF74CFE03B05DF804FB00BF00380240AB
:104890007047FEE7FEE7FEE7FEE7704770477047A8
:1048A000FCF794BB704700000148FCF7C5BC00BF93
:1048B0006C0200200148FEF72DBD00BF300400202F
:1048C000FFF7F8BF0148FEF725BD00BFF003002049
:1048D0000148FDF765BD00BFB40200200148FEF7A6
:1048E00083B900BFB40200200148FFF755BA00BFEA
:1048F000700400200148FCF7DBBE00BF0C02002062
:1049000070B50E4615460C46A31B9D4201DC284699
:1049100070BDAFF3008004F8010BF5E770B50E46EB
:1049200015460C46A31B9D4201DC284670BD14F8B9
:10493000010BFFF757FEF5E708B50A4B1968024669
:1049400009B9094919601868694602448A4206D9BA
:1049500000F0EAFB0C2303604FF0FF3008BD1A6043
:1049600008BD00BFFC010020B40400204FF0FF3060
:1049700070474FF400534B60002070470120704790
:10498000002070470F49D1F8883043F47003C1F814
:1049900088300D4B1A68002042F001021A609860BE
:1049A0001A6822F0847222F480321A60074A5A6030
:1049B0001A6822F480221A60D8604FF000638B607E
:1049C000704700BF00ED00E00038024010300024C6
:1049D00003681B4A934213B51DD10024194B009460
:1049E0005A6C42F001025A645B6C03F001032246E8
:1049F000214600931920009BFCF75CFD1920FCF771
:104A00008DFD1B2022462146FCF754FD1B20FCF7A0
:104A100085FD02B010BD0C4A9342FAD10022094B29
:104A20000192196C41F0040119641B6C03F004033A
:104A300001931E201146019BFCF73CFD1E20E6E77A
:104A400000000140003802400008004010B5044654
:104A500088B01422002103A800F090FB23681A4AB2
:104A6000934218D100230193184B19481A6B42F056
:104A700010021A631B6B03F010030193019B4FF4A8
:104A800000630393022304930123079303A9FCF714
:104A9000CDFE08B010BD0F4A9342FAD10023029315
:104AA0000A4B0D481A6B42F008021A631B6B03F0A5
:104AB00008030293029B4FF40043039302230493E1
:104AC000079303A9E3E700BF00000140003802405C
:104AD0000010024000080040000C024010B596B0E3
:104AE0001022002103A800F049FB00241C222146CB
:104AF0000DEB02000194029400F040FB20222146BD
:104B00000EA800F03BFB2A482A4A8460302380E844
:104B10000C004FF47A73C3608023046144618361A5
:104B2000FEF700FD08B1FFF78DFE4FF4805303A997
:104B30001F480393FEF7CCFD08B1FFF783FE1C4826
:104B4000FEF70AFD08B1FFF77DFE002301A9184812
:104B500001930293FEF7BEFE08B1FFF773FE6023D8
:104B60000024079304224FF4FA7307A9104808930E
:104B700009940A940B940C940D94FEF73DFD08B132
:104B8000FFF760FE4FF400530EA909480E940F94EE
:104B900010941194129413931594FEF7B9FE08B172
:104BA000FFF750FE0248FFF751FF16B010BD00BFDF
:104BB000300400200000014010B58EB0102200210A
:104BC00003A800F0DBFA00241C220DEB02002146B2
:104BD0000194029400F0D2FA1F48204A84601823FE
:104BE00080E80C0049F64043C36080230461836180
:104BF000FEF798FC08B1FFF725FE4FF4805303A998
:104C000015480393FEF764FD08B1FFF71BFE124839
:104C1000FEF7A2FC08B1FFF715FE002301A90E481C
:104C200001930293FEF756FE08B1FFF70BFE6023D7
:104C3000079340F6B24308930C22002307A90648C5
:104C400009930B93FEF7D8FC08B1FFF7FBFD024870
:104C5000FFF7FCFE0EB010BDF0030020000800407E
:104C600008B510EE100AFBF76FFC41EC100B02F0D8
:104C700095FE51EC100BFBF793FF07EE900AB7EE91
:104C8000000A80EE270A08BD10B52DED048B90EDCB
:104C9000069A90ED078AF6EE008AF0EE687AE9EE61
:104CA000497A044682B0E8EE487A17EE900AFBF79C
:104CB0004BFCD4ED087A28EE278AD4ED057AA7EECE
:104CC000898ACDE9000118EE100AFBF73DFC9DED45
:104CD000001B41EC100B02F05FFE51EC100BFBF7D8
:104CE0005FFF94ED057AD4ED077AD4ED066A206073
:104CF00067EEC77A94ED087AE6EE877AB8EE007A26
:104D000067EE877A17EE900AFBF71EFC41EC100B5A
:104D100002F0EAFD51EC100BFBF742FF94ED079A0D
:104D200094ED088A6060E9EE498AE8EE488A18EE58
:104D3000900AFBF709FCD4ED057A28EE278AD4ED1A
:104D4000067AA7EE898ACDE9000118EE100AFBF772
:104D5000FBFB9DED001B41EC100B02F01DFE9FEDD7
:104D60001D8AD4ED007A67EE887A51EC100BC4ED01
:104D7000007AD4ED017A67EE887AC4ED017AFBF708
:104D80000FFFD4ED037A07EE100AD7EE087A9FEDF5
:104D9000127AF0EE676ADFED117AF4EEE76AF1EE6F
:104DA00010FA06D577EEE67A77EE677AC4ED027AE6
:104DB00006E0F4EEC76AF1EE10FA05DCC4ED026A13
:104DC00002B0BDEC048B10BD37EE667A77EEC77A81
:104DD000ECE700BFE12E654200003443000034C31D
:104DE000F7EE007AC7EEA00A00238361C361036275
:104DF00080ED040AC0ED090A80ED031AC0ED057AC2
:104E0000704710B5D0ED067AD0ED076A90ED056ACF
:104E1000D0ED085A2DED0A8B60EEE6BA26EE81BA87
:104E200061EE67AA27EEA09AE7EEC0BA0446A0EEAC
:104E300006BAE0EE86AAA1EE069AE5EEC1BAA0EEA9
:104E4000E5BAE0EE25AAA0EE669AF5EE401AB6EEB7
:104E5000007AF1EE10FAF0EE619AF0EE428AB0EECE
:104E6000628A6BEE87BA2BEE07BA6AEE87AA29EE42
:104E7000079A0AD1B5EE402AF1EE10FA05D1F5EE07
:104E8000402AF1EE10FA00F0868028EEA80AA9EE7A
:104E9000A90AA8EE080AFFF7E3FED4ED086AD4EDEC
:104EA000064A94ED053A94ED07CA69EE801A36EE8B
:104EB000A61AF1EE005A68EE002A66EEA60A20EE67
:104EC000680A24EEA58A61EE618A73EE037A23EE06
:104ED000252AE8EE208A23EE033AF2EE003A23EE8A
:104EE000253A24EEA45AE4EE838A64EEA3CAE0EEE7
:104EF000278A2CEE0C7A78EEC88A2CEE254AECEE46
:104F0000858A3CEE0C6AECEE878A21EE86AAE2EEF8
:104F1000888A21EEA78AA2EE07AAACEE038AA2EE47
:104F200005AAA4EE208A74EEA49AA0EE018A6CEE83
:104F3000233A38EE448AA0EE29AAA3EE858A69EEC8
:104F4000E19A25EE255AA3EE878AE6EE859A27EEAA
:104F5000257AA2EE848AE6EE879AE0EE069A28EE9B
:104F6000A80AAAEE0A0AA8EE080AA9EEA90AFFF7FB
:104F700077FED4ED047A20EE4AAA60EE688A20EE2D
:104F8000488A20EE690AEAEE27BAA8EEA7BAE8EE48
:104F900027AAA0EE279A94ED096A94ED060AD4EDAB
:104FA000056A94ED077AD4ED087AABEE060AEBEECB
:104FB000866A84ED060A20EE000AAAEE867AA6EE3C
:104FC000A60AE9EE067AA7EE070AC4ED087AC4ED50
:104FD000056A84ED077AA7EEA70AFFF741FED4ED34
:104FE000057A67EE807ABDEC0A8BC4ED057AD4EDC4
:104FF000067A67EE807A2046C4ED067AD4ED077A09
:1050000067EE807AC4ED077AD4ED087A27EE800A3D
:1050100084ED080ABDE81040FFF736BE08B50B481E
:105020000B4B4FF4E13E80E808400C2200238360E4
:10503000C360036142618361C361FEF7E1FD18B1A2
:10504000BDE80840FFF7FEBB08BD00BF70040020AC
:105050000010014010B5044688B01422002103A8B6
:1050600000F08CF82268194B9A422DD103F5943345
:10507000002401945A6C164842F010025A645A6C8B
:1050800002F010020192019A02941A6B42F001029E
:105090001A631B6B03F001030293029B4FF4C0637E
:1050A000039302230493012305930323069303A987
:1050B00007230793FCF7BAFB252022462146FCF77D
:1050C000F9F92520FCF72AFA08B010BD00100140BC
:1050D00000000240DFF834D0002103E00C4B5B58A5
:1050E000435004310B480C4B42189A42F6D30B4AFA
:1050F00002E0002342F8043B094B9A42F9D3FFF740
:1051000041FC00F017F8FFF7D9FA704700000220C1
:105110008088000800000020E0010020E00100205D
:10512000B4040020FEE70000014B1868704700BF80
:105130000C00002070B50D4E0D4CA41BA4100025D2
:10514000A54209D10B4E0C4C03F0D6F9A41BA410B8
:105150000025A54205D170BD56F825309847013588
:10516000EEE756F8253098470135F2E778880008D1
:1051700078880008788800087C8800080244034684
:10518000934200D1704703F8011BF9E72DE9FF476F
:1051900055EC104B0D9FDDF830A0002D0E469146CA
:1051A0001946B8BF22462B4627F02007BBBF05F1A2
:1051B00000431D4600232D23B8BF1446462F0B7015
:1051C00004D0452F00D10136022100E0032103ABBA
:1051D000019302AB00933246534645EC104B00F06E
:1051E0000BFE472F804602D119F0010F26D0462F23
:1051F00008EB060911D198F80030302B0AD10022B3
:10520000002320462946FBF75BFC18B9C6F10106CE
:10521000CAF80060DAF800309944002200232046E2
:105220002946FBF74DFC38B93022039B994505D937
:10523000591C03911A70F8E7CDF80C90039B0E9A55
:10524000A3EB08034046136004B0BDE8F087F7B550
:1052500003460029B8BF494203F8022BB4BF2D22F0
:105260002B220929427020DD0DF1070217460A267C
:1052700091FBF6F506FB15113031092D02F8011CE2
:1052800002F1FF34294609DC3031023A04F8011CEE
:10529000BA421C4604D3201A03B0F0BD2246E7E709
:1052A00012F8011B03F8011BF2E730221C461144DF
:1052B00004F8022B5970EEE72DE9F04F8DB00C4643
:1052C000DDF8588016461F46054601F0DFFC0368EE
:1052D00004931846FAF77CFF00230A93D8F80030AD
:1052E0000590073323F0070303F1080294F818A090
:1052F000D4F800B0C8F80020D3E90023C4E9122391
:10530000D4E9128929F000430793CDF818804FF0B3
:10531000FF32A54BDDE90601FBF704FC002840F055
:10532000FB814FF0FF32A04BDDE90601FBF7DCFB10
:10533000002840F0F1810022002340464946FBF757
:10534000C9FB10B12D2384F84330984B984ABAF129
:10535000470F8CBF9046984603232BF0040223612D
:1053600022604FF00009009733460BAA21462846D9
:1053700000F0E2F9013040F093804FF0FF300DB0C3
:10538000BDE8F08F61684B1C4BF480623FD106236F
:105390006360002303930AAB029309AB009349ECCB
:1053A000108B0DF123032260CDF804A0616828461C
:1053B000FFF7ECFE0AF0DF03472B804609D1099B7B
:1053C000D81C02DB6268934257DDAAF1020A5FFA39
:1053D0008AFABAF1650F099934D80139524604F1B5
:1053E00050000991FFF733FF0A9A8318012A81467A
:1053F000236102DC2268D10701D5013323619DF8C6
:105400002330002BAFD02D2384F84330ABE7BAF123
:10541000670F02D0BAF1470FBBD189B100230393C4
:105420000AAB029309AB009349EC108B2260CDF8D4
:1054300004A00DF123032846FFF7A8FE8046BEE72F
:105440000123A5E7BAF1660F19D1002963680CDDC5
:10545000216113B92268D20702D501330B442361BD
:10546000099BA3654FF00009C9E713B92268D0076B
:1054700001D50233F3E70123F1E74FF0670A099BF7
:105480000A9A934205DB22682361D107E8D50133EC
:10549000E5E7002BD4BFC3F1020301231344DEE789
:1054A00023685A0507D42369424631462846B8473F
:1054B00001302BD161E7BAF1650F40F2E2800022A2
:1054C0000023D4E91201FBF7FBFA00283CD00123AA
:1054D000384A31462846B84701303FF44EAF0A9B60
:1054E000099A9A4202DB2368D8070FD5059B049AD4
:1054F00031462846B84701303FF43FAF4FF000082F
:1055000004F11A090A9B013B984512DB23689B07AB
:1055100009D54FF0000804F11909E3680B9A9B1AAA
:105520009845C0F2EE80E0680B9B9842B8BF1846E1
:1055300025E701234A4631462846B84701303FF463
:105540001CAF08F10108DDE7099B002B34DC0123C7
:10555000184A31462846B84701303FF40EAF099B40
:1055600023B90A9B13B92368D907CFD5059B049AA1
:1055700031462846B84701303FF4FFAE4FF00009EE
:1055800004F11A0A099B5B42994501DB0A9B8BE7F0
:105590000123524631462846B84701303FF4EDAE6C
:1055A00009F10109EEE700BFFFFFEF7F6485000806
:1055B00068850008748500080A9AA36D9A42A8BFFE
:1055C0001A46002A914638DC04F11A034FF0000B0A
:1055D00029EAE9790693D4F858A0AAEB09039B4578
:1055E00033DB0A9B099A9A423ADB2368DA0737D4FD
:1055F0000A9B0999A3EB0A02A3EB01099145A8BFF5
:105600009146B9F1000F33DC4FF0000829EAE9793F
:1056100004F11A0A099A0A9B9B1AA3EB09039845FD
:10562000BFF674AF0123524631462846B8470130D1
:105630003FF4A3AE08F10108ECE7134631464246B9
:105640002846B8470130BFD197E60123069A314674
:105650002846B84701303FF490AE0BF1010BBAE792
:10566000059B049A31462846B8470130C0D184E6EC
:105670004B4608EB0A0231462846B8470130C3D1F1
:105680007BE60A9A012A01DCDB0737D50123424673
:1056900031462846B84701303FF46FAE059B049A67
:1056A00031462846B84701303FF467AE0022002358
:1056B000D4E91201FBF704FA58B14FF0000804F1E5
:1056C0001A0A0A9B013B98450DDB4B4604F1500238
:1056D000EBE60A9B08F10102013B31462846B84738
:1056E0000130F2D149E60123524631462846B847F7
:1056F00001303FF442AE08F10108E2E701234246DF
:10570000EBE701234A4631462846B84701303FF4CB
:1057100034AE08F1010800E742464B464046494690
:10572000FBF700FA00283FF42DAE014B014A0EE6CC
:105730006C850008708500082DE9F04791461F46EA
:105740008A680B69DDF820809342B8BF1346C9F818
:10575000003091F8432006460C4612B10133C9F8D7
:1057600000302368990642BFD9F800300233C9F8E7
:105770000030256815F0060507D104F1190AE36821
:10578000D9F800209B1A9D4229DB94F84330226807
:10579000003318BF012392062ED404F14302394688
:1057A0003046C047013021D02368E568D9F8002091
:1057B00003F00603042B08BFAD1AA36822690CBFCF
:1057C00025EAE57500259342C4BF9B1AED184FF0FA
:1057D00000091A344D451BD10020BDE8F087012394
:1057E000524639463046C047013003D14FF0FF30B2
:1057F000BDE8F0870135C2E7E1185A1C302081F876
:105800004300224494F8451082F843100233C4E761
:105810000123224639463046C0470130E6D009F11F
:105820000109D7E72DE9F04317460A7E85B06E2AB5
:10583000984606460C460C9B01F1430E00F0BC80D6
:105840001AD8632A2ED00AD8002A00F0C880582A15
:1058500000F08A8004F1420584F842202AE0642A9C
:1058600001D0692AF6D121681A6811F0800F23D07F
:10587000111D1960136827E0732A00F0B48008D85E
:105880006F2A2AD0702AE5D10A6842F020020A6005
:1058900003E0752A21D0782ADCD1782284F84520CB
:1058A0006E4964E01A6801F14205111D1960136820
:1058B00084F842300123A3E011F0400F02F104010B
:1058C0001960D7D0B2F90030002B03DA2D225B42E9
:1058D00084F8432062490A2217E02068196810F012
:1058E000800F03D0081D18600B6806E010F0400F11
:1058F00001F104001860F7D00B8859496F2A14BFD2
:105900000A220822002084F843006568A560002D63
:10591000C0F29C80206820F004002060002B3FD162
:10592000002D40F095807546082A0BD12368DA07D0
:1059300008D5236962689A42DEBF302305F8013C2E
:1059400005F1FF35AEEB05032361CDF800803B4642
:1059500003AA21463046FFF7EFFE013055D14FF044
:10596000FF3005B0BDE8F08381F845203C4922684E
:10597000186812F0800F00F104051D6001D0036863
:1059800002E05506FBD50388D00744BF42F0200251
:1059900022601BB9226822F0200222601022B1E7A7
:1059A0007546B3FBF2F002FB1033CB5C05F8013D0A
:1059B00003460028F5D1B7E708681A68496910F06E
:1059C000800F04D0101D18601368196007E010F0F4
:1059D000400F02F1040018601368F6D0198000230C
:1059E00023617546B1E71A68111D19601568626870
:1059F00000212846FAF7F4FB08B1401B6060636899
:105A00002361002384F843309FE723692A463946FF
:105A10003046C0470130A2D023689B0707D5002538
:105A200004F11909E368039A9B1A9D4205DBE068BB
:105A3000039B9842B8BF184693E701234A4639466C
:105A40003046C04701308AD00135EBE7002BA7D1A3
:105A50000B7884F8423004F1420565E78785000839
:105A6000768500080FB40A4B13B51C6824B1A369EE
:105A700013B9204601F080F805AB049AA1680193A0
:105A8000204601F03DFD02B0BDE8104004B0704773
:105A90000C00002070B50E46054618B183690BB99D
:105AA00001F06AF8AB69AC6813B9284601F064F8F4
:105AB000234B9C4217D16C68A3891B071DD5236912
:105AC000DBB1013EA36816F8011F013BA360E9B9F1
:105AD000002B2EDA22460A21284600F03FF801303A
