:020000040800F2
:100000000000022071200008AD1E0008AF1E00088D
:10001000B11E0008B31E0008B51E00080000000055
:10002000000000000000000000000000B71E0008F3
:10003000B91E000800000000BB1E0008BD1E00081D
:10004000C1200008C1200008C1200008C12000080C
:10005000C1200008C11E0008C1200008C1200008FE
:10006000C1200008C1200008C1200008C1200008EC
:10007000C1200008C1200008C1200008C1200008DC
:10008000C1200008C1200008C51E0008C1200008CA
:10009000C1200008C1200008C1200008C1200008BC
:1000A000C1200008C1200008C1200008C1200008AC
:1000B000C1200008C1200008C1200008C12000089C
:1000C000C1200008C1200008C1200008C12000088C
:1000D000C1200008D11E0008C1200008C12000086E
:1000E000C1200008C1200008C1200008C12000086C
:1000F000C1200008C1200008C1200008C12000085C
:10010000C1200008C1200008C1200008C12000084B
:10011000C1200008C1200008C1200008C12000083B
:10012000DD1E0008C1200008C1200008C120000811
:10013000C1200008C1200008C1200008C12000081B
:10014000C1200008C1200008C1200008C12000080B
:10015000C1200008C1200008C1200008C1200008FB
:10016000C1200008C1200008C1200008C1200008EB
:10017000C1200008C1200008C120000800000000C4
:08018000C1200008C1200008A5
:1001900010B5054C237833B9044B13B10448AFF3C1
:1001A00000800123237010BD7000002000000000BB
:1001B000182F000808B5034B1BB103490348AFF3E0
:1001C000008008BD0000000074000020182F000807
:1001D00001F0FF01102A2BDB10F0070F08D010F8F8
:1001E000013B013A8B422DD010F0070F42B3F6D1FC
:1001F000F0B441EA012141EA014122F007047FF015
:1002000000070023F0E80256083C85EA010586EA6B
:10021000010685FA47F5A3FA87F586FA47F6A5FAA7
:1002200087F68EB9EED1F0BC01F0FF0102F00702B3
:1002300032B110F8013B013A83EA010313B1F8D15E
:100240000020704701387047002D06BF354603383F
:10025000073815F0010F07D1013015F4807F02BF78
:10026000013015F4C03F0130F0BC0138704700BFC9
:1002700053B94AB9002908BF00281CBF4FF0FF310D
:100280004FF0FF3000F07AB9ADF1080C6DE904CE03
:1002900000F006F8DDF804E0DDE9022304B0704761
:1002A0002DE9F0478C460D460446089E002B51D19F
:1002B0008A4217466DD9B2FA82FEBEF1000F0BD00A
:1002C000CEF1200C01FA0EF520FA0CFC02FA0EF722
:1002D0004CEA050C00FA0EF44FEA174A250CBCFB59
:1002E000FAF81FFA87F90AFB18CC45EA0C4508FB17
:1002F00009F3AB420AD9ED1908F1FF3280F02381EE
:10030000AB4240F22081A8F102083D44ED1AA4B2AC
:10031000B5FBFAF00AFB105544EA054400FB09F965
:10032000A14509D9E41900F1FF3380F00A81A14504
:1003300040F2078102383C44A4EB090440EA08403B
:100340000021002E61D024FA0EF400233460736083
:10035000BDE8F0878B4207D9002E54D0002186E8F3
:1003600021000846BDE8F087B3FA83F1002940F088
:100370008E80AB4202D3824200F2FA80841A65EB8F
:1003800003050120AC46002E3FD086E81010BDE8E2
:10039000F08712B90127B7FBF2F7B7FA87FEBEF173
:1003A000000F34D1EB1B3A0C1FFA87FC0121B3FB81
:1003B000F2F8250C02FB183345EA03450CFB08F361
:1003C000AB4207D9ED1908F1FF3002D2AB4200F27F
:1003D000D1808046ED1AA3B2B5FBF2F002FB1055B6
:1003E00043EA05440CFB00FCA44507D9E41900F1DD
:1003F000FF3302D2A44500F2B8801846A4EB0C04E7
:1004000040EA08409DE731463046BDE8F087CEF12E
:10041000200405FA0EF307FA0EF720FA04F83A0C56
:1004200025FA04F448EA0308B4FBF2F14FEA184550
:1004300002FB11441FFA87FC45EA044501FB0CF35B
:10044000AB4200FA0EF409D9ED1901F1FF3080F04A
:100450008A80AB4240F2878002393D44EB1A1FFA92
:1004600088F5B3FBF2F002FB103345EA034500FBCD
:100470000CF3AB4207D9ED1900F1FF386FD2AB4254
:100480006DD902383D44EB1A40EA01418FE7C1F1D2
:10049000200722FA07F88B4005FA01F448EA030323
:1004A00020FA07FE4FEA134CFD404EEA040EB5FB5E
:1004B000FCF94FEA1E440CFB19551FFA83F844EA75
:1004C000054509FB08F4AC4202FA01F200FA01FA10
:1004D00008D9ED1809F1FF3043D2AC4241D9A9F156
:1004E00002091D442D1B1FFA8EFEB5FBFCF00CFB10
:1004F00010554EEA054400FB08F8A04507D9E4185A
:1005000000F1FF3529D2A04527D902381C4440EA22
:100510000940A4EB0804A0FB02894C45C6464D46A1
:1005200015D312D056B1BAEB0E0364EB050404FAEE
:1005300007F7CB401F43CC40376074600021BDE813
:10054000F0871846F8E69046E0E6C245EAD2B8EBF6
:10055000020E69EB03050138E4E72846D7E7404679
:1005600091E78146BEE7014678E702383C4445E71B
:10057000084608E7A8F102083D442BE7704700BF92
:1005800038B50E4A0E4B054618784FF47A73B3FB14
:10059000F0F31068B0FBF3F000F046FB044658B9E6
:1005A0000F2D09D8024629464FF0FF3000F0FAFA25
:1005B000044B20461D6038BD012038BD08000020D6
:1005C000000000200400002008B50B4B1A6842F41C
:1005D00000721A601A6842F480621A601A6842F463
:1005E00080721A60032000F0CBFA0020FFF7C8FFEA
:1005F00001F038FC002008BD003C0240034A044BD7
:1006000011681B780B441360704700BF98000020EE
:1006100000000020014B1868704700BF98000020C0
:1006200038B50446002800F09B80056C25B901F020
:10063000EFFA656484F83C50236CDB0600F18E8091
:10064000236C23F4885323F0020343F00203236452
:10065000444B5A6822F440325A605A6861680A432F
:100660005A60236821695A6822F480725A605A6875
:1006700042EA01225A605A68A16822F040725A6028
:100680005A680A435A609A68E16822F400629A60E4
:100690009A680A439A603449A26A8A4252D0996899
:1006A00021F07061996099680A439A609A68E16ADA
:1006B00022F040529A609A680A439A609A68217EB2
:1006C00022F002029A609A6842EA41029A6094F823
:1006D0002020002A3ED05A68616A42F400625A60C3
:1006E0005A6822F460425A605A68013942EA41323B
:1006F0005A60DA6AE16922F47002DA62DA6A013970
:1007000042EA0152DA629A6894F8301022F40072D8
:100710009A609A6842EA41229A609A68616922F472
:1007200080629A609A68002042EA81229A6060643E
:10073000236C23F0030343F001032364002384F8B4
:100740003C3038BD9A6822F070629A609A6822F054
:100750004052B2E75A6822F40062C9E70120EDE78F
:10076000012038BD002301400100000F37B51346BA
:100770000022019290F83C20012A044677D00568B7
:10078000012280F83C20AA68D00705D5AA68D207C4
:1007900015D4002003B030BDAA6842F00102AA605F
:1007A000344A1068344AB0FBF2F000EB400001908C
:1007B000019A002AEAD0019A013A0192F8E7206CE6
:1007C00020F4E06020F0010040F4807020646A684A
:1007D000500541BF206C20F4405040F4805020640C
:1007E000226CA06B12F480521CBF626C22F00602D5
:1007F0006264002284F83C20204AC263204A0264DA
:10080000204AC2646FF022022A606A6842F0806265
:100810006A60AA6842F48072AA600A4605F14C0137
:1008200000F0ACFA184A1949536813F01F0F2368F7
:100830001AD18B4206D001F580718B420BD15268E0
:10084000D206A6D1986810F04050A2D19A6842F022
:1008500080429A609EE70E498B429AD1526802F01C
:100860001F020F2AEED994E78B4292D1EAE70220C9
:1008700090E700BF0800002040420F00E509000893
:1008800099080008CF09000800230140002001401A
:10089000002201407047704708B5806BFFF7FBFFEF
:1008A00008BD7047704738B5036819685A688D07E6
:1008B00004462BD5900629D5226CD1065EBF226C4A
:1008C00042F4007222649A6812F0405F17D1227ECF
:1008D000AAB9DA6A12F4700F02D09A6852050ED4DF
:1008E0005A6822F020025A60236C23F48073236438
:1008F000236CDB045EBF236C43F0010323642046BA
:10090000FFF7C8FF23686FF012021A6023681968A6
:100910005A684D0732D5100630D5226CD1065EBF1D
:10092000226C42F4005222649A6812F4401F1ED1D5
:100930009A6B12F4401F02D09A68520517D45A6875
:10094000550514D49A6812F0405F10D1227E72B916
:100950005A6822F080025A60236C23F48053236487
:10096000236CD8055EBF236C43F00103236420464B
:1009700000F004F923686FF00C021A60236819680C
:100980005A68C9070FD555060DD51B68D8070AD573
:10099000236C43F4803323642046FFF782FF2368EF
:1009A0006FF001021A60236819685A6889060DD52C
:1009B00052010BD5626C6FF0200542F002026264B6
:1009C00020461D60FFF76EFF23681D6038BD806BF9
:1009D00008B540230364436C43F004034364FFF70A
:1009E00061FF08BD836B1A6C12F0500F10B51A6CC2
:1009F00023D142F400721A641A68916811F0405FC2
:100A000017D1197EA9B9D16A11F4700F02D091687B
:100A100048050ED4516821F0200151601A6C22F46F
:100A200080721A641A6CD1045EBF1A6C42F0010223
:100A30001A641846FFF72EFF10BDD20603D51846DC
:100A4000FFF730FF10BD9B6BBDE81040DB6C184713
:100A5000F7B50023019390F83C30012B00F0838020
:100A60000D6804688A680123092D80F83C30AEB215
:100A70002AD906EB4603E7681E3B4FF0070E0EFA35
:100A800003FE27EA0E07E760E76802FA03F33B4339
:100A9000E3604A68062A4FEA820325D81344676B4D
:100AA000591F1F238B4027EA03036363626B06FA17
:100AB00001F1114361632D4B9C4234D0002380F837
:100AC0003C30184603B0F0BD276905EB45034FF0F5
:100AD000070E0EFA03FE27EA0E072761276902FABE
:100AE00003F33B432361D4E70C2A0ED81344216B54
:100AF000A3F123021F23934021EA03032363236B03
:100B000006FA02F21A432263D5E71344E16A413B35
:100B10001F229A4021EA0202E262E26A06FA03F127
:100B20001143E162C7E7122D04D1114A536843F41F
:100B300080035360A5F11003012BBFD80C4A536802
:100B4000102D43F400035360B8D10A4B0A4A1B68C6
:100B5000B3FBF2F20A2353430193019B002BADD068
:100B6000019B013BF8E70220ACE700BF00200140F9
:100B7000002301400800002040420F0070470000A1
:100B8000074AD36823F4E0631B041B0C43F0BF63E4
:100B9000000243F4003300F4E0600343D360704785
:100BA00000ED00E0174B30B5DC68C4F30224C4F15B
:100BB0000703251D042B28BF0423062D4FF0010534
:100BC00005FA03F303F1FF338CBF033C0024194003
:100BD000A14005FA04F4013C2240002842EA010247
:100BE0004FEA0212ADBF00F1604000F00F00064B6B
:100BF00000F56140B5BFD2B2D2B21A5480F80023DA
:100C000030BD00BF00ED00E014ED00E0002808DB7F
:100C10004209012300F01F0003FA00F0014B43F8E2
:100C20002200704700E100E00138B0F1807F0AD275
:100C3000064B074A5860F02182F823100020072253
:100C400098601A6070470120704700BF10E000E014
:100C500000ED00E00368DAB223F47F7323F00303AE
:100C60001821103AB2FBF1F20449032A88BF043379
:100C7000895C8365C165806D704700BF302F0008B7
:100C800070B50446FFF7C6FC0546002C71D0002362
:100C900084F834302268022384F83530136823F056
:100CA0000103136021680B68D8073CD40B68324DF0
:100CB0006268A0691D40A3681343E2681343226978
:100CC000134362691343E26903431343226A1343E4
:100CD000626A042A43EA050301BF266BE56A3543CD
:100CE0002B430B604B69042A23F0070343EA0203FA
:100CF0000BD1A26AE56A13433DB1F8B9012A2DD0A0
:100D000001D3022A01D1EA012BD44B612046FFF71F
:100D1000A1FFE26D3F2393408360002001236065C3
:100D200084F8353070BDFFF775FC401B0528B9D934
:100D300020236365032084F8350070BDB0F5005FA3
:100D400013D1032AE1D801A050F822F0630D000866
:100D5000070D0008630D00085D0D0008B5F1C07FA8
:100D6000D3D1402363650120E5E7022AF9D9032A9C
:100D7000C8E7012070BD00BF3F8010F070B590F84B
:100D80003440012C36D0012480F8344090F83540AE
:100D9000866D012C4FF000054FF0020428D180F839
:100DA000354004684565256825F480252560636025
:100DB0008368402B0EBFA260A160E260C26D08BFD5
:100DC000E1603F239340B360236843F01603236040
:100DD000636943F080036361036C1BB1236843F0D4
:100DE00008032360236843F001032360002070BDE3
:100DF00080F83450022070BD90F83530022B03D0BB
:100E000080234365012070470268052380F8353050
:100E1000136823F00103136000207047F7B5002327
:100E200001935A4B856D1F68C36D2E6808229A4046
:100E3000164204460CD001680868400708D50868C7
:100E400020F004000860AA60626D42F00102626551
:100E500001229A40164208D021684969090641BF1B
:100E6000AA60626D42F00202626504229A40164254
:100E700008D021680968880741BFAA60626D42F006
:100E80000402626510229A40164210D02368196845
:100E900009070CD5AA601A68500335D51B681903D9
:100EA00001D4236C00E0A36C0BB120469847E16DA0
:100EB00020228A40164238D023681868C60634D5E6
:100EC000AA6094F83520052A1A6825D122F0160266
:100ED0001A605A6922F080025A61226C0AB9A26C27
:100EE0001AB11A6822F008021A603F238B40AB60E7
:100EF000002384F83430012384F83530236D0BB19E
:100F00002046984703B0F0BD1A68D2055EBF1A6844
:100F100022F008021A60C4E7500328D51B681903A1
:100F200032D4636C0BB120469847636D002BE9D037
:100F3000636DDA0719D50523226884F83530136804
:100F400023F0010313604FF41653B7FBF3F7019B33
:100F500001339F42019302D31368DB07F7D40023C8
:100F600084F83430012384F83530E36CC7E71A681D
:100F700012F4807208D1196821F010011960012360
:100F800084F8342084F83530E36BCBE70800002088
:100F90002DE9F04F85B00B68DFF8AC81684ADFF8C7
:100FA000AC91019300234FF0010E019C0EFA03FE59
:100FB0000EEA0406B64540F0AE804C6824F01007F7
:100FC000022F16D14FEAD30A00EB8A0A03F0070B6F
:100FD000DAF820504FEA8B0B4FF00F0C0CFA0BFC99
:100FE00025EA0C0C0D6905FA0BF545EA0C05CAF863
:100FF00020504FEA430A0325D0F800B005FA0AF55D
:10100000ED4304F0030C0BEA050B0CFA0AFC013F5C
:101010004CEA0B0C012FC0F800C011D8876807EA12
:10102000050BCF6807FA0AFC4CEA0B078760476894
:1010300027EA0E0EC4F300179F4047EA0E074760E9
:10104000C7683D408F6807FA0AF73D43C560E50071
:1010500061D54FF0000BCDF80CB0D8F84470394D85
:1010600047F48047C8F84470D8F8447007F48047C4
:101070000397039F23F0030707F1804707F59C3789
:1010800003F0030CD7F808A04FEA8C0C4FF00F0EBA
:101090000EFA0CFEA8422AEA0E0E43D005F5806532
:1010A000A84241D005F58065A8423FD005F580658E
:1010B000A8423DD005F58065A8423BD048453BD0CD
:1010C00005F50065A84239D005F58065A84214BF32
:1010D0000825072505FA0CF545EA0E05BD601568DB
:1010E000F74314F4803F0CBF3D403543156055680D
:1010F00014F4003F0CBF3D4035435560956814F42F
:10110000801F0CBF3D4035439560D568A40254BF95
:101110003D403543D5600133102B7FF444AF05B01B
:10112000BDE8F08F5D46D5E70125D3E70225D1E77D
:101130000325CFE70425CDE70525CBE70625C9E73D
:10114000003C014000000240003802400014024010
:101150002DE9F341044618B9012002B0BDE8F08141
:101160000368DD0710D42368980758D423681A074A
:1011700000F19A8023685B0700F1B880A269002A19
:1011800040F019810020E8E7A64B9A6802F00C02B3
:10119000042A07D09A6802F00C02082A0AD15B6878
:1011A000590207D59F4B1B689A03DCD56368002B57
:1011B000D9D1D1E763689B4DB3F5803F11D12B683E
:1011C00043F480332B60FFF725FA964D06462B68D3
:1011D0009B03C8D4FFF71EFA801B6428F7D90320AD
:1011E000BBE7B3F5A02F04D12B6843F480232B6019
:1011F000E5E72A6822F480322A602A6822F48022F5
:101200002A60002BDFD1FFF705FA06462B689F0303
:10121000A9D5FFF7FFF9801B6428F7D9DFE7814BD9
:101220009A6812F00C0F07D09A6802F00C02082A94
:1012300011D15B685E020ED47A4B1A68950702D50D
:10124000E268012A88D11A68216922F0F80242EA8C
:10125000C1021A608AE7E268734BB2B101221A60D8
:10126000FFF7D8F96F4D06462B68980707D52B680E
:10127000226923F0F80343EAC2032B6076E7FFF705
:10128000C9F9801B0228EFD9A9E71A60FFF7C2F954
:10129000644D06462B6899077FF568AFFFF7BAF9EA
:1012A000801B0228F6D99AE76269604B7AB1012265
:1012B0001A60FFF7AFF95B4D06466B6F9F073FF56E
:1012C00059AFFFF7A7F9801B0228F6D987E71A6004
:1012D000FFF7A0F9534D06466B6F98077FF54AAFAD
:1012E000FFF798F9801B0228F6D978E74D4B1A6C66
:1012F00012F0805228D101921A6C42F080521A6486
:101300001B6C03F080530193019B0126484D2B6811
:10131000D9051BD5A368434D012B27D12B6F43F073
:1013200001032B67FFF776F93E4D074641F28838F7
:101330002B6F9B0739D5002E3FF420AF394A136C31
:1013400023F08053136419E70026DFE72B6843F48A
:1013500080732B60FFF75EF907462B68DA05D9D456
:10136000FFF758F9C01B0228F7D938E7052B04D13D
:101370002B6F43F004032B67D0E72A6F22F00102A2
:101380002A672A6F22F004022A67002BCAD1FFF7CE
:1013900041F941F2883807462B6F9807CBD5FFF704
:1013A00039F9C01B4045F7D919E7FFF733F9C01BDE
:1013B0004045BDD913E71B4DAB6803F00C03082B68
:1013C0003FF4CAAE1B4E0023022A336034D1FFF72C
:1013D00021F907462B6899011ED4226AE369134359
:1013E000626A43EA8213E26A43EA0263A26A0D4C2C
:1013F0005208013A43EA02436B6001233360FFF76E
:1014000009F9054623689A013FF5BCAEFFF702F9DA
:10141000401B0228F6D9E2E6FFF7FCF8C01B0228C1
:10142000D8D9DCE60038024000004742800E47422F
:101430000070004060004742FFF7ECF804462B685C
:101440009B017FF59FAEFFF7E5F8001B0228F6D958
:10145000C5E600BF134908B58B6803F00C03042BE5
:1014600003D0082B03D0104808BD104808BD4A68B7
:101470004B68496813F4800314BF0C480A48C1F351
:10148000881118BF002302F03F02A1FB0001FEF704
:10149000EFFE044B5B68C3F3014301335B00B0FB19
:1014A000F3F008BD003802400024F40040787D01CC
:1014B0002DE9F0410D46044610B90120BDE8F08148
:1014C000444B1A6802F00F028A4228D321688F0722
:1014D0002DD4C80740D43F4B1A6802F00F02954242
:1014E00066D3226851076CD4130707D53A4A21699D
:1014F000936823F4604343EAC1039360FFF7AAFFB4
:10150000354B364A9B68C3F30313D35CD840344B46
:1015100018600020FFF734F80020BDE8F081CAB25F
:101520001A701B6803F00F039942C6D1CEE72A4B0D
:1015300011F0040F1EBF9A6842F4E0529A600E0741
:1015400042BF9A6842F460429A609A68A06822F0AA
:10155000F00202439A60BCE762681F4B012A1DD16A
:101560001B6813F4003FA8D01B4EB36823F003039D
:101570001343B360FFF74EF841F288380746B3686B
:10158000626803F00C03B3EB820FA4D0FFF742F8BC
:10159000C01B4045F3D90320BDE8F081911E01290D
:1015A0001B6802D813F0007FDDE713F0020FDAE7C3
:1015B000EAB21A701B6803F00F039D427FF47DAFFF
:1015C0008FE70549E0688B6823F4E05303438B60A1
:1015D0008AE700BF003C0240003802403C2F000870
:1015E00008000020044B054A9B68C3F38223D35CA8
:1015F000034A1068D8407047003802404C2F00085A
:1016000008000020044B054A9B68C3F34233D35CB7
:10161000034A1068D8407047003802404C2F000839
:10162000080000200368DA6822F49072DA605A69D0
:1016300022F001025A61202380F83A3070470000FE
:101640002DE9F0470668C2683369C16923F4405345
:1016500013433361044683680069F2680343606999
:1016600022F41642034322F00C020B431343F360AF
:101670007369A26923F440731343B1F5004F73619A
:101680007A4B7CD19E4203D003F580639E4244D1C5
:10169000FFF7B8FF192505FB00F360684FF06409F8
:1016A0004000B3FBF0F3B3FBF9F34FEA0318FFF785
:1016B000A9FF636868435B00B0FBF3F7FFF7A2FF85
:1016C000636868435B00B0FBF3F3B3FBF9F309FB1A
:1016D0001373DB003233B3FBF9F35B0003F4F877E9
:1016E000FFF790FF626868435200B0FBF2FAFFF721
:1016F00089FF636868435B00B0FBF3F3B3FBF9F366
:1017000009FB13A3DB003233B3FBF9F303F0070348
:1017100043443B44B360BDE8F087FFF763FF1925FE
:1017200005FB00F360684FF064094000B3FBF0F381
:10173000B3FBF9F34FEA0318FFF754FF63686843FC
:101740005B00B0FBF3F7FFF74DFF636868435B0096
:10175000B0FBF3F3B3FBF9F309FB1373DB00323394
:10176000B3FBF9F35B0003F4F877FFF73BFF626824
:1017700068435200B0FBF2FAFFF734FFB9E79E422C
:1017800002D03B4B9E4240D1FFF73CFF67681925D2
:101790004FF0640905FB00F3BF00B3FBF7F3B3FBA5
:1017A000F9F31F01FFF72EFF636868439B00B0FB4E
:1017B000F3F8FFF727FF636868439B00B0FBF3F380
:1017C000B3FBF9F309FB13831B013233B3FBF9F3CA
:1017D00003F0F008FFF716FF626868439200B0FB61
:1017E000F2FAFFF70FFF636868439B00B0FBF3F367
:1017F000B3FBF9F309FB13A31B013233B3FBF9F37A
:1018000003F00F0343EA080383E7FFF7EBFE676883
:1018100019254FF0640905FB00F3BF00B3FBF7F394
:10182000B3FBF9F31F01FFF7DDFE636868439B001C
:10183000B0FBF3F8FFF7D6FE636868439B00B0FB8C
:10184000F3F3B3FBF9F309FB13831B013233B3FB4F
:10185000F9F303F0F008FFF7C5FE626868439200F1
:10186000B0FBF2FAFFF7BEFEBDE700BF001001407B
:1018700000140140F8B504460E4617461D4621687F
:101880000B6836EA030301D10020F8BD6B1CF7D0CA
:1018900095B92368DA6822F4D072DA605A6922F0C6
:1018A00001025A61202384F8393084F83A30002349
:1018B00084F838300320F8BDFEF7ACFEC01B85422B
:1018C000DDD2E6E710B5044640B390F8393003F0B6
:1018D000FF021BB980F8382000F08AFB226824231D
:1018E00084F83930D36823F40053D3602046FFF7DF
:1018F000A7FE23681A6922F490421A615A6922F0FD
:101900002A025A61DA6842F40052DA600020202389
:10191000E06384F8393084F83A3010BD012010BDFE
:101920002DE9F0411F4690F83930202B04460D4632
:1019300090464FD100294AD0002A48D090F838303C
:10194000012B47D0012380F838300023C3632123C3
:1019500080F83930FEF75EFEA4F824800646A4F82D
:101960002680E38C9BB26BB93B4632464021204631
:10197000FFF780FFB0B9202384F8393084F83800AD
:10198000BDE8F081E38C013B9BB2E384A368B3F52F
:10199000805F32463B464FF0800120460ED1FFF774
:1019A00069FF10B10320BDE8F0812B882268C3F3E2
:1019B00008035360236943B90235D2E7FFF75AFFA2
:1019C0000028EFD123682A785A600135C9E7012041
:1019D000BDE8F0810220BDE8F0817047704790F8C3
:1019E0003A30222B10B536D1836801690268B3F50D
:1019F000805F836A23D15268E9B9C2F3080223F8F1
:101A0000022B8362C48D013CA4B2C4858CB90368E7
:101A1000DA6822F02002DA60DA6822F48072DA6092
:101A20005A6922F001025A61202380F83A30FFF708
:101A3000D5FF002010BDD2B223F8012BE1E721B978
:101A4000591C526881621A70DCE75268591C816225
:101A500002F07F02F7E7022010BD704703681A68A2
:101A6000D96870B5160704465D6907D196065AD540
:101A70008D0658D5BDE87040FFF7B1BF15F00105E0
:101A800002D111F4907F4ED0D30705D5CE0542BFC9
:101A9000E36B43F00103E363500704D51DB1E36B2F
:101AA00043F00203E363930704D51DB1E36B43F0F6
:101AB0000403E363160704D51DB1E36B43F0080389
:101AC000E363E36B002B66D0950604D5880602D548
:101AD0002046FFF784FF23685D69E26B110720460B
:101AE00002D415F040051AD0FFF79CFD23685A690F
:101AF000520610D55A69606B22F040025A6150B10B
:101B0000254B0365FFF778F9002844D0606BBDE8EA
:101B10007040036D18472046FFF79FFF70BDFFF729
:101B20009CFFE56370BD160627D50D0625D594F8F4
:101B30003920212A2FD1A268B2F5805F226A17D1FD
:101B40001188C1F308015960216979B90232226212
:101B5000E28C013A92B2E284EAB9DA6822F08002B9
:101B6000DA60DA6842F04002DA6070BD0132EEE716
:101B7000511C216212785A60EAE750060BD54A06DA
:101B800009D5DA6822F04002DA60202384F839307F
:101B90002046FFF722FF70BD9D1B000808B5806B33
:101BA0000023C385C384FFF758FF08BD1FB510226B
:101BB0000021684600F0B0FA1248134B036001247C
:101BC0000023124A436083600461047680F8203069
:101BD000C3628262C360C46180F830404461FEF732
:101BE0001FFD08B100F03CF90E238DE8180069468E
:101BF000022304480293FEF72BFF08B100F030F9EE
:101C000004B010BDFC000020002201400100000FC4
:101C100070B5064688B01422002103A800F07CFAB3
:101C20003268254B9A4244D1002503F58B33019548
:101C30005A6C2248224C42F480625A645A6C02F474
:101C400080620192019A02951A6B42F020021A6397
:101C50001B6B03F020030293029B1023039303A941
:101C600003230493FFF794F9164AA5604FF08063AD
:101C700084E80C004FF4806323614FF400636361D8
:101C80004FF40053A36120464FF48073E560E36195
:101C900025626562FEF7F4FF08B100F0E1F800226A
:101CA000B46312201146A663FEF77CFF1220FEF7F4
:101CB000ADFF08B070BD00BF00220140001402401B
:101CC0009C0000201064024007B50B4B00220192DB
:101CD000196B41F4800119631B6B03F480030193BA
:101CE00011463820019BFEF75DFF3820FEF78EFF7E
:101CF00003B05DF804FB00BF0038024084B0164B0F
:101D000000220092196B41F004011963196B01F074
:101D10000401009100990192196B41F020011963AF
:101D2000196B01F02001019101990292196B41F0A8
:101D300080011963196B01F08001029102990392ED
:101D40001A6B42F001021A631B6B03F00103039349
:101D5000039B04B0704700BF003802401FB50A283B
:101D6000019009D104A90D2341F8043D01224FF649
:101D7000FF730748FFF7D4FD4FF6FF73012201A957
:101D80000348FFF7CDFD019805B05DF804FB00BFE7
:101D90004401002070B594B03022002108A800F062
:101DA000BBF90021142203A800F0B6F900241C4B53
:101DB00001941A6C42F080521A641B6C03F0805339
:101DC0000193019B174B02941A6842F480421A60F7
:101DD0001B6803F480430293029B4FF48033099302
:101DE0004FF480030F9319231093C023022501267B
:101DF000119308A80423139308960E951295FFF7E4
:101E0000A7F90F2303938023059331464FF48053A2
:101E100003A8049506930794FFF74AFB14B070BD1E
:101E2000003802400070004007B5FEF7CDFBFFF719
:101E3000B1FFFFF763FFFFF747FFFFF7B7FE00F0C3
:101E4000BBF8012201A90448044CFEF78FFC204690
:101E500000F06AF9FBE700BFFC000020382F000803
:101E60007047000007B5104B00220092596C41F4F6
:101E700080415964596C01F48041009100990192AC
:101E8000196C41F0805119641B6C03F0805301936D
:101E900011460520019BFEF785FE0520FEF7B6FEE4
:101EA00003B05DF804FB00BF003802407047FEE756
:101EB000FEE7FEE7FEE7704770477047FEF79EBB00
:101EC000704700000148FEF7EEBC00BFFC00002098
:101ED0000148FFF7C3BD00BF440100200148FEF7E1
:101EE0009DBF00BF9C00002070B50E4615460C46F5
:101EF000A31B9D4201DC284670BDAFF3008004F8AF
:101F0000010BF5E770B50E4615460C46A31B9D4226
:101F100001DC284670BD14F8010BFFF71FFFF5E741
:101F200008B50A4B1968024609B9094919601868C9
:101F3000694602448A4206D900F0C4F80C230360C3
:101F40004FF0FF3008BD1A6008BD00BF8C000020B4
:101F5000880100204FF0FF3070474FF400534B6072
:101F60000020704701207047002070470F49D1F8CA
:101F7000883043F47003C1F888300D4B1A68002094
:101F800042F001021A6098601A6822F0847222F40A
:101F900080321A60074A5A601A6822F480221A6056
:101FA000D8604FF000638B60704700BF00ED00E029
:101FB000003802401030002408B50B480B4B4FF49A
:101FC000E13E80E808400C2200238360C360036187
:101FD00042618361C361FFF775FC18B1BDE8084039
:101FE000FFF73EBF08BD00BF4401002000100140C4
:101FF00010B5044688B01422002103A800F08CF824
:102000002268194B9A422DD103F594330024019490
:102010005A6C164842F010025A645A6C02F01002D0
:102020000192019A02941A6B42F001021A631B6B2F
:1020300003F001030293029B4FF4C0630393022356
:102040000493012305930323069303A9072307930E
:10205000FEF79EFF252022462146FEF7A3FD252000
:10206000FEF7D4FD08B010BD001001400000024092
:10207000DFF834D0002103E00C4B5B5843500431AF
:102080000B480C4B42189A42F6D30B4A02E000234D
:1020900042F8043B094B9A42F9D3FFF767FF00F07F
:1020A00017F8FFF7C1FE704700000220FC2F000860
:1020B0000000002070000020700000208801002037
:1020C000FEE70000014B1868704700BF0C000020BD
:1020D00070B50D4E0D4CA41BA4100025A54209D1CE
:1020E0000B4E0C4C00F018FFA41BA4100025A542B9
:1020F00005D170BD56F8253098470135EEE756F802
:10210000253098470135F2E7F42F0008F42F000836
:10211000F42F0008F82F000802440346934200D130
:10212000704703F8011BF9E70FB40A4B13B51C689D
:1021300024B1A36913B9204600F04EF805AB049A08
:10214000A1680193204600F059F902B0BDE81040A3
:1021500004B070470C000020014900F0A9B800BF8E
:10216000D12C0008002310B504460360436083604F
:1021700081814366C28103614361836119460822FC
:102180005C30FFF7C9FF054B6362054BA362054B4B
:10219000E362054B2462236310BD00BF752900086C
:1021A00097290008CF290008F329000870B54A1EB6
:1021B000682555430E4605F1740100F097F8044672
:1021C00040B1002180E842000C30A06005F16802B7
:1021D000FFF7A2FF204670BD836910B5044633BBEC
:1021E0008364C3640365124B124A1B68826298427F
:1021F00004BF0123836100F01FF86060204600F0F7
:102200001BF8A060204600F017F80022E0600421CF
:102210006068FFF7A7FF01220921A068FFF7A2FF6E
:1022200002221221E068FFF79DFF0123A36110BD88
:10223000542F000859210008F8B51C4B1E68B369DB
:10224000074613B93046FFF7C7FF4836B4687368CE
:10225000013B03D5336833B13668F7E7B4F90C5066
:102260006DB16834F4E704213846FFF79FFF306012
:102270000028F1D10C233B6004462046F8BD4FF600
:10228000FF73E3810123A38165662560A560656016
:1022900025616561A5610822294604F15C00FFF70C
:1022A0003BFF6563A563A564E564E6E7542F00087A
:1022B0002DE9F8438046894600F14804002614B908
:1022C0003046BDE8F883A5686768013F01D52468FA
:1022D000F5E7AB89012B07D9B5F90E30013303D0EF
:1022E00029464046C84706436835EEE770B5CD1C21
:1022F00025F0030508350C2D38BF0C25002D0646AA
:1023000001DBA94203D90C233360002070BD00F02B
:102310007FFD234A1468214691B9224C23681BB9DA
:10232000304600F017FB20602946304600F012FBD3
:10233000431C26D10C233360304600F06AFDE4E7ED
:102340000B685B1B1AD40B2B0FD90B60CD50CC182C
:10235000304600F05EFD04F10B00231D20F0070065
:10236000C31A1BD05A42E25070BD8C420DBF636845
:102370004B686360136018BF0C46E9E70C46496878
:10238000CAE7C41C24F00304A04205D0211A304639
:1023900000F0E0FA0130CDD02560D9E770BD00BF74
:1023A00090000020940000209368013B002B10B4A3
:1023B000936009DA9469A34202DBCBB20A2B03D102
:1023C0005DF8044B00F01ABB1368581C10601970BC
:1023D000C8B25DF8044B7047F8B506460F46144680
:1023E000D518AC4201D1002007E03A4614F8011B91
:1023F0003046FFF7D9FF431CF3D1F8BD2DE9F04F6C
:102400009DB00C4617460393064618B183690BB975
:10241000FFF7E2FE7C4B9C4257D17468A3891807F2
:102420005DD52369002B5AD00023099320238DF812
:10243000293030238DF82A304FF0010BB84645463D
:1024400015F8013B002B55D1B8EB070A0BD05346CA
:102450003A4621463046FFF7BFFF013000F0C48006
:10246000099B5344099398F80030002B00F0BC807E
:1024700000234FF0FF3204930793059206938DF8E3
:1024800053301A93052229786048FDF7A1FE05F123
:102490000108049B002831D1D90644BF20228DF8C1
:1024A00053201A0744BF2B228DF853202A782A2A5A
:1024B0002CD0079A00210A20A846013598F8003050
:1024C000303B092B6DD971B326E0514B9C4201D1B1
:1024D000B468A3E74F4B9C4208BFF4689EE72146CF
:1024E000304600F0EFFA00289ED04FF0FF301DB0CC
:1024F000BDE8F08F252BA7D0A846A0E7434A801A55
:102500000BFA00F0184304904546BBE7039A111DEF
:1025100012680391002A01DB079204E0524243F063
:1025200002030792049398F800302E2B10D198F8EC
:1025300001302A2B08F1010137D1039B1A1D1B68BA
:102540000392002BB8BF4FF0FF3308F10208059348
:10255000314D98F8001003222846FDF739FE40B1AE
:102560004023401B03FA00F0049B0343049308F14B
:10257000010898F8001029488DF82810062208F163
:102580000107FDF725FE002834D0254B03BB039B34
:10259000073323F0070308330393099B4B44099344
:1025A0004CE700FB0232012186E700230593184621
:1025B0000A258846013198F80020303A092A03D9C3
:1025C000002BC5D00590C3E705FB00200123F0E7F1
:1025D00003AB00932246134B04A93046AFF30080AF
:1025E000B0F1FF3F8146D8D1A3895B063FF57DAFAF
:1025F00009987CE703AB009322460A4B04A93046B6
:1026000000F088F8ECE700BF782F0008B82F00082A
:10261000982F0008582F0008BE2F0008C22F00086E
:1026200000000000D92300082DE9F04791461F461D
:102630008A680B69DDF820809342B8BF1346C9F859
:10264000003091F8432006460C4612B10133C9F818
:1026500000302368990642BFD9F800300233C9F828
:102660000030256815F0060507D104F1190AE36862
:10267000D9F800209B1A9D4229DB94F84330226848
:10268000003318BF012392062ED404F143023946C9
:102690003046C047013021D02368E568D9F80020D2
:1026A00003F00603042B08BFAD1AA36822690CBF10
:1026B00025EAE57500259342C4BF9B1AED184FF03B
:1026C00000091A344D451BD10020BDE8F0870123D5
:1026D000524639463046C047013003D14FF0FF30F3
:1026E000BDE8F0870135C2E7E1185A1C302081F8B7
:1026F0004300224494F8451082F843100233C4E7A3
:102700000123224639463046C0470130E6D009F160
:102710000109D7E72DE9F04317460A7E85B06E2AF6
:10272000984606460C460C9B01F1430E00F0BC8017
:102730001AD8632A2ED00AD8002A00F0C880582A56
:1027400000F08A8004F1420584F842202AE0642ADD
:1027500001D0692AF6D121681A6811F0800F23D0C0
:10276000111D1960136827E0732A00F0B48008D89F
:102770006F2A2AD0702AE5D10A6842F020020A6046
:1027800003E0752A21D0782ADCD1782284F845200C
:102790006E4964E01A6801F14205111D1960136861
:1027A00084F842300123A3E011F0400F02F104014C
:1027B0001960D7D0B2F90030002B03DA2D225B422A
:1027C00084F8432062490A2217E02068196810F053
:1027D000800F03D0081D18600B6806E010F0400F52
:1027E00001F104001860F7D00B8859496F2A14BF13
:1027F0000A220822002084F843006568A560002DA5
:10280000C0F29C80206820F004002060002B3FD1A3
:10281000002D40F095807546082A0BD12368DA0711
:1028200008D5236962689A42DEBF302305F8013C6F
:1028300005F1FF35AEEB05032361CDF800803B4683
:1028400003AA21463046FFF7EFFE013055D14FF085
:10285000FF3005B0BDE8F08381F845203C4922688F
:10286000186812F0800F00F104051D6001D00368A4
:1028700002E05506FBD50388D00744BF42F0200292
:1028800022601BB9226822F0200222601022B1E7E8
:102890007546B3FBF2F002FB1033CB5C05F8013D4B
:1028A00003460028F5D1B7E708681A68496910F0AF
:1028B000800F04D0101D18601368196007E010F035
:1028C000400F02F1040018601368F6D0198000234D
:1028D00023617546B1E71A68111D196015686268B1
:1028E00000212846FDF774FC08B1401B6060636856
:1028F0002361002384F843309FE723692A46394641
:102900003046C0470130A2D023689B0707D5002579
:1029100004F11909E368039A9B1A9D4205DBE068FC
:10292000039B9842B8BF184693E701234A463946AD
:102930003046C04701308AD00135EBE7002BA7D1E4
:102940000B7884F8423004F1420565E7DA2F00087D
:10295000C92F000838B5064C0023054608462360F9
:10296000FFF7DEFA431C02D1236803B12B6038BDA8
:102970008401002010B50C46B1F90E1000F098FA51
:102980000028ABBF636DA3891B1823F48053ACBF31
:102990006365A38110BD2DE9F0411F468B89DB05DE
:1029A00005460C46164605D502230022B1F90E1045
:1029B00000F0B8F9A389B4F90E1023F48053A38171
:1029C00032463B462846BDE8F04100F069B810B5F4
:1029D0000C46B1F90E1000F0A5F9431CA38915BFF0
:1029E000606523F4805343F48053A38118BFA3810F
:1029F00010BDB1F90E1000F0D3B80000F8B50E46C6
:102A00001446054618B183690BB9FFF7E5FB214B66
:102A10009C422AD16C68A369A360A3891A072ED5AA
:102A2000236963B323692068C01A6369F6B29842C8
:102A3000374604DB2146284600F04AF928BBA36844
:102A4000013BA36023685A1C22601E706369013039
:102A5000984204D0A389DB0719D50A2E17D1214645
:102A6000284600F035F990B10FE00B4B9C4201D1A4
:102A7000AC68D0E7094B9C4208BFEC68CBE7214625
:102A8000284600F01FF80028CCD04FF0FF3738461A
:102A9000F8BD00BF782F0008982F0008582F0008B5
:102AA00038B5074C054608461146002222601A46F2
:102AB000FFF728FA431C02D1236803B12B6038BD0D
:102AC00084010020324B70B51D6806460C4625B1C6
:102AD000AB6913B92846FFF77FFB2E4B9C420FD101
:102AE0006C68B4F90C309AB215072CD4D00611D406
:102AF0000922326043F04003A3814FF0FF3070BDE4
:102B0000254B9C4201D1AC68EBE7244B9C4208BFAB
:102B1000EC68E6E7510712D5616B41B104F144035B
:102B2000994202D0304600F075F900236363A3890F
:102B300023F02403A3810023636023692360A38916
:102B400043F00803A38123694BB9A38903F42073DD
:102B5000B3F5007F03D02146304600F019F9A28971
:102B600012F001030CD00023A36063695B42A361F0
:102B7000236953B9B4F90C3013F08000BAD170BD99
:102B8000920758BF6369A360F2E70020F7E700BF30
:102B90000C000020782F0008982F0008582F0008FC
:102BA00038B5064C0023054608462360FFF7D2F9E6
:102BB000431C02D1236803B12B6038BD840100207F
:102BC0008A892DE9F041054610070C465AD44B6816
:102BD000002B05DC0B6C002B02DC0020BDE8F08133
:102BE000E66A002EF9D0002312F480522F682B6081
:102BF00033D0606DA3895A0705D56368C01A636B2B
:102C00000BB1236CC01A00230246E66A216A2846EB
:102C1000B047431CA38906D129681D294BD82B4AEC
:102C2000CA40D60747D500226260D90422692260D3
:102C300004D5421C01D12B6803B96065616B2F601C
:102C40000029CAD004F14403994202D0284600F07A
:102C5000E1F800206063BDE8F081216A0123284685
:102C6000B047411CC6D12B68002BC3D01D2B01D00F
:102C7000162B01D12F60B0E7A38943F04003A38155
:102C8000BDE8F0810F69002FA7D093070E6808BF39
:102C90004B690F6018BF0023A6EB07088B60B8F1E3
:102CA000000F9ADD43463A46216AA66A2846B04795
:102CB000002807DCA38943F04003A3814FF0FF30D5
:102CC000BDE8F0810744A8EB0008E8E701004020D8
:102CD00038B50B6905460C46DBB118B183690BB9F1
:102CE000FFF77AFA0C4B9C4209D16C68B4F90C30AE
:102CF0007BB121462846BDE83840FFF761BF074B4E
:102D00009C4201D1AC68F1E7054B9C4208BFEC68DE
:102D1000ECE7002038BD00BF782F0008982F00088E
:102D2000582F000838B5074C0546084611460022C2
:102D300022601A46FFF718F9431C02D1236803B139
:102D40002B6038BD8401002070B50E46B1F90E101D
:102D5000002990B014461D4607DA00232B60B38982
:102D60001A0610D44FF480630EE001AA00F0B2F806
:102D70000028F2DB029A02F47042A2F500535A4294
:102D80005A412A60EEE740230020236010B070BD56
:102D90008B8973B59D0706460C4607D504F147039A
:102DA000236023610123636102B070BD01AB6A46F9
:102DB000FFF7CAFF009905463046FFF797FA48B972
:102DC000B4F90C309A05EFD423F0030343F0020367
:102DD000A381E3E70D4BB362A389206043F0800336
:102DE000A381009B6361019B20615BB1B4F90E106C
:102DF000304600F081F828B1A38923F0030343F0A3
:102E00000103A381A3891D43A581CDE759210008B2
:102E10007047704738B50546002945D051F8043C45
:102E20000C1F002BB8BFE418FFF7F2FF1F4A13680E
:102E3000104633B9636014602846BDE83840FFF798
:102E4000E8BFA3420CD921686218934204BF1A68F4
:102E50005B68636004BF521822600460ECE71346AD
:102E60005A680AB1A242FAD919685818A0420BD17F
:102E700020680144581882421960DDD110685268F8
:102E80005A6001441960D7E702D90C232B60D3E7BD
:102E9000206821188A4204BF11685268626004BF2A
:102EA000091821605C60C7E738BD00BF90000020B2
:102EB00038B5074C054608461146002222601A46DE
:102EC000FFF712F8431C02D1236803B12B6038BD11
:102ED0008401002038B5074C0023054608461146FA
:102EE0002360FFF73AF8431C02D1236803B12B603B
:102EF00038BD00BF8401002038B5064C00230546CC
:102F000008462360FFF72EF8431C02D1236803B163
:102F10002B6038BD84010020F8B500BFF8BC08BCA8
:102F20009E467047F8B500BFF8BC08BC9E46704787
:102F30000006101600061016616220000000000056
:102F40000000000001020304060708090000000059
:102F50000102030410000020000000000000000037
:102F60000000000000000000000000000000000061
:102F70000000000000000000000000000000000051
:102F80000000000000000000000000000000000041
:102F90000000000000000000000000000000000031
:102FA0000000000000000000000000000000000021
:102FB0000000000000000000232D302B2000686C72
:102FC0004C0065666745464700303132333435364C
:102FD0003738394142434445460030313233343585
:0C2FE000363738396162636465660000B2
:082FEC00B4D2FF7F01000000D8
:042FF400B50100081B
:042FF800910100083B
:102FFC0001000000100000000024F400100000206C
:10300C0000000000782F0008982F0008582F0008A7
:10301C0000000000000000000000000000000000A4
:10302C000000000000000000000000000000000094
:10303C000000000000000000000000000000000084
:10304C000000000000000000000000000000000074
:10305C000000000000000000000000000000000064
:04000005080020715E
:00000001FF
